:020000040800F2
:1000000000000220B5130008C5110008CB1100083C
:10001000D1110008D7110008DD1100080000000010
:10002000000000000000000000000000E3110008D4
:10003000EF11000800000000FB1100080712000883
:10004000051400080514000805140008051400082C
:10005000051400080514000805140008051400081C
:10006000051400080514000805140008051400080C
:1000700005140008051400080514000805140008FC
:1000800005140008051400080514000805140008EC
:1000900005140008051400080514000805140008DC
:1000A00005140008051400080514000805140008CC
:1000B00005140008051400080514000805140008BC
:1000C00005140008051400080514000805140008AC
:1000D000051400080514000805140008051400089C
:1000E000051400080514000805140008051400088C
:1000F000051400080514000805140008051400087C
:10010000051400080514000805140008051400086B
:10011000051400080514000805140008051400085B
:10012000051400080514000805140008051400084B
:10013000051400080514000805140008051400083B
:10014000051400080514000805140008151200081D
:10015000051400080514000805140008051400081B
:10016000051400080514000805140008051400080B
:10017000051400080514000805140008000000001C
:04018000051400085A
:1001880010B5054C237833B9044B13B10448AFF3C9
:1001980000800123237010BD7C03002000000000B4
:1001A800F4BB000808B5034B1BB103490348AFF380
:1001B800008008BD0000000080030020F4BB000898
:1001C800034613F8012B002AFBD1181A013870478F
:1001D80081F0004102E000BF83F0004330B54FEAF0
:1001E80041044FEA430594EA050F08BF90EA020F5D
:1001F8001FBF54EA000C55EA020C7FEA645C7FEAF0
:10020800655C00F0E2804FEA5454D4EB5555B8BF12
:100218006D420CDD2C4480EA020281EA030382EA83
:10022800000083EA010180EA020281EA0303362D15
:1002380088BF30BD11F0004F4FEA01314FF4801CE8
:100248004CEA113102D0404261EB410113F0004FFA
:100258004FEA03334CEA133302D0524263EB4303B1
:1002680094EA050F00F0A780A4F10104D5F1200E4F
:100278000DDB02FA0EFC22FA05F2801841F10001AA
:1002880003FA0EF2801843FA05F359410EE0A5F17E
:1002980020050EF1200E012A03FA0EFC28BF4CF0AF
:1002A800020C43FA05F3C01851EBE37101F0004565
:1002B80007D54FF0000EDCF1000C7EEB00006EEB72
:1002C8000101B1F5801F1BD3B1F5001F0CD34908FC
:1002D8005FEA30004FEA3C0C04F101044FEA445253
:1002E80012F5800F80F09A80BCF1004F08BF5FEADA
:1002F800500C50F1000041EB045141EA050130BDBA
:100308005FEA4C0C404141EB0101013C28BFB1F5CB
:10031800801FE9D291F0000F04BF01460020B1FA16
:1003280081F308BF2033A3F10B03B3F120020CDAE9
:100338000C3208DD02F1140CC2F10C0201FA0CF0C7
:1003480021FA02F10CE002F11402D8BFC2F1200C2C
:1003580001FA02F120FA0CFCDCBF41EA0C019040E2
:10036800E41AA2BF01EB0451294330BD6FEA04042B
:100378001F3C1CDA0C340EDC04F11404C4F1200216
:1003880020FA04F001FA02F340EA030021FA04F328
:1003980045EA030130BDC4F10C04C4F1200220FA7F
:1003A80002F001FA04F340EA0300294630BD21FABD
:1003B80004F0294630BD94F0000F83F4801306BF83
:1003C80081F480110134013D4EE77FEA645C18BF77
:1003D8007FEA655C29D094EA050F08BF90EA020F0E
:1003E80005D054EA000C04BF1946104630BD91EA06
:1003F800030F1EBF0021002030BD5FEA545C05D109
:100408004000494128BF41F0004130BD14F5800447
:100418003CBF01F5801130BD01F0004545F0FE41BB
:1004280041F470014FF0000030BD7FEA645C1ABFF0
:10043800194610467FEA655C1CBF0B46024650EA27
:10044800013406BF52EA033591EA030F41F4002153
:1004580030BD00BF90F0000F04BF0021704730B5D9
:100468004FF4806404F132044FF000054FF00001AE
:1004780050E700BF90F0000F04BF0021704730B56F
:100488004FF4806404F1320410F0004548BF404244
:100498004FF000013EE700BF42004FEAE2014FEA99
:1004A80031014FEA02701FBF12F07F4393F07F4F74
:1004B80081F06051704732F07F4208BF704793F077
:1004C8007F4F04BF41F40021704730B54FF460748A
:1004D80001F0004521F000411CE700BF50EA01028D
:1004E80008BF704730B54FF000050AE050EA010236
:1004F80008BF704730B511F0004502D5404261EBA6
:1005080041014FF4806404F132045FEA915C3FF4E6
:10051800D8AE4FF003025FEADC0C18BF03325FEA83
:10052800DC0C18BF033202EBDC02C2F1200300FA34
:1005380003FC20FA02F001FA03FE40EA0E0021FA59
:1005480002F11444BDE600BF70B54FF0FF0C4CF447
:10055800E06C1CEA11541DBF1CEA135594EA0C0FF9
:1005680095EA0C0F00F0DEF82C4481EA030621EA34
:100578004C5123EA4C5350EA013518BF52EA03356F
:1005880041F4801143F4801338D0A0FB02CE4FF021
:100598000005E1FB02E506F00042E0FB03E54FF051
:1005A8000006E1FB03569CF0000F18BF4EF0010E49
:1005B800A4F1FF04B6F5007F64F5407404D25FEA45
:1005C8004E0E6D4146EB060642EAC62141EA5551F8
:1005D8004FEAC52040EA5E504FEACE2EB4F1FD0C3A
:1005E80088BFBCF5E06F1ED8BEF1004F08BF5FEAB8
:1005F800500E50F1000041EB045170BD06F000466A
:1006080046EA010140EA020081EA0301B4EB5C0416
:10061800C2BFD4EB0C0541EA045170BD41F480110E
:100628004FF0000E013C00F3AB8014F1360FDEBF33
:10063800002001F0004170BDC4F10004203C35DA0F
:100648000C341BDC04F11404C4F1200500FA05F392
:1006580020FA04F001FA05F240EA020001F0004233
:1006680021F0004110EBD37021FA04F642EB0601A9
:100678005EEA430E08BF20EAD37070BDC4F10C04D3
:10068800C4F1200500FA04F320FA05F001FA04F297
:1006980040EA020001F0004110EBD37041F1000183
:1006A8005EEA430E08BF20EAD37070BDC4F120058E
:1006B80000FA05F24EEA020E20FA04F301FA05F2F6
:1006C80043EA020321FA04F001F0004121FA04F29E
:1006D80020EA020000EBD3705EEA430E08BF20EA6E
:1006E800D37070BD94F0000F0FD101F000464000A8
:1006F80041EB010111F4801F08BF013CF7D041EA2A
:10070800060195F0000F18BF704703F0004652002D
:1007180043EB030313F4801F08BF013DF7D043EAFE
:100728000603704794EA0C0F0CEA135518BF95EAB4
:100738000C0F0CD050EA410618BF52EA4306D1D13B
:1007480081EA030101F000414FF0000070BD50EA5A
:10075800410606BF1046194652EA430619D094EAE4
:100768000C0F02D150EA013613D195EA0C0F05D1CE
:1007780052EA03361CBF104619460AD181EA030122
:1007880001F0004141F0FE4141F470014FF00000DA
:1007980070BD41F0FE4141F4780170BD70B54FF075
:1007A800FF0C4CF4E06C1CEA11541DBF1CEA1355F5
:1007B80094EA0C0F95EA0C0F00F0A7F8A4EB0504D7
:1007C80081EA030E52EA03354FEA013100F08880CE
:1007D8004FEA03334FF0805545EA131343EA126397
:1007E8004FEA022245EA111545EA10654FEA00264C
:1007F8000EF000419D4208BF964244F1FD0404F505
:10080800407402D25B084FEA3202B61A65EB030560
:100818005B084FEA32024FF480104FF4002CB6EB1D
:10082800020E75EB030E22BFB61A754640EA0C009D
:100838005B084FEA3202B6EB020E75EB030E22BFDD
:10084800B61A754640EA5C005B084FEA3202B6EB1E
:10085800020E75EB030E22BFB61A754640EA9C00DD
:100868005B084FEA3202B6EB020E75EB030E22BFAD
:10087800B61A754640EADC0055EA060E18D04FEA6B
:10088800051545EA16754FEA06164FEAC30343EA0B
:1008980052734FEAC2025FEA1C1CC0D111F4801FD8
:1008A8000BD141EA00014FF000004FF0004CB6E7D1
:1008B80011F4801F04BF01430020B4F1FD0C88BF70
:1008C800BCF5E06F3FF6AFAEB5EB030C04BFB6EB7B
:1008D800020C5FEA500C50F1000041EB045170BD6E
:1008E8000EF0004E4EEA113114EB5C04C2BFD4EB9B
:1008F8000C0541EA045170BD41F480114FF0000E1F
:10090800013C90E645EA060E8DE60CEA135594EA9A
:100918000C0F08BF95EA0C0F3FF43BAF94EA0C0F9D
:100928000AD150EA01347FF434AF95EA0C0F7FF412
:1009380025AF104619462CE795EA0C0F06D152EA66
:1009480003353FF4FDAE1046194622E750EA41064A
:1009580018BF52EA43067FF4C5AE50EA41047FF45B
:100968000DAF52EA43057FF4EBAE12E74FF0FF3CC0
:1009780006E000BF4FF0010C02E000BF4FF0010C91
:100988004DF804CD4FEA410C7FEA6C5C4FEA430C0A
:1009980018BF7FEA6C5C1BD001B050EA410C0CBF59
:1009A80052EA430C91EA030F02BF90EA020F0020BB
:1009B800704710F1000F91EA030F58BF994208BF22
:1009C80090422CBFD8176FEAE37040F001007047DF
:1009D8004FEA410C7FEA6C5C02D150EA013C07D136
:1009E8004FEA430C7FEA6C5CD6D152EA033CD3D081
:1009F8005DF8040B704700BF8446104662468C467B
:100A08001946634600E000BF01B5FFF7B7FF0028AD
:100A180048BF10F1000F01BD4DF808EDFFF7F4FFD6
:100A28000CBF012000205DF808FB00BF4DF808ED61
:100A3800FFF7EAFF34BF012000205DF808FB00BF84
:100A48004DF808EDFFF7E0FF94BF012000205DF8A6
:100A580008FB00BF4DF808EDFFF7CEFF94BF01205B
:100A680000205DF808FB00BF4DF808EDFFF7C4FF54
:100A780034BF012000205DF808FB00BF4FEA410C9D
:100A88007FEA6C5C02D150EA013C0AD14FEA430C80
:100A98007FEA6C5C02D152EA033C02D14FF00000BD
:100AA80070474FF0010070474FEA410212F50012FB
:100AB80015D211D56FF47873B3EB625212D94FEA9D
:100AC800C12343F0004343EA505311F0004F23FA87
:100AD80002F018BF404270474FF00000704750EADC
:100AE800013005D111F0004008BF6FF00040704799
:100AF8004FF00000704700BF4A0011D212F50012F3
:100B080011D20DD56FF47873B3EB62520ED44FEA5D
:100B1800C12343F0004343EA505323FA02F07047DD
:100B28004FF00000704750EA013002D14FF0FF301B
:100B380070474FF0000070474FEA4102B2F1E043BE
:100B480024BFB3F5001CDCF1FE5C0DD901F0004CAC
:100B58004FEAC0024CEA5070B2F1004F40EB8300FC
:100B680008BF20F00100704711F0804F21D113F128
:100B78003872BCBF01F00040704741F480114FEA61
:100B88005252C2F11802C2F1200C10FA0CF320FAEA
:100B980002F018BF40F001004FEAC1234FEAD32307
:100BA80003FA0CFC40EA0C0023FA02F34FEA430371
:100BB800CCE77FEA625307D150EA01331EBF4FF0FA
:100BC800FE4040F44000704701F0004040F0FE4015
:100BD80040F40000704700BF53B94AB9002908BF64
:100BE80000281CBF4FF0FF314FF0FF3000F0AEB9C6
:100BF800ADF1080C6DE904CE00F03EF8DDF804E034
:100C0800DDE9022304B0704738B505460C460022DA
:100C1800002328462146FFF709FF28B92846214620
:100C2800BDE8384000F00AB8284604F1004100F059
:100C380005F8404261EB410138BD00BFD0B5002244
:100C48000B4B06460F46FFF77FFCFFF755FF0446A0
:100C5800FFF700FC0022074BFFF776FC02460B4625
:100C680030463946FFF7B8FAFFF746FF2146D0BDB0
:100C78000000F03D0000F0412DE9F047089E0D46C8
:100C880004468846002B4DD18A42944668D9B2FA68
:100C980082F252B101FA02F3C2F1200120FA01F105
:100CA8000CFA02FC41EA030894404FEA1C41B8FBE5
:100CB800F1F71FFA8CFE01FB178807FB0EF0230CD7
:100CC80043EA084398420AD91CEB030307F1FF35AE
:100CD80080F01E81984240F21B81023F63441B1A38
:100CE800B3FBF1F001FB103300FB0EFEA4B244EAA3
:100CF8000344A6450AD91CEB040400F1FF3380F035
:100D08000981A64540F20681644402380021A4EB1B
:100D18000E0440EA07401EB10023D440C6E9004350
:100D2800BDE8F0878B4208D9002E00F0EE80002144
:100D3800C6E900050846BDE8F087B3FA83F1002943
:100D48004AD1AB4202D3824200F2FC80841A65EB9E
:100D5800030301209846002EE2D0C6E90048DFE7E9
:100D680002B9FFDEB2FA82F2002A40F09180A1EBCC
:100D78000C0001214FEA1C471FFA8CFEB0FBF7F369
:100D880007FB1300250C45EA00450EFB03F0A842BB
:100D980008D91CEB050503F1FF3802D2A84200F27E
:100DA800CE8043462D1AB5FBF7F007FB10550EFB16
:100DB80000FEA4B244EA0544A64508D91CEB040485
:100DC80000F1FF3502D2A64500F2B6802846A4EB12
:100DD8000E0440EA03409EE7C1F120078B4022FA47
:100DE80007FC4CEA030C25FA07FA4FEA1C49BAFB40
:100DF800F9F820FA07F309FB18AA8D401FFA8CFEB0
:100E08001D4300FA01F308FB0EF02C0C44EA0A44D7
:100E1800A04202FA01F20BD91CEB040408F1FF3AD4
:100E280080F08880A04240F28580A8F102086444DE
:100E3800241AB4FBF9F009FB104400FB0EFEADB216
:100E480045EA0444A64508D91CEB040400F1FF3523
:100E58006CD2A6456AD90238644440EA0840A0FB2F
:100E68000295A4EB0E04AC42C846AE4656D353D006
:100E7800002E69D0B3EB080264EB0E0422FA01F3EA
:100E880004FA07F71F43CC40C6E90074002147E77E
:100E98000CFA02FCC2F1200125FA01F34FEA1C47C3
:100EA80020FA01F195400D43B3FBF7F107FB11332D
:100EB8001FFA8CFE280C40EA034001FB0EF3834224
:100EC80004FA02F408D91CEB000001F1FF382FD214
:100ED80083422DD902396044C01AB0FBF7F307FBEF
:100EE8001300ADB245EA004503FB0EF0A84208D94D
:100EF8001CEB050503F1FF3816D2A84214D9023BB2
:100F08006544281A43EA014138E73146304607E785
:100F18002F46E4E61846F9E64B45A9D2B9EB020894
:100F280065EB0C0E0138A3E74346EAE7284694E749
:100F38004146D1E7D0467BE76444023847E7023BA5
:100F480065442FE7084606E73146E9E6704700BFE3
:100F580080B500AF4FF4E131002000F005FB00BF81
:100F680080BD000080B584B000AF00F0AEF8F86036
:100F7800002000F097FBB86000F0A7F80246FB6875
:100F8800D31AB3F5FA7F05D900F09FF8F86000206E
:100F980000F0B8FA002000F003FB0346002B0AD04B
:100FA800002000F014FB0346FB71FB791A460A493E
:100FB800002000F03FFB002000F074FB0246BB68F5
:100FC8009342D9D0002000F06DFBB860BA6803499D
:100FD800002000F02FFBCFE710BC000820BC000861
:100FE80080B588B000AF00F07FFB00F075F807F11E
:100FF8000C0300221A605A609A60DA601A610023B2
:10100800BB602A4B1B6B294A43F480731363274B3D
:101018001B6B03F48073BB60BB6800237B60234BAE
:101028001B6B224A43F004031363204B1B6B03F032
:1010380004037B607B6800233B601C4B1B6B1B4AD3
:1010480043F040031363194B1B6B03F040033B60F1
:101058003B684FF48053FB6011233B6100237B61A5
:101068000223BB6107F10C031946114800F0DCFCB0
:1010780000224FF480510E4800F074FE4FF4967031
:1010880000F018F801224FF48051094800F06AFE78
:1010980000233B6107F10C031946054800F0C4FC26
:1010A80005F0F2FA00BF2037BD4680BD0038024087
:1010B8000000024080B582B000AF7860786800F028
:1010C80081FB00BF0837BD4680BD80B500AF00F08A
:1010D8006FFB0346184680BD80B592B000AF07F19C
:1010E800180330220021184606F016F93B1D00228D
:1010F8001A605A609A60DA601A610123BB610123A1
:10110800FB6102233B634FF480037B631423BB63BF
:10111800C023FB6302233B6405237B6407F11803A8
:10112800184601F0A5FF0346002B01D000F01AF87D
:101138000F237B600223BB600023FB604FF4A053A6
:101148003B614FF480537B613B1D0321184602F03D
:10115800DDF90346002B01D000F004F800BF483742
:10116800BD4680BD80B400AF72B600BFFEE7000088
:1011780080B483B000AF00237B600F4B5B6C0E4ADA
:1011880043F4804353640C4B5B6C03F480437B60F3
:101198007B6800233B60084B1B6C074A43F0805375
:1011A8001364054B1B6C03F080533B603B6800BF26
:1011B8000C37BD4680BC70470038024080B400AF91
:1011C800FEE780B400AFFEE780B400AFFEE780B46E
:1011D80000AFFEE780B400AFFEE780B400AF00BF09
:1011E800BD4680BC704780B400AF00BFBD4680BC20
:1011F800704780B400AF00BFBD4680BC704780B563
:1012080000AF00F0C3FA00BF80BD000080B500AF9A
:10121800024800F017FF00BF80BD00BF7412002015
:1012280080B400AF01231846BD4680BC704780B526
:1012380082B000AF7860396006F034F803461622B1
:101248001A604FF0FF3318460837BD4680BD80B599
:1012580082B000AF78604FF0FF317868FFF7E7FFA2
:10126800FEE780B586B000AFF860B9607A60002309
:101278007B610AE0AFF300800146BB685A1CBA6084
:10128800CAB21A707B6901337B617A697B689A42BA
:10129800F0DB7B6818461837BD4680BD80B586B040
:1012A80000AFF860B9607A6000237B6109E0BB6831
:1012B8005A1CBA601B781846AFF300807B6901336B
:1012C8007B617A697B689A42F1DB7B68184618373C
:1012D800BD4680BD80B483B000AF78604FF0FF3367
:1012E80018460C37BD4680BC704780B483B000AF49
:1012F800786039603B684FF400525A600023184602
:101308000C37BD4680BC704780B483B000AF7860AE
:10131800012318460C37BD4680BC704780B485B0A1
:1013280000AFF860B9607A60002318461437BD46EC
:1013380080BC704780B586B000AF7860144A154B02
:10134800D31A7B617B693B61134B1B68002B02D16D
:10135800114B124A1A60104B1A687B6813443A6999
:101368009A4207D205F09EFF03460C221A604FF0FE
:10137800FF3309E0084B1B68FB60074B1A687B6862
:101388001344054A1360FB6818461837BD4680BDEC
:1013980000000220000400009803002088160020A6
:1013A80080B400AF00BFBD4680BC7047DFF834D0C2
:1013B8000D480E490E4A002302E0D458C4500433A5
:1013C800C4188C42F9D30B4A0B4C002301E013607C
:1013D8000432A242FBD3FFF7E3FF05F069FF05F0F3
:1013E80055FF704700000220000000207C03002009
:1013F80044C100087C03002084160020FEE700009A
:1014080080B58AB000AF012387F8233007F10C03B9
:1014180000221A605A609A60DA601A610023BB6081
:10142800284B1B6B274A43F480731363254B1B6BB4
:1014380003F48073BB60BB6800237B60214B1B6B8C
:10144800204A43F0040313631E4B1B6B03F0040391
:101458007B607B6800233B601A4B1B6B194A43F087
:1014680040031363174B1B6B03F040033B603B685F
:1014780001233B6100237B610223BB6100237B6264
:1014880017E0114A7B6ADB0013449B88FB600E4A15
:101498007B6A52F8333007F10C021146184600F007
:1014A800C3FA7B6ADBB2184600F010F87B6A013396
:1014B8007B627B6A032BE4DD97F8233018462837D4
:1014C800BD4680BD003802400400002080B582B0CF
:1014D80000AF0346FB71FB79094A52F83300FB79E8
:1014E800074ADB0013449988FB79054ADB0013445B
:1014F800DB791A4600F036FC00BF0837BD4680BDD0
:101508000400002080B582B000AF0346FB71FB7970
:10151800074A52F83320FB790549DB000B449B88C6
:101528001946104600F036FC00BF0837BD4680BD9E
:101538000400002080B483B000AF0123BB710023F6
:10154800FB7106E0FB79074A0021D154FB7901338E
:10155800FB71FB79012BF5D9BB7918460C37BD46D1
:1015680080BC70479C03002080B485B000AF034660
:101578003960FB710023FB73FB79002B01D0012B31
:1015880006E0FB79054A0121D1540123FB7300BF12
:10159800FB7B18461437BD4680BC70479C0300206F
:1015A80080B584B000AF0346FB710023FB60FB7974
:1015B800002B02D0012B04D004E005F095F8F86068
:1015C80000E000BFFB6818461037BD4680BD80B5F7
:1015D80084B000AF0346FB710023FB73FB79002B3B
:1015E80002D0012B05D005E005F09CF80346FB73FB
:1015F80000E000BFFB7B18461037BD4680BD80B5B4
:1016080086B000AF0346B9607A60FB7300237B6144
:10161800FB7B002B02D0012B06D006E07968B86866
:1016280005F0D2F8786100E000BF7B6918461837EA
:10163800BD4680BD0EB480B5C7B000AF024607F501
:101648008C73A3F211131A7007F5947207F58C7353
:10165800A3F586731A6007F58C73A3F5867307F1F3
:1016680010001B68D7F824214FF4807107F094FC10
:10167800C7F81401D7F8142107F1100107F58C7386
:10168800A3F211131B781846FFF7B9FFC7F810012A
:10169800D7F81031184607F58E77BD46BDE880406B
:1016A80003B0704780B584B000AF0346FB710023D8
:1016B800FB60FB79002B02D0012B04D004E005F07D
:1016C800ABF8F86000E000BFFB6818461037BD466D
:1016D80080BD80B500AFFFF783FCFFF791FEFFF7F1
:1016E80029FF00BF80BD000080B500AF0E4B1B680E
:1016F8000D4A43F4007313600B4B1B680A4A43F40A
:1017080080631360084B1B68074A43F480731360B7
:10171800032000F047F90F2000F008F8FFF728FD34
:101728000023184680BD00BF003C024080B582B04F
:1017380000AF7860124B1A68124B1B7819464FF4A9
:101748007A73B3FBF1F3B2FBF3F3184600F05FF9D9
:101758000346002B01D001230EE07B680F2B0AD82B
:10176800002279684FF0FF3000F027F9064A7B68BD
:101778001360002300E0012318460837BD4680BDEA
:1017880000000020280000202400002080B400AFC2
:10179800054B1B781A46054B1B681344034A136014
:1017A80000BFBD4680BC704728000020A003002071
:1017B80080B400AF024B1B681846BD4680BC70471A
:1017C800A003002080B584B000AF7860FFF7F0FF79
:1017D800B8607B68FB60FB68B3F1FF3F05D00A4B3C
:1017E8001B781A46FB681344FB6000BFFFF7E0FF55
:1017F8000246BB68D31AFA689A42F7D800BF00BFFE
:101808001037BD4680BD00BF2800002080B485B0D9
:1018180000AF78607B6803F00703FB600C4BDB6864
:10182800BB60BA684FF6FF031340BB60FB681A023F
:10183800BB68134343F0BF6343F40033BB60044AFF
:10184800BB68D36000BF1437BD4680BC704700BF7B
:1018580000ED00E080B400AF044BDB681B0A03F026
:1018680007031846BD4680BC704700BF00ED00E086
:1018780080B483B000AF0346FB7197F90730002BA3
:101888000BDBFB7903F01F02064997F907305B0968
:10189800012000FA02F241F8232000BF0C37BD46B0
:1018A80080BC704700E100E080B483B000AF03461D
:1018B8003960FB7197F90730002B0ADB3B68DAB215
:1018C8000C4997F907301201D2B20B4483F8002370
:1018D8000AE03B68DAB20849FB7903F00F03043BDE
:1018E8001201D2B20B441A7600BF0C37BD4680BC39
:1018F800704700BF00E100E000ED00E080B489B06F
:1019080000AFF860B9607A60FB6803F00703FB6119
:10191800FB69C3F10703042B28BF0423BB61FB69E0
:101928000433062B02D9FB69033B00E000237B61EB
:101938004FF0FF32BB6902FA03F3DA43BB681A407F
:101948007B699A404FF0FF317B6901FA03F3D94371
:101958007B680B40134318462437BD4680BC70474C
:1019680080B582B000AF78607B68013BB3F1807FBF
:1019780001D301230FE00A4A7B68013B53600F2122
:101988004FF0FF30FFF790FF054B00229A60044BA1
:1019980007221A60002318460837BD4680BD00BFDD
:1019A80010E000E080B582B000AF78607868FFF79B
:1019B8002DFF00BF0837BD4680BD80B586B000AF9B
:1019C8000346B9607A60FB7300237B61FFF742FF2F
:1019D80078617A68B9687869FFF790FF024697F9E5
:1019E8000F3011461846FFF75FFF00BF1837BD4696
:1019F80080BD80B582B000AF0346FB7197F9073010
:101A08001846FFF735FF00BF0837BD4680BD80B5D3
:101A180082B000AF78607868FFF7A2FF03461846E7
:101A28000837BD4680BD000080B487B000AF78603D
:101A3800396000237B616FE13B681A6801217B698B
:101A480001FA03F31340FB60FB68002B00F061818F
:101A58003B685B6803F00303012B05D03B685B68B8
:101A680003F00303022B30D17B689B683B617B69E1
:101A78005B00032202FA03F3DB433A6913403B613C
:101A88003B68DA687B695B0002FA03F33A6913433F
:101A98003B617B683A699A607B685B683B610122BD
:101AA8007B6902FA03F3DB433A6913403B613B6805
:101AB8005B681B0903F001027B6902FA03F33A69C8
:101AC80013433B617B683A695A603B685B6803F083
:101AD8000303032B17D07B68DB683B617B695B00E2
:101AE800032202FA03F3DB433A6913403B613B6884
:101AF8009A687B695B0002FA03F33A6913433B6116
:101B08007B683A69DA603B685B6803F00303022B81
:101B180023D17B69DA087B68083253F822303B61AD
:101B28007B6903F007039B000F2202FA03F3DB43F0
:101B38003A6913403B613B681A697B6903F0070304
:101B48009B0002FA03F33A6913433B617B69DA08A5
:101B58007B680832396943F822107B681B683B614F
:101B68007B695B00032202FA03F3DB433A69134003
:101B78003B613B685B6803F003027B695B0002FA28
:101B880003F33A6913433B617B683A691A603B681F
:101B98005B6803F44033002B00F0BB800023BB607C
:101BA800644B5B6C634A43F480435364614B5B6CE6
:101BB80003F48043BB60BB685F4A7B699B080233C0
:101BC80052F823303B617B6903F003039B000F222B
:101BD80002FA03F3DB433A6913403B617B68574AD7
:101BE800934231D07B68564A93422BD07B68554A42
:101BF800934225D07B68544A93421FD07B68534A4E
:101C0800934219D07B68524A934213D07B68514A59
:101C180093420DD07B68504A934207D07B684F4A65
:101C2800934201D1082310E009230EE007230CE0BA
:101C380006230AE0052308E0042306E0032304E062
:101C4800022302E0012300E000237A6902F0030284
:101C5800920093401A463B6913433B6136497B69BE
:101C68009B0802333A6941F823203D4B1B683B61CE
:101C7800FB68DB433A6913403B613B685B6803F4EC
:101C88008033002B03D03A69FB6813433B61344A25
:101C98003B691360324B5B683B61FB68DB433A6925
:101CA80013403B613B685B6803F40033002B03D0AF
:101CB8003A69FB6813433B61294A3B695360284BE7
:101CC8009B683B61FB68DB433A6913403B613B68B7
:101CD8005B6803F48013002B03D03A69FB68134355
:101CE8003B611F4A3B6993601D4BDB683B61FB68A6
:101CF800DB433A6913403B613B685B6803F40013BC
:101D0800002B03D03A69FB6813433B61144A3B69D3
:101D1800D3607B6901337B613B681A687B6922FA6F
:101D280003F3002B7FF488AE00BF00BF1C37BD460D
:101D380080BC704700380240003801400000024073
:101D48000004024000080240000C0240001002405B
:101D58000014024000180240001C0240002002400B
:101D6800003C014080B483B000AF78600B467B80B4
:101D780013467B707B78002B03D07A887B689A6146
:101D880003E07B881A047B689A6100BF0C37BD4664
:101D980080BC704780B485B000AF78600B467B800C
:101DA8007B685B69FB607A88FB6813401A04FB68F0
:101DB800D9437B880B401A437B689A6100BF14376C
:101DC800BD4680BC7047F0B58FB00AAF78607B68BD
:101DD800002B01D101230FE17B681B68BB607B6886
:101DE80093F8BD33DBB2002B06D17B68002283F861
:101DF800BC23786804F04CFF7B68032283F8BD237A
:101E0800BB68DB6B03F48073002B02D17B68002274
:101E18001A617B681B68184601F03EFE7B681B68E8
:101E28003B607E686D4606F110040FCC0FC50FCCE1
:101E38000FC594E8030085E80300331D0ECB38680E
:101E480001F020FD0346002B05D07B68022283F8B1
:101E5800BD230123D0E07B681B680021184601F0F0
:101E68002BFE0023FB734AE0FA7B79681346DB00FC
:101E78009B1A9B000B443D3301221A70FA7B796848
:101E88001346DB009B1A9B000B443C33FA7B1A7009
:101E9800FA7BFB7B98B279681346DB009B1A9B00A0
:101EA8000B44423302461A80FA7B79681346DB00FA
:101EB8009B1A9B000B443F3300221A70FA7B796807
:101EC8001346DB009B1A9B000B44443300221A6024
:101ED800FA7B79681346DB009B1A9B000B44483356
:101EE80000221A60FA7B79681346DB009B1A9B0074
:101EF8000B44503300221A60FB7B0133FB73FA7BDF
:101F08007B685B689A42AFD30023FB7344E0FA7B9B
:101F180079681346DB009B1A9B000B4403F2FD1300
:101F280000221A70FA7B79681346DB009B1A9B0023
:101F38000B4403F5FE73FA7B1A70FA7B7968134633
:101F4800DB009B1A9B000B4403F2FF1300221A705C
:101F5800FA7B79681346DB009B1A9B000B4403F558
:101F6800017300221A60FA7B79681346DB009B1A1A
:101F78009B000B4403F5027300221A60FA7B796810
:101F88001346DB009B1A9B000B4403F504730022E5
:101F98001A60FB7B0133FB73FA7B7B685B689A42B0
:101FA800B5D37B681B683B607E686D4606F11004FC
:101FB8000FCC0FC50FCC0FC594E8030085E80300CC
:101FC800331D0ECB386801F0C3FD0346002B05D046
:101FD8007B68022283F8BD2301230DE07B68002281
:101FE80083F838207B68012283F8BD237B681B684F
:101FF800184602F034FE002318461437BD46F0BDDB
:1020080080B582B000AF78607B6893F8BC33012B51
:1020180001D1022312E07B68012283F8BC237B688C
:102028001B68184601F028FD7B681B68184602F0FB
:10203800F6FD7B68002283F8BC2300231846083786
:10204800BD4680BD90B58DB000AF78607B681B68D9
:102058003B623B6AFB617B681B68184602F0ADFE79
:102068000346002B40F08F837B681B68184602F0FC
:1020780016FE0346002B00F085837B681B68184614
:1020880002F00DFE034603F00203022B07D17B6822
:102098001B685A697B681B6802F002025A617B68F8
:1020A8001B68184602F0FBFD034603F01003102BD3
:1020B80061D17B681B689A697B681B6822F01002F3
:1020C8009A613B6A1B6ABB61BB6903F00F02134646
:1020D800DB009B1A9B0003F5FC737A6813440433F6
:1020E8007B61BB695B0C03F00F03022B24D1BA6937
:1020F80047F6F0731340002B35D07B69D968BB696C
:102108001B099BB2C3F30A039BB21A46386A02F052
:1021180038FC7B69DA68BB691B09C3F30A031A44F4
:102128007B69DA607B699A69BB691B09C3F30A0397
:102138001A447B699A6116E0BB695B0C03F00F03D4
:10214800062B10D17B6803F5717308221946386A8B
:1021580002F017FC7B699A69BB691B09C3F30A0380
:102168001A447B699A617B681B689A697B681B685B
:1021780042F010029A617B681B68184602F08FFDD6
:10218800034603F40023B3F5002F6ED100237B62CE
:102198007B681B68184602F094FDB86262E0BB6A6F
:1021A80003F00103002B57D07B681B687A6AD2B210
:1021B8001146184602F0B7FD38613B6903F0010388
:1021C800002B0CD07B6A5A01FB69134403F530637A
:1021D8001A4601239360796A786800F0A1FD3B698B
:1021E80003F00803002B0CD07B6A5A01FB691344E7
:1021F80003F530631A4608239360796A786800F01B
:102208009BFE3B6903F01003002B08D07B6A5A0140
:10221800FB69134403F530631A46102393603B6946
:1022280003F02003002B08D07B6A5A01FB69134492
:1022380003F530631A46202393603B6903F4005387
:10224800002B09D07B6A5A01FB69134403F53063FC
:102258001A464FF4005393607B6A01337B62BB6A72
:102268005B08BB62BB6A002B99D17B681B68184668
:1022780002F015FD034603F48023B3F5802F40F0E8
:10228800C0807B681B68184602F034FDB8620023E2
:102298007B62B2E0BB6A03F00103002B00F0A78069
:1022A8007B681B687A6AD2B21146184602F058FD5C
:1022B80038613B6903F00103002B57D07B6A03F0B8
:1022C8000F03012202FA03F3FB60FB6903F50063C5
:1022D8005A6BFB68DB43F96901F5006113404B63F6
:1022E8007B6A5A01FB69134403F510631A460123FC
:1022F80093607B681B69012B32D179687A6A13462F
:10230800DB009B1A9B000B444833196878687A6A8B
:102318001346DB009B1A9B00034444331B68194493
:1023280078687A6A1346DB009B1A9B00034448339B
:1023380019607B6A002B13D179687A6A1346DB002F
:102348009B1A9B000B4450331B68002B08D17B68F9
:1023580018687B6803F571731A46012102F05CFD69
:102368007B6ADBB21946786804F013FD3B6903F019
:102378000803002B08D07B6A5A01FB69134403F554
:1023880010631A46082393603B6903F01003002B7F
:1023980008D07B6A5A01FB69134403F510631A4697
:1023A800102393603B6903F04003002B08D07B6A3D
:1023B8005A01FB69134403F510631A4640239360DE
:1023C8003B6903F00203002B08D07B6A5A01FB69C2
:1023D800134403F510631A46022393603B6903F024
:1023E8008003002B03D0796A786800F00CFC7B6AC4
:1023F80001337B62BB6A5B08BB62BB6A002B7FF45C
:1024080049AF7B681B68184602F049FC034603F095
:102418000043B3F1004F14D1FB6903F500635B6817
:10242800FA6902F5006223F001035360786804F04A
:1024380027FD7B681B685A697B681B6802F00042AD
:102448005A617B681B68184602F029FC034603F4AE
:102458000063B3F5006F12D1FB6903F500639B6855
:1024680003F00103012B02D1786804F0E3FC7B68D8
:102478001B685A697B681B6802F400625A617B68B2
:102488001B68184602F00BFC034603F48053B3F5AF
:10249800805F40F0C780FB6903F500635B68FA69F9
:1024A80002F5006223F0010353607B681B6810216A
:1024B800184601F0B1FC0023FB6256E0FB6A5A01A2
:1024C800FB69134403F510631A464FF67F33936094
:1024D800FB6A5A01FB69134403F510631B68FA6A27
:1024E8005101FA690A4402F5106223F400131360DB
:1024F800FB6A5A01FB69134403F510631B68FA6A07
:102508005101FA690A4402F5106243F0006313604E
:10251800FB6A5A01FB69134403F530631A464FF608
:102528007F339360FB6A5A01FB69134403F53063F8
:102538001B68FA6A5101FA690A4402F5306223F409
:1025480000131360FB6A5A01FB69134403F53063F7
:102558001B68FA6A5101FA690A4402F5306243F0CD
:1025680000631360FB6A0133FB627B685B68FA6A8D
:102578009A42A3D3FB6903F50063DB69FA6902F5A4
:10258800006243F00113D3617B681B6B002B16D0EC
:10259800FB6903F50063D3F88430FA6902F5006239
:1025A80043F00B03C2F88430FB6903F500635B6CEE
:1025B800FA6902F5006243F00B03536415E0FB6906
:1025C80003F500635B69FA6902F5006243F400539E
:1025D80043F02B035361FB6903F500631B69FA6938
:1025E80002F5006243F00B031361FB6903F5006316
:1025F8001B68FA6902F5006223F4FE6313607B68C6
:1026080018687B681B69D9B27B6803F571731A4631
:1026180002F002FC7B681B685A697B681B6802F43D
:1026280080525A617B681B68184602F038FB0346E3
:1026380003F40053B3F5005F24D17B681B68184688
:1026480002F0C8FB7B681B68184601F041FC034692
:102658001A467B68DA607B681C6801F009F9014654
:102668007B68DB68DBB21A46204601F063F97868BC
:1026780004F0B7FB7B681B685A697B681B6802F427
:1026880000525A617B681B68184602F008FB034633
:1026980003F00803082B0AD1786804F094FB7B68E0
:1026A8001B685A697B681B6802F008025A617B68DC
:1026B8001B68184602F0F3FA034603F48013B3F5D7
:1026C800801F0FD100237B627B6ADBB219467868D2
:1026D80004F0F6FB7B681B685A697B681B6802F488
:1026E80080125A617B681B68184602F0D8FA0346C4
:1026F80003F40013B3F5001F0FD100237B627B6A3C
:10270800DBB21946786804F0C9FB7B681B685A6914
:102718007B681B6802F400125A617B681B681846C4
:1027280002F0BDFA034603F08043B3F1804F0AD1AB
:10273800786804F0D7FB7B681B685A697B681B685C
:1027480002F080425A617B681B68184602F0A7FABB
:10275800034603F00403042B15D17B681B685B68F0
:10276800BB61BB6903F00403002B02D0786804F056
:10277800C7FB7B681B6859687B681B68BA690A4392
:102788005A6000E000BF3437BD4690BD80B582B0C6
:1027980000AF78600B46FB707B6893F8BC33012B65
:1027A80001D1022313E07B68012283F8BC237B68F4
:1027B800FA7883F838207B681B68FA78114618463F
:1027C80002F008FA7B68002283F8BC23002318462D
:1027D8000837BD4680BD80B584B000AF7860084634
:1027E80011461A460346FB700B463B801346BB70E6
:1027F8000023FB7297F90330002B0FDAFB7803F004
:102808000F021346DB009B1A9B0038337A68134487
:102818000433FB60FB6801225A700FE0FB7803F079
:102828000F021346DB009B1A9B0003F5FC737A68C2
:1028380013440433FB60FB6800225A70FB7803F0F2
:102848000F03DAB2FB681A703A88FB689A60FB6873
:10285800BA78DA70FB685B78002B04D0FB681B78C9
:102868009AB2FB68DA80BB78022B02D1FB6800229F
:102878001A717B6893F8BC33012B01D102230EE057
:102888007B68012283F8BC237B681B68F9681846BB
:1028980001F042FB7B68002283F8BC23FB7A1846D0
:1028A8001037BD4680BD80B584B000AF78600B4658
:1028B800FB7097F90330002B0FDAFB7803F00F0257
:1028C8001346DB009B1A9B0038337A6813440433A1
:1028D800FB60FB6801225A700FE0FB7803F00F02DF
:1028E8001346DB009B1A9B0003F5FC737A681344BC
:1028F8000433FB60FB6800225A70FB7803F00F0377
:10290800DAB2FB681A707B6893F8BC33012B01D1EB
:1029180002230EE07B68012283F8BC237B681B68D6
:10292800F968184601F07EFB7B68002283F8BC2317
:10293800002318461037BD4680BD80B586B000AF6D
:10294800F8607A603B600B46FB72FB7A03F00F027B
:102958001346DB009B1A9B0003F5FC73FA681344CB
:1029680004337B617B697A68DA607B693A685A610B
:102978007B6900229A617B6900225A70FB7A03F016
:102988000F03DAB27B691A70FB681B69012B02D14D
:102998007A687B691A61FB7A03F00F03002B09D16F
:1029A800FB681868FB681B69DBB21A46796901F095
:1029B80059FE08E0FB681868FB681B69DBB21A4619
:1029C800796901F00BFC002318461837BD4680BD15
:1029D80080B483B000AF78600B46FB70FB7803F0DF
:1029E8000F0279681346DB009B1A9B000B4403F522
:1029F80005731B6818460C37BD4680BC704780B508
:102A080086B000AFF8607A603B600B46FB72FB7AD9
:102A180003F00F021346DB009B1A9B003833FA6859
:102A2800134404337B617B697A68DA607B693A68AE
:102A38005A617B6900229A617B6901225A70FB7A8C
:102A480003F00F03DAB27B691A70FB681B69012B6C
:102A580002D17A687B691A61FB7A03F00F03002BB5
:102A680009D1FB681868FB681B69DBB21A467969EB
:102A780001F0F8FD08E0FB681868FB681B69DBB229
:102A88001A46796901F0AAFB002318461837BD4693
:102A980080BD80B584B000AF78600B46FB70FB78D2
:102AA80003F00F027B685B689A4201D9012350E06A
:102AB80097F90330002B0FDAFB7803F00F02134667
:102AC800DB009B1A9B0038337A6813440433FB609D
:102AD800FB6801225A700DE0FA781346DB009B1A56
:102AE8009B0003F5FC737A6813440433FB60FB68AE
:102AF80000225A70FB6801229A70FB7803F00F03DA
:102B0800DAB2FB681A707B6893F8BC33012B01D1E9
:102B180002231EE07B68012283F8BC237B681B68C4
:102B2800F968184601F084FFFB7803F00F03002BC7
:102B38000AD17B6818687B681B69D9B27B6803F582
:102B480071731A4602F068F97B68002283F8BC2387
:102B5800002318461037BD4680BD80B584B000AF4D
:102B680078600B46FB70FB7803F00F027B685B68AC
:102B78009A4201D9012342E097F90330002B0FDA7A
:102B8800FB7803F00F021346DB009B1A9B003833D7
:102B98007A6813440433FB60FB6801225A700FE023
:102BA800FB7803F00F021346DB009B1A9B0003F52A
:102BB800FC737A6813440433FB60FB6800225A7084
:102BC800FB6800229A70FB7803F00F03DAB2FB6807
:102BD8001A707B6893F8BC33012B01D102230EE0F5
:102BE8007B68012283F8BC237B681B68F968184658
:102BF80001F08BFF7B68002283F8BC230023184672
:102C08001037BD4680BD80B58AB002AF78603960A4
:102C18007B681B687B617B693B613A681346DB0014
:102C28009B1A9B0038337A6813440433FB60FB68B3
:102C38009A69FB685B699A4201D901236CE0FB68D9
:102C48005A69FB689B69D31AFB61FB689B68FA6940
:102C58009A4202D9FB689B68FB61FB6903339B08B6
:102C6800BB612BE0FB685A69FB689B69D31AFB615F
:102C7800FB689B68FA699A4202D9FB689B68FB610A
:102C8800FB6903339B08BB61FB68D9683B68DAB210
:102C9800FB6998B27B681B69DBB2009303467869CD
:102CA80001F032FEFB68DA68FB691A44FB68DA60F7
:102CB800FB689A69FB691A44FB689A613B685A0188
:102CC8003B69134403F510639B699BB2BA699A4246
:102CD80009D8FB689A69FB685B699A4203D2FB686A
:102CE8005B69002BBED1FB685A69FB689B699A42F5
:102CF80011D83B6803F00F03012202FA03F3BB600B
:102D08003B6903F500635A6BBB68DB43396901F51E
:102D1800006113404B63002318462037BD4680BD31
:102D280080B586B000AF786039607B681B687B61CE
:102D38007B693B617B693C3304331B68FB603B6800
:102D48005A013B69134403F530639B68BB607B6899
:102D58001B69012B40F0A080BB6803F00803002B1F
:102D680015D0FB68724A934240F2DD80BB6803F4D9
:102D78000043002B00F0D7803B685A013B6913449D
:102D880003F530631A464FF400439360CBE0BB6809
:102D980003F02003002B09D03B685A013B69134418
:102DA80003F530631A4620239360BCE0BB6803F048
:102DB8002803002B40F0B780FB685D4A93420FD987
:102DC800BB6803F40043002B0AD03B685A013B69F7
:102DD800134403F530631A464FF400439360A2E0AE
:102DE80079683A681346DB009B1A9B000B4403F58D
:102DF80001731A683B6859013B690B4403F530635A
:102E08001B69C3F31203D11A78683A681346DB00CA
:102E18009B1A9B00034403F50573196079683A68A7
:102E28001346DB009B1A9B000B4403F502731968D9
:102E380078683A681346DB009B1A9B00034403F545
:102E480001731B68194478683A681346DB009B1ABB
:102E58009B00034403F5027319603B68002B14D1EF
:102E680079683A681346DB009B1A9B000B4403F50C
:102E780004731B68002B08D17B6818687B6803F50E
:102E880071731A46012101F0C7FF3B68DBB219468E
:102E9800786803F063FF46E0FB68264A934224D132
:102EA800BB6803F40043002B0AD03B685A013B6916
:102EB800134403F530631A464FF40043936032E03D
:102EC800BB6803F02003002B08D03B685A013B691C
:102ED800134403F530631A46202393603B68DBB242
:102EE8001946786803F03AFF1DE03B68002B14D1BF
:102EF80079683A681346DB009B1A9B000B4403F57C
:102F080004731B68002B08D17B6818687B6803F57D
:102F180071731A46002101F07FFF3B68DBB2194646
:102F2800786803F01BFF002318461837BD4680BD9C
:102F38000A30544F0A31544F80B586B000AF7860DC
:102F480039607B681B687B617B693B617B693C33CB
:102F580004331B68FB603B685A013B69134403F563
:102F680030639B68BB60FB68154A93420ED9BB6807
:102F780003F40043002B09D03B685A013B69134412
:102F880003F530631A464FF400439360786803F002
:102F9800D3FEFB680A4A93420CD97B681B69012B54
:102FA80008D17B6818687B6803F571731A4601219C
:102FB80001F032FF002318461837BD4680BD00BF18
:102FC8000A30544F80B485B000AF78600B46FB7070
:102FD80013463B807B681B685B6ABB60FB78002BF1
:102FE80007D13B8819047B681B68BA680A439A6250
:102FF80028E07B681B689B6A1B0CBA681344BB609B
:103008000023FB730DE07B681A68FB7B40339B0051
:1030180013445B681B0CBA681344BB60FB7B013329
:10302800FB73FA7BFB78013B9A42ECD33B8818048C
:103038007B681968FB78013BBA68024340339B0000
:103048000B445A60002318461437BD4680BC7047AD
:1030580080B483B000AF78600B467B807B681B68C8
:103068007A885A62002318460C37BD4680BC7047E0
:1030780080B58AB000AF78607B68002B01D101234E
:1030880036E27B681B6803F00103002B50D09E4B8F
:103098009B6803F00C03042B0CD09B4B9B6803F03C
:1030A8000C03082B12D1984B5B6803F48003B3F52B
:1030B800800F0BD1944B1B6803F40033002B36D0E0
:1030C8007B685B68002B32D1012311E27B685A6868
:1030D8008E4BD2B21A707B685B68002B13D0FEF758
:1030E80067FB386208E0FEF763FB02463B6AD31AC7
:1030F800642B01D90323FBE1834B1B6803F40033E2
:10310800002BF0D014E0FEF753FB386208E0FEF71E
:103118004FFB02463B6AD31A642B01D90323E7E12C
:10312800794B1B6803F40033002BF0D100E000BF9B
:103138007B681B6803F00203002B77D0724B9B68F7
:1031480003F00C03002B0BD06F4B9B6803F00C03B0
:10315800082B26D16C4B5B6803F48003002B20D12D
:10316800694B1B6803F00203002B05D07B68DB6802
:10317800012B01D00123BBE1634B1B6823F0F8024C
:103188007B681B69F821B961B96991FAA1F1796184
:103198007969B1FA81F1C9B28B405B4913430B607D
:1031A80044E07B68DB68002B2AD0594B01221A6067
:1031B800FEF7FEFA386208E0FEF7FAFA02463B6AC2
:1031C800D31A022B01D9032392E14F4B1B6803F05A
:1031D8000203002BF0D04C4B1B6823F0F8027B68ED
:1031E8001B69F8213961396991FAA1F1F960F96827
:1031F800B1FA81F1C9B28B40434913430B6015E022
:10320800434B00221A60FEF7D3FA386208E0FEF753
:10321800CFFA02463B6AD31A022B01D9032367E18E
:10322800394B1B6803F00203002BF0D17B681B6845
:1032380003F00803002B30D07B685B69002B16D0A5
:10324800344B01221A60FEF7B3FA386208E0FEF741
:10325800AFFA02463B6AD31A022B01D9032347E18E
:10326800294B5B6F03F00203002BF0D015E0294BCC
:1032780000221A60FEF79CFA386208E0FEF798FA16
:1032880002463B6AD31A022B01D9032330E11E4BB5
:103298005B6F03F00203002BF0D17B681B6803F01F
:1032A8000403002B00F08780002387F82730164B93
:1032B8001B6C03F08053002B10D10023BB60124B12
:1032C8001B6C114A43F0805313640F4B1B6C03F0C3
:1032D8008053BB60BB68012387F827300E4B1B68FF
:1032E8000D4A43F4807313600B4B1B6803F480731F
:1032F800002B22D1084B1B68074A43F480731360E4
:10330800FEF756FA386212E00038024002380240EE
:1033180000004742800E474200700040FEF748FA1E
:1033280002463B6AD31A022B01D90323E0E0724B11
:103338001B6803F48073002BF0D07B689A686F4B8E
:10334800D2B21A707B689B68002B15D0FEF730FA52
:1033580038620AE0FEF72CFA02463B6AD31A41F2B9
:103368008832934201D90323C2E0654B1B6F03F0F7
:103378000203002BEED014E0FEF71AFA38620AE0D6
:10338800FEF716FA02463B6AD31A41F28832934294
:1033980001D90323ACE05A4B1B6F03F00203002B47
:1033A800EED197F82730012B05D1554B1B6C544AA9
:1033B80023F0805313647B689B69002B00F097808F
:1033C8004F4B9B6803F00C03082B61D07B689B690B
:1033D800022B46D14B4B00221A60FEF7E9F93862FE
:1033E80008E0FEF7E5F902463B6AD31A642B01D9D7
:1033F80003237DE0424B1B6803F00073002BF0D1E0
:103408003F4B5A68404B13407A68D1697A68126A10
:1034180011437A68526A920111437A68D26A120695
:1034280011437A68926A5208013A12040A433449ED
:1034380013434B60334B01221A60FEF7B9F9386227
:1034480008E0FEF7B5F902463B6AD31A642B01D9A6
:1034580003234DE02A4B1B6803F00073002BF0D0C8
:1034680045E0284B00221A60FEF7A2F9386208E00E
:10347800FEF79EF902463B6AD31A642B01D903234F
:1034880036E01F4B1B6803F00073002BF0D12EE0D1
:103498007B689B69012B01D1012329E0184B5B68EC
:1034A800FB61FB6903F480027B68DB699A421CD1EB
:1034B800FB6903F03F027B681B6A9A4215D1FB69DE
:1034C8009B09C3F308027B685B6A9A420DD1FB69CA
:1034D80003F440327B689B6A9A4206D1FB6903F089
:1034E80070627B68DB6A9A4201D0012300E0002306
:1034F80018462837BD4680BD00700040703802402D
:1035080000380240600047420080BCF080B586B0B9
:1035180000AF786039607B68002B01D10123D2E0CD
:103528006B4B1B6803F00F033A689A420CD9684B3F
:103538003A68D2B21A70664B1B6803F00F033A68F8
:103548009A4201D00123BEE07B681B6803F00203A6
:10355800002B20D07B681B6803F00403002B05D0E8
:103568005C4B9B685B4A43F4E05393607B681B6841
:1035780003F00803002B05D0564B9B68554A43F4CB
:1035880060439360534B9B6823F0F0027B689B6811
:10359800504913438B607B681B6803F00103002BC1
:1035A80040D07B685B68012B07D14A4B1B6803F44A
:1035B8000033002B15D1012385E07B685B68022B63
:1035C80007D1444B1B6803F00073002B09D101237A
:1035D80079E0404B1B6803F00203002B01D1012363
:1035E80071E03C4B9B6823F003027B685B683949B8
:1035F80013438B60FEF7DCF878610AE0FEF7D8F831
:1036080002467B69D31A41F28832934201D90323D7
:1036180059E0304B9B6803F00C027B685B689B00A9
:103628009A42EBD12A4B1B6803F00F033A689A427F
:103638000CD2274B3A68D2B21A70254B1B6803F09C
:103648000F033A689A4201D001233CE07B681B686B
:1036580003F00403002B08D01E4B9B6823F4E052B0
:103668007B68DB681B4913438B607B681B6803F02E
:103678000803002B09D0174B9B6823F460427B6832
:103688001B69DB00134913438B6000F02BF80146DC
:10369800104B9B6803F0F003F0223A613A6992FA02
:1036A800A2F2FA60FA68B2FA82F2D2B2D3400A4AB7
:1036B800D35C21FA03F3094A1360094B1B681846C7
:1036C800FEF734F8002318461837BD4680BD00BF02
:1036D800003C0240003802407CBC0008000000208A
:1036E800240000202DE9B04F90B000AF00237B6389
:1036F8000023FB6300233B630023BB63594B9B6898
:1037080003F00C03082B0DD0082B00F2A280002B2D
:1037180002D0042B03D09CE0534BBB639CE0534B7B
:10372800BB6399E04F4B5B6803F03F037B634D4BF2
:103738005B6803F48003002B27D04A4B5B689B0926
:1037480000223B627A623B6AC3F308000021474BC0
:1037580003FB01F2002300FB03F31344434AA0FBDD
:103768000221F962BA62FA6A1344FB627B6B002297
:10377800BB61FA61D7E90623D7E90A01FDF72CFAFC
:1037880002460B461346FB6355E0364B5B689B09C4
:1037980000223B617A613B69C3F3080A4FF0000BD2
:1037A80052465B464FF000004FF00001590141EAD4
:1037B800D261500102460B46B2EB0A0863EB0B09D3
:1037C8004FF000024FF000034FEA891343EA986371
:1037D8004FEA8812B2EB080463EB09054FF00002C8
:1037E8004FF00003EB0043EA5473E20014461D4611
:1037F80014EB0A033B6045EB0B037B604FF00002C0
:103808004FF00003D7E9004529468B022046294698
:10381800044643EA945301468A02104619467B6BD4
:103828000022BB60FA60D7E90223FDF7D5F902460A
:103838000B461346FB630B4B5B681B0C03F003033F
:1038480001335B003B63FA6B3B6BB2FBF3F3BB6387
:1038580002E0054BBB6300BFBB6B18464037BD4653
:10386800BDE8B08F003802400024F40040787D01A4
:1038780080B400AF024B1B681846BD4680BC704739
:103888000000002084B080B584B000AF786007F1F4
:103898001C0080E80E003B6B012B22D17B689B6BE0
:1038A80023F480327B689A637B68DB6823F48403A3
:1038B80023F040037A68D3607B68DB6823F4401206
:1038C8007B68DA60FB6C012B05D17B68DB6843F40D
:1038D80080127B68DA60786801F0FAFA0346FB73B5
:1038E80010E07B68DB6843F040027B68DA60786848
:1038F80001F0EEFA0346FB737B689B6B43F480325E
:103908007B689A63BB6A012B0BD17B689B6843F089
:1039180006027B689A607B689B6843F020027B689C
:103928009A60FB7B18461037BD46BDE8804004B05E
:103938007047000080B487B000AFF860B9601346E4
:10394800FB71FB79022B65D1BB68414A934206D9CA
:10395800BB68404A934202D20F237B6162E0BB6896
:103968003C4A934206D3BB683B4A934202D20E2399
:103978007B6157E0BB68384A934206D3BB68374A35
:10398800934202D20D237B614CE0BB68334A9342D9
:1039980006D3BB68324A934202D80C237B6141E0CC
:1039A800BB682F4A934206D9BB682E4A934202D875
:1039B8000B237B6136E0BB682A4A934206D9BB6871
:1039C800294A934202D80A237B612BE0BB68264A26
:1039D800934206D9BB68254A934202D209237B61E8
:1039E80020E0BB68214A934206D3BB68204A934231
:1039F80002D808237B6115E0BB681D4A934206D9AB
:103A0800BB681C4A934202D207237B610AE0062363
:103A18007B6107E0FB79002B02D109237B6101E080
:103A280009237B61FB68DB6823F47052FB68DA606A
:103A3800FB68DA687B699B0203F470531A43FB68DE
:103A4800DA60002318461C37BD4680BC704700BFAB
:103A5800BFACD800C0E1E4000024F4008073060184
:103A68009F491A01FF2C31013FA44C0100366E0119
:103A78001FABA6010048E80180B483B000AF7860AE
:103A88007B689B6843F001027B689A6000231846B4
:103A98000C37BD4680BC704780B483B000AF7860F7
:103AA8007B689B6823F001027B689A6000231846B4
:103AB8000C37BD4680BC704780B584B000AF7860D5
:103AC8000B46FB700023FB607B68DB6823F0C04279
:103AD8007B68DA60FB78012B15D17B68DB6843F0E3
:103AE80000527B68DA600120FDF76CFEFB68013349
:103AF800FB60786801F061F90346012B1ED0FB6872
:103B0800312BF0D91AE0FB78002B15D17B68DB68E4
:103B180043F080427B68DA600120FDF753FEFB68C2
:103B28000133FB60786801F048F90346002B05D0A3
:103B3800FB68312BF0D901E0012305E0FB68322B4B
:103B480001D1012300E0002318461037BD4680BD8F
:103B580084B080B586B000AF786007F1240080E8B3
:103B68000E000023FB757B68FB6000233B6109E0C6
:103B78007A683B6940339B00134400225A603B69D2
:103B880001333B613B690E2BF2D9FB6C002B1CD136
:103B9800FB6803F500635B68FA6802F5006243F0AE
:103BA800020353607B689B6B43F400127B689A6343
:103BB8007B689B6B23F400227B689A637B689B6B12
:103BC80023F480227B689A630BE07B689B6B23F469
:103BD80000127B689A637B689B6B43F400227B68C6
:103BE8009A63FB6803F560631A4600231360FB6859
:103BF80003F500631946FB6803F500631A460B6872
:103C08001360BB6B012B0CD1FB6A002B04D1002184
:103C1800786800F045F908E00121786800F040F97B
:103C280003E00321786800F03BF91021786800F080
:103C3800F3F80346002B01D00123FB75786800F0E8
:103C48000FF90346002B01D00123FB75FB6803F530
:103C580000631A4600231361FB6803F500631A46E4
:103C680000235361FB6803F500631A460023D36100
:103C780000233B6143E03B695A01FB68134403F5A9
:103C880010631B6803F00043B3F1004F18D13B6980
:103C9800002B0AD13B695A01FB68134403F51063F2
:103CA8001A464FF00063136013E03B695A01FB6842
:103CB800134403F510631A464FF09043136008E06D
:103CC8003B695A01FB68134403F510631A46002345
:103CD80013603B695A01FB68134403F510631A46E5
:103CE800002313613B695A01FB68134403F5106311
:103CF8001A464FF67F3393603B6901333B617B6A19
:103D08003A699A42B7D300233B6143E03B695A01C1
:103D1800FB68134403F530631B6803F00043B3F1F9
:103D2800004F18D13B69002B0AD13B695A01FB6847
:103D3800134403F530631A464FF00063136013E031
:103D48003B695A01FB68134403F530631A464FF088
:103D58009043136008E03B695A01FB68134403F57C
:103D680030631A46002313603B695A01FB68134409
:103D780003F530631A46002313613B695A01FB6857
:103D8800134403F530631A464FF67F3393603B695B
:103D980001333B617B6A3A699A42B7D3FB6803F502
:103DA80000631B69FA6802F5006223F480731361EB
:103DB8007B6800229A617B686FF080425A613B6B96
:103DC800002B05D17B689B6943F010027B689A61E0
:103DD8007B689A690F4B13437A689361FB6B002BDE
:103DE80005D07B689B6943F008027B689A61FB6C8D
:103DF800012B07D17B689B6943F0804343F00403A0
:103E08007A689361FB7D18461837BD46BDE8804047
:103E180004B0704700383C8080B485B000AF78604B
:103E280039600023FB603B689B0143F020027B68FC
:103E38001A61FB680133FB60FB68084A934201D9A9
:103E4800032306E07B681B6903F02003202BF0D0D6
:103E5800002318461437BD4680BC7047400D030048
:103E680080B485B000AF78600023FB607B681022C7
:103E78001A61FB680133FB60FB68084A934201D969
:103E8800032306E07B681B6903F01003102BF0D0B6
:103E9800002318461437BD4680BC7047400D030008
:103EA80080B485B000AF78600B46FB707B68FB6020
:103EB800FB6803F500631A68FB78F96801F500618F
:103EC80013430B60002318461437BD4680BC704767
:103ED80080B487B000AF78607B683B613B6903F5CD
:103EE80000639B6803F00603FB60FB68002B02D1AC
:103EF8000023FB750AE0FB68022B02D0FB68062B47
:103F080002D10223FB7501E00F23FB75FB7D1846E8
:103F18001C37BD4680BC704780B485B000AF786060
:103F280039607B68FB603B681B78BB603B685B78EB
:103F3800012B3AD1FB6803F50063DA693B681B780B
:103F480003F00F03012101FA03F39BB2F96801F5AD
:103F580000611343CB61BB685A01FB68134403F546
:103F680010631B6803F40043002B55D1BB685A014A
:103F7800FB68134403F510631A683B689B68C3F336
:103F88000A013B68DB789B041943BB689B050B431C
:103F98001343BA685101FA680A4402F5106243F003
:103FA800805343F40043136036E0FB6803F5006375
:103FB800DA693B681B7803F00F03012101FA03F368
:103FC8001B04F96801F500611343CB61BB685A0112
:103FD800FB68134403F530631B6803F40043002BAC
:103FE8001AD1BB685A01FB68134403F530631A6899
:103FF8003B689B68C3F30A013B68DB789B040B436F
:104008001343BA685101FA680A4402F5306243F072
:10401800805343F400431360002318461437BD4609
:1040280080BC704780B485B000AF786039607B6829
:10403800FB603B681B78BB603B685B78012B61D1F8
:10404800BB685A01FB68134403F510631B6803F04F
:104058000043B3F1004F1FD1BB685A01FB681344FA
:1040680003F510631B68BA685101FA680A4402F53F
:10407800106243F000631360BB685A01FB68134485
:1040880003F510631B68BA685101FA680A4402F51F
:10409800106243F080431360FB6803F50063DA6B3A
:1040A8003B681B7803F00F03012101FA03F39BB26D
:1040B800DB43F96801F500611340CB63FB6803F546
:1040C8000063DA693B681B7803F00F03012101FAEA
:1040D80003F39BB2DB43F96801F500611340CB6140
:1040E800BB685A01FB68134403F510631A68BB6880
:1040F8005901FB680B4403F510631946354B13400F
:104108000B6060E0BB685A01FB68134403F5306339
:104118001B6803F00043B3F1004F1FD1BB685A017D
:10412800FB68134403F530631B68BA685101FA68E9
:104138000A4402F5306243F000631360BB685A0119
:10414800FB68134403F530631B68BA685101FA68C9
:104158000A4402F5306243F080431360FB6803F5BC
:104168000063DA6B3B681B7803F00F03012101FA47
:1041780003F31B04DB43F96801F500611340CB63CB
:10418800FB6803F50063DA693B681B7803F00F03EB
:10419800012101FA03F31B04DB43F96801F500610F
:1041A8001340CB61BB685A01FB68134403F53063C5
:1041B8001A68BB685901FB680B4403F5306319465C
:1041C800054B13400B60002318461437BD4680BCCE
:1041D800704700BF007833EC0078F3EF80B58AB001
:1041E80002AFF860B9601346FB71FB68FB61BB68FE
:1041F8001B78BB61BB685B78012B40F05C81BB68B6
:104208005B69002B32D1BB695A01FB69134403F582
:1042180010631B69BA695101FA690A4402F5106210
:1042280023F0FF5323F4C0131361BB695A01FB69E0
:10423800134403F510631B69BA695101FA690A440A
:1042480002F5106243F400231361BB695A01FB694C
:10425800134403F510631B69BA695101FA690A44EA
:1042680002F51062DB0CDB04136174E0BB695A01D0
:10427800FB69134403F510631B69BA695101FA69B4
:104288000A4402F51062DB0CDB041361BB695A01B6
:10429800FB69134403F510631B69BA695101FA6994
:1042A8000A4402F5106223F0FF5323F4C01313618C
:1042B800BB695A01FB69134403F510631A69BB68AB
:1042C8005969BB689B680B44591EBB689B68B1FB66
:1042D800F3F3D9049D4B0B40B9694801F9690144CE
:1042E80001F5106113430B61BB695A01FB69134463
:1042F80003F510631A69BB685B69C3F31203B969F4
:104308004801F969014401F5106113430B61BB6869
:10431800DB78012B1FD1BB695A01FB69134403F5F4
:1043280010631B69BA695101FA690A4402F51062FF
:1043380023F0C0431361BB695A01FB69134403F5B9
:1043480010631B69BA695101FA690A4402F51062DF
:1043580043F000531361FB79012B4BD1BB681B69F8
:10436800002B09D0BB695A01FB69134403F510639C
:104378001A46BB681B695361BB68DB78012B28D1DF
:10438800FB6903F500639B6803F48073002B10D16D
:10439800BB695A01FB69134403F510631B68BA69CA
:1043A8005101FA690A4402F5106243F000531360A0
:1043B8000FE0BB695A01FB69134403F510631B68DE
:1043C800BA695101FA690A4402F5106243F0805350
:1043D8001360BB695A01FB69134403F510631B683A
:1043E800BA695101FA690A4402F5106243F00443BC
:1043F80013602FE1BB695A01FB69134403F510638D
:104408001B68BA695101FA690A4402F5106243F05F
:1044180004431360BB68DB78012B15D0BB685B696C
:10442800002B00F01781FB6903F500635A6BBB682A
:104438001B7803F00F03012101FA03F3F96901F571
:10444800006113434B6305E1FB6903F500639B6857
:1044580003F48073002B10D1BB695A01FB69134424
:1044680003F510631B68BA695101FA690A4402F539
:10447800106243F0005313600FE0BB695A01FB69F7
:10448800134403F510631B68BA695101FA690A44B9
:1044980002F5106243F080531360BB68D968BB68AB
:1044A8001A78BB685B6998B2FB7900930346F86891
:1044B80000F02AFACEE0BB695A01FB69134403F500
:1044C80030631B69BA695101FA690A4402F530621E
:1044D800DB0CDB041361BB695A01FB69134403F568
:1044E80030631B69BA695101FA690A4402F53062FE
:1044F80023F0FF5323F4C0131361BB685B69002BDF
:1045080026D1BB695A01FB69134403F530631A6964
:10451800BB689B68C3F31203B9694801F969014490
:1045280001F5306113430B61BB695A01FB69134400
:1045380003F530631B69BA695101FA690A4402F547
:10454800306243F40023136136E000BF0000F81F17
:10455800BB685A69BB689B6813445A1EBB689B6852
:10456800B2FBF3F3FB82BB695A01FB69134403F501
:1045780030631A69FB8AD904394B0B40B969480181
:10458800F969014401F5306113430B61BB695A01B4
:10459800FB69134403F530631A69BB689B68F98AA1
:1045A80001FB03F3C3F31203B9694801F969014434
:1045B80001F5306113430B61FB79012B0DD1BB6809
:1045C800DB68002B09D0BB68D968BB695A01FB6955
:1045D800134403F530630A465A61BB68DB78012B44
:1045E80028D1FB6903F500639B6803F48073002BF3
:1045F80010D1BB695A01FB69134403F530631B688A
:10460800BA695101FA690A4402F5306243F000536D
:1046180013600FE0BB695A01FB69134403F530636B
:104628001B68BA695101FA690A4402F5306243F01D
:1046380080531360BB695A01FB69134403F5306367
:104648001B68BA695101FA690A4402F5306243F0FD
:1046580004431360002318462037BD4680BD00BFC1
:104668000000F81F80B487B000AFF860B960134647
:10467800FB71FB687B61BB681B783B61BB685B783F
:10468800012B40F0CD80BB685B69002B32D13B69C0
:104698005A017B69134403F510631B693A69510198
:1046A8007A690A4402F5106223F0FF5323F4C01319
:1046B80013613B695A017B69134403F510631B6955
:1046C8003A6951017A690A4402F5106243F40023F9
:1046D80013613B695A017B69134403F510631B6935
:1046E8003A6951017A690A4402F51062DB0CDB046D
:1046F80013614EE03B695A017B69134403F510636B
:104708001B693A6951017A690A4402F51062DB0CA7
:10471800DB0413613B695A017B69134403F5106399
:104728001B693A6951017A690A4402F5106223F05B
:10473800FF5323F4C0131361BB685A69BB689B68B5
:104748009A4203D9BB689A68BB685A613B695A01A7
:104758007B69134403F510631B693A6951017A694F
:104768000A4402F5106243F4002313613B695A01BD
:104778007B69134403F510631A69BB685B69C3F36B
:104788001203396948017969014401F5106113433D
:104798000B61FB79012B1ED1BB681B69002B09D06B
:1047A8003B695A017B69134403F510631A46BB68D9
:1047B8001B6953613B695A017B69134403F5106314
:1047C8001B683A6951017A690A4402F5106243F09C
:1047D8000443136092E03B695A017B69134403F573
:1047E80010631B683A6951017A690A4402F510623C
:1047F80043F004431360BB685B69002B7ED07B6980
:1048080003F500635A6BBB681B7803F00F030121A3
:1048180001FA03F3796901F5006113434B636DE015
:104828003B695A017B69134403F530631B693A6994
:1048380051017A690A4402F53062DB0CDB0413612A
:104848003B695A017B69134403F530631B693A6974
:1048580051017A690A4402F5306223F0FF5323F4C8
:10486800C0131361BB685B69002B03D0BB689A68EF
:10487800BB685A613B695A017B69134403F530638D
:104888001B693A6951017A690A4402F5306243F4B6
:10489800002313613B695A017B69134403F53063B4
:1048A8001A69BB689B68C3F31203396948017969BF
:1048B800014401F5306113430B61FB79012B0DD1E4
:1048C800BB68DB68002B09D0BB68D9683B695A0113
:1048D8007B69134403F530630A465A613B695A0100
:1048E8007B69134403F530631B683A6951017A699F
:1048F8000A4402F5306243F004431360002318466B
:104908001C37BD4680BC704780B489B000AFF860E2
:10491800B96011461A460B46FB711346BB80FB680B
:104928007B61BB68FB6197F82830002B23D1BB88DB
:1049380003339B083B610023BB6118E0FB791A0332
:104948007B69134403F580531A46FB691B6813609F
:10495800FB690133FB61FB690133FB61FB690133CF
:10496800FB61FB690133FB61BB690133BB61BA6958
:104978003B699A42E2D3002318462437BD4680BCDF
:10498800704780B48BB000AFF860B9601346FB8005
:10499800FB68BB61BB687B62FB889B089BB27B6141
:1049A800FB8803F00303FB8300233B6214E0BB692D
:1049B80003F580531A687B6A1A607B6A01337B624D
:1049C8007B6A01337B627B6A01337B627B6A0133DA
:1049D8007B623B6A01333B623A6A7B699A42E6D35F
:1049E800FB8B002B1ED000233B62BB6903F5805371
:1049F8001A4607F1100312681A603A693B6ADBB27B
:104A0800DB0022FA03F3DAB27B6A1A703B6A0133DD
:104A18003B627B6A01337B62FB8B013BFB83FB8B35
:104A2800002BEAD17B6A18462C37BD4680BC7047FC
:104A380080B485B000AF786039607B68FB603B6804
:104A48001B78BB603B685B78012B2CD1BB685A0193
:104A5800FB68134403F510631B68002B12DBBB686B
:104A6800002B0FD0BB685A01FB68134403F5106391
:104A78001B68BA685101FA680A4402F5106223F00B
:104A880080431360BB685A01FB68134403F5106345
:104A98001B68BA685101FA680A4402F5106243F4C7
:104AA800001313602BE0BB685A01FB68134403F53D
:104AB80030631B68002B12DBBB68002B0FD0BB6870
:104AC8005A01FB68134403F530631B68BA68510147
:104AD800FA680A4402F5306223F080431360BB6829
:104AE8005A01FB68134403F530631B68BA68510127
:104AF800FA680A4402F5306243F400131360002395
:104B080018461437BD4680BC704780B485B000AFE6
:104B1800786039607B68FB603B681B78BB603B68EA
:104B28005B78012B28D1BB685A01FB68134403F555
:104B380010631B68BA685101FA680A4402F51062EA
:104B480023F4001313603B68DB78032B03D03B6826
:104B5800DB78022B38D1BB685A01FB68134403F594
:104B680010631B68BA685101FA680A4402F51062BA
:104B780043F08053136027E0BB685A01FB68134475
:104B880003F530631B68BA685101FA680A4402F5F4
:104B9800306223F4001313603B68DB78032B03D0E7
:104BA8003B68DB78022B0FD1BB685A01FB681344C2
:104BB80003F530631B68BA685101FA680A4402F5C4
:104BC800306243F080531360002318461437BD4603
:104BD80080BC704780B485B000AF78600B46FB702E
:104BE8007B68FB60FB6803F500631B68FA6802F5E5
:104BF800006223F4FE631360FB6803F500631A6820
:104C0800FB781B0103F4FE63F96801F500611343A7
:104C18000B60002318461437BD4680BC704780B42B
:104C280085B000AF78607B68FB60FB6803F5606364
:104C38001B68FA6802F5606223F003031360FB68DF
:104C480003F500635B68FA6802F5006223F002036B
:104C58005360002318461437BD4680BC704780B4A3
:104C680085B000AF78607B68FB60FB6803F5606324
:104C78001B68FA6802F5606223F003031360FB689F
:104C880003F500635B68FA6802F5006243F002030B
:104C98005360002318461437BD4680BC704780B463
:104CA80085B000AF78607B685B69FB607B689B6957
:104CB800FA681340FB60FB6818461437BD4680BC91
:104CC800704780B485B000AF78607B68FB60FB6894
:104CD80003F500639B69BB60FB6803F50063DB6950
:104CE800BA681340BB60BB681B0C18461437BD4636
:104CF80080BC704780B485B000AF78607B68FB608B
:104D0800FB6803F500639B69BB60FB6803F5006300
:104D1800DB69BA681340BB60BB689BB2184614379E
:104D2800BD4680BC704780B485B000AF78600B4644
:104D3800FB707B68FB60FB785A01FB68134403F542
:104D480030639B68BB60FB6803F500635B69BA6806
:104D58001340BB60BB6818461437BD4680BC70471B
:104D680080B487B000AF78600B46FB707B687B61CE
:104D78007B6903F500631B693B617B6903F500638D
:104D88005B6BFB60FB7803F00F03FA6822FA03F30E
:104D9800DB01DBB23A6913433B61FB785A017B695B
:104DA800134403F510639B683A691340BB60BB6802
:104DB80018461C37BD4680BC704780B483B000AF2E
:104DC80078607B685B6903F0010318460C37BD46C1
:104DD80080BC704780B485B000AF78607B68FB60AA
:104DE800FB6803F510631B68FA6802F5106223F488
:104DF800FF6323F007031360FB6803F500635B6838
:104E0800FA6802F5006243F4807353600023184681
:104E18001437BD4680BC704780B487B000AFF860D7
:104E28000B467A60FB72FB687B61FB683C3304339A
:104E38001B683B613B69254A93420AD97B6903F5A4
:104E480030631B6803F00043B3F1004F01D1002326
:104E580037E07B6903F530631A46002313617B69E9
:104E680003F530631B697A6902F5306243F4002365
:104E780013617B6903F530631B697A6902F5306257
:104E880043F0180313617B6903F530631B697A6982
:104E980002F5306243F0C0431361FB7A012B0FD156
:104EA8007B6903F530631A467B6853617B6903F5B8
:104EB80030631B687A6902F5306243F0802313601F
:104EC800002318461C37BD4680BC70470A30544F33
:104ED80080B485B000AF78600023FB60FB680133C5
:104EE800FB60FB68124A934201D903231BE07B68ED
:104EF8001B69002BF2DA0023FB607B681B6943F017
:104F080001027B681A61FB680133FB60FB68084A91
:104F1800934201D9032306E07B681B6903F0010370
:104F2800012BF0D0002318461437BD4680BC7047CB
:104F3800400D030080B584B000AF78600B46FB706D
:104F48000023FB737B681B7C002B15D14FF4007387
:104F580002228121786802F046F87B680122DA6231
:104F68004FF4007302220121786802F03CF87B6854
:104F78000122C3F86C2112E04023022281217868C3
:104F880002F031F87B680122DA6240230222012113
:104F9800786802F028F87B680122C3F86C2108239E
:104FA80003228221786802F01EF87B6801221A64C5
:104FB8004FF4077002F0A0F903461A467B68C3F85D
:104FC800B8227B68D3F8B832002B02D10123FB73D7
:104FD80026E07B68D3F8B832BB607B68D3F8BC3274
:104FE8001B689847BB680022C3F81422BB680022DC
:104FF800C3F818227B681B7C002B09D1BB68D3F847
:1050080004224FF400730121786802F0DCF807E00D
:10501800BB68D3F8042240230121786802F0D3F852
:10502800FB7B18461037BD4680BD80B584B000AF05
:1050380078600B46FB700023FB738121786801F0D0
:10504800F8FF7B680022DA620121786801F0F1FF3D
:105058007B680022C3F86C218221786801F0E9FF9F
:105068007B6800221A647B68D3F8B832002B0ED014
:105078007B68D3F8BC325B6898477B68D3F8B83252
:10508800184602F041F97B680022C3F8B822FB7B7E
:1050980018461037BD4680BD80B586B000AF786031
:1050A80039607B68D3F8B8323B610023FB73002377
:1050B800BB810023FB753B681B7803F06003002B62
:1050C80039D0202B7FD13B68DB88002B29D03B6867
:1050D8001B785BB2002B11DA7B68D3F8BC329B6873
:1050E8003A68507839693A68D288984739693B688C
:1050F800DB881A46786801F042FA6BE03B685A7818
:105108003B6983F800223B68DB88DAB23B6983F8A5
:10511800012239693B68DB881A46786801F05DFA34
:1051280058E07B68D3F8BC329B683A685078002214
:10513800396898474EE03B685B780B2B2ED00B2BD9
:1051480038DC002B02D00A2B14D033E07B6893F8AC
:105158009C32032B07D107F10C0302221946786809
:1051680001F00DFA2EE03968786801F09EF9022303
:10517800FB7527E07B6893F89C32032B07D107F176
:105188000F0301221946786801F0F9F91AE0396825
:10519800786801F08AF90223FB7513E07B6893F8BD
:1051A8009C32032B0DD03968786801F07EF9022310
:1051B800FB7506E03968786801F077F90223FB751A
:1051C80000E000BF06E03968786801F06EF9022354
:1051D800FB7500BFFB7D18461837BD4680BD80B5FE
:1051E80084B000AF78600B46FB707B68D3F8B832A8
:1051F800FB607B68D3F8C032BB607B68D3F8B832F9
:10520800002B3AD0FA78796813469B0013449B0028
:105218000B441C331B68002B29D0FA787968134695
:105228009B0013449B000B441C331A68F978B86838
:105238000B46DB005B1A9B00034444331B68B2FB3C
:10524800F3F101FB03F3D31A002B10D1FA78796834
:1052580013469B0013449B000B441C3300221A6026
:10526800F97800230022786801F08AFF03E0FB68E0
:105278000022C3F81422002300E002231846103746
:10528800BD4680BD80B584B000AF78600B46FB702A
:105298007B68D3F8B832FB60FB781946786801F070
:1052A800B5FF0246FB68C3F80C227B68D3F8B83216
:1052B800002B0DD07B68D3F8BC32DB68FA68D2F8D3
:1052C8000402FA6802F5037211469847002300E0C9
:1052D800022318461037BD4680BD80B584B000AFA4
:1052E80078607B68D3F8B832FB607B68D3F8BC324F
:1052F800002B15D0FB6893F80032FF2B10D07B6889
:10530800D3F8BC329B68FA6892F80002F968FA6828
:1053180092F8012292B29847FB68FF2283F8002294
:10532800002318461037BD4680BD000080B483B006
:1053380000AF78607B6843221A80034B18460C370D
:10534800BD4680BC704700BFB400002080B483B065
:1053580000AF78607B6843221A80034B18460C37ED
:10536800BD4680BC704700BF7000002080B483B089
:1053780000AF78607B6843221A80034B18460C37CD
:10538800BD4680BC704700BFF800002080B483B0E1
:1053980000AF78607B680A221A80034B18460C37E6
:1053A800BD4680BC704700BF2C00002080B485B08B
:1053B80000AF786039600223FB733B68002B05D08F
:1053C8007B683A68C3F8BC220023FB73FB7B184652
:1053D8001437BD4680BC704780B487B000AFF86012
:1053E800B9601346FB80FB68D3F8B8327B617B69F0
:1053F800BA68C3F80822FA887B69C3F81022002328
:1054080018461C37BD4680BC704780B485B000AFD5
:10541800786039607B68D3F8B832FB60FB683A681B
:10542800C3F80422002318461437BD4680BC7047D1
:1054380080B584B000AF78607B68D3F8B832FB6081
:105448007B68D3F8B832002B1CD0FB68D3F8143231
:10545800002B15D1FB680122C3F81422FB68D3F88E
:1054680010227B681A63FB68D3F80822FB68D3F81C
:1054780010329BB28121786801F082FE002302E09D
:10548800012300E0022318461037BD4680BD80B5D1
:1054980084B000AF78607B68D3F8B832FB607B6873
:1054A800D3F8B832002B17D07B681B7C002B09D1AE
:1054B800FB68D3F804224FF400730121786801F0E7
:1054C80082FE07E0FB68D3F80422402301217868B4
:1054D80001F079FE002300E0022318461037BD468C
:1054E80080BD80B584B000AFF860B9601346FB7129
:1054F800FB68002B01D102231AE0FB68D3F8B43211
:10550800002B03D0FB680022C3F8B422BB68002B31
:1055180003D0FB68BA68C3F8B022FB68012283F89D
:105528009C22FB68FA791A70F86801F0F7FC0023EE
:1055380018461037BD4680BD80B485B000AF78608E
:1055480039600023FB733B68002B06D07B683A6800
:10555800C3F8B4220023FB7301E00223FB73FB7B37
:1055680018461437BD4680BC704780B582B000AF7E
:105578007860786801F01CFD002318460837BD469E
:1055880080BD80B483B000AF7860002318460C3724
:10559800BD4680BC704780B584B000AF78600B46CC
:1055A800FB700223FB737B68D3F8B432002B0CD05A
:1055B8007B68D3F8B4321B68FA7811467868984744
:1055C8000346002B01D10023FB73FB7B18461037E1
:1055D800BD4680BD80B582B000AF78600B46FB70D9
:1055E8007B68D3F8B4325B68FA78114678689847D4
:1055F800002318460837BD4680BD80B582B000AF8D
:10560800786039607B6803F52A733968184600F0BA
:1056180010FF7B680122C3F894227B68B3F8AE328E
:105628001A467B68C3F898227B6893F8A83203F07F
:105638001F03022B16D0022B1CD8002B02D0012BE3
:1056480008D017E07B6803F52A731946786800F0DC
:1056580003FA1AE07B6803F52A731946786800F0A4
:1056680065FA12E07B6803F52A731946786800F03A
:10567800A5FA0AE07B6893F8A83223F07F03DBB22F
:105688001946786801F0F4FC00BF00231846083773
:10569800BD4680BD80B586B000AFF8600B467A6025
:1056A800FB72FB7A002B4BD1FB6803F5AA737B6175
:1056B800FB68D3F89432032B34D17B69DA687B69B1
:1056C8001B699A4219D97B69DA687B691B69D21A06
:1056D8007B69DA607B69DA687B691B699A4203D265
:1056E8007B69DB689BB202E07B691B699BB21A4647
:1056F8007968F86800F08FFF38E0FB68D3F8B432B7
:105708001B69002B0AD0FB6893F89C32032B05D148
:10571800FB68D3F8B4321B69F8689847F86800F05A
:105728008CFF23E0FB68D3F89432052B1ED1FB686D
:105738000022C3F894220021F86801F099FC15E0D2
:10574800FB68D3F8B4329B69002B0DD0FB6893F843
:105758009C32032B08D1FB68D3F8B4329B69FA7AE0
:105768001146F868984701E0022300E00023184634
:105778001837BD4680BD80B586B000AFF8600B46CF
:105788007A60FB72FB7A002B7FD1FB6814337B6154
:10579800FB68D3F89432022B5CD17B69DA687B69A9
:1057A8001B699A4215D97B69DA687B691B69D21A29
:1057B8007B69DA607B69DB689BB21A467968F868AE
:1057C80000F0F9FE002300220021F86801F0FBFC3C
:1057D8004EE07B699B687A691269B3FBF2F101FBC1
:1057E80002F29B1A002B1CD17B699A687B691B69A2
:1057F8009A4216D37B699A68FB68D3F898329A4222
:105808000FD200220021F86800F0D5FEFB680022C4
:10581800C3F89822002300220021F86801F0D3FC85
:1058280026E0FB68D3F8B432DB68002B0AD0FB68AB
:1058380093F89C32032B05D1FB68D3F8B432DB68AC
:10584800F86898478021F86801F012FCF86800F0C1
:1058580007FF0DE0FB68D3F89432042B04D0FB68F3
:10586800D3F89432002B03D18021F86801F000FCB2
:10587800FB6893F8A032012B1DD1F868FFF781FE71
:10588800FB68002283F8A02215E0FB68D3F8B43245
:105898005B69002B0DD0FB6893F89C32032B08D171
:1058A800FB68D3F8B4325B69FA7A1146F86898470E
:1058B80001E0022300E0002318461837BD4680BDEA
:1058C80080B582B000AF786040230022002178685C
:1058D80001F089FB7B680122C3F858217B684022CC
:1058E800C3F86421402300228021786801F07BFB03
:1058F8007B6801229A617B6840225A627B68012298
:1059080083F89C227B680022C3F894227B680022DB
:105918005A607B680022C3F8A4227B68D3F8B832A7
:10592800002B09D07B68D3F8B4325B687A68526878
:10593800D2B2114678689847002318460837BD4602
:1059480080BD80B483B000AF78600B46FB707B6885
:10595800FA781A74002318460C37BD4680BC704785
:1059680080B483B000AF78607B6893F89C227B6832
:1059780083F89D227B68042283F89C220023184622
:105988000C37BD4680BC704780B483B000AF7860E8
:105998007B6893F89C32042B05D17B6893F89D2291
:1059A8007B6883F89C22002318460C37BD4680BCD0
:1059B800704780B582B000AF78607B6893F89C32FE
:1059C800032B0BD17B68D3F8B432DB69002B05D0ED
:1059D8007B68D3F8B432DB697868984700231846A7
:1059E8000837BD4680BD80B483B000AF78600B46F1
:1059F800FB70002318460C37BD4680BC704780B446
:105A080083B000AF78600B46FB70002318460C3754
:105A1800BD4680BC704780B483B000AF7860002377
:105A280018460C37BD4680BC704780B582B000AFC1
:105A380078607B68012283F89C227B68D3F8B432B3
:105A48005B687A685268D2B2114678689847002332
:105A580018460837BD4680BD80B584B000AF786071
:105A680039600023FB733B681B7803F06003402B0D
:105A780005D0402B4FD8002B09D0202B4BD17B6869
:105A8800D3F8B4329B6839687868984748E03B682F
:105A98005B78092B39D801A252F823F0F55A00088F
:105AA800095B0008135B0008FF5A0008135B000835
:105AB800D75A0008CD5A0008135B0008EB5A0008B3
:105AC800E15A00083968786800F0DCF922E03968A2
