:020000040800F2
:1000000000000220F5140008DD120008E3120008C9
:10001000E9120008EF120008F512000800000000C5
:10002000000000000000000000000000FB120008BB
:100030000713000800000000131300081F13000836
:100040004515000845150008451500084515000828
:100050004515000845150008451500084515000818
:100060004515000845150008451500084515000808
:100070002D13000845150008451500084515000812
:1000800045150008451500084515000845150008E8
:1000900045150008451500084515000845150008D8
:1000A00045150008451500084515000845150008C8
:1000B00045150008451500084515000845150008B8
:1000C00045150008451500084515000845150008A8
:1000D000451500084515000845150008411300089E
:1000E0004515000845150008451500084515000888
:1000F0004515000845150008451500084515000878
:100100004515000845150008451500084515000867
:100110004515000845150008451500084515000857
:100120004515000845150008451500084515000847
:100130004515000845150008451500084515000837
:100140004515000845150008451500085513000819
:100150004515000845150008451500084515000817
:100160004515000845150008451500084515000807
:100170004515000845150008451500080000000059
:040180004515000819
:1001880010B5054C237833B9044B13B10448AFF3C9
:1001980000800123237010BDE00300200000000050
:1001A80094F5000808B5034B1BB103490348AFF3A6
:1001B800008008BD00000000E403002094F500085A
:1001C80010F8012B11F8013B012A28BF9A42F7D0F9
:1001D800D01A7047034613F8012B002AFBD1181ACE
:1001E8000138704781F0004102E000BF83F000430E
:1001F80030B54FEA41044FEA430594EA050F08BFBA
:1002080090EA020F1FBF54EA000C55EA020C7FEA7D
:10021800645C7FEA655C00F0E2804FEA5454D4EBFA
:100228005555B8BF6D420CDD2C4480EA020281EAC4
:10023800030382EA000083EA010180EA020281EAFC
:100248000303362D88BF30BD11F0004F4FEA01314E
:100258004FF4801C4CEA113102D0404261EB41015D
:1002680013F0004F4FEA03334CEA133302D05242E3
:1002780063EB430394EA050F00F0A780A4F101049F
:10028800D5F1200E0DDB02FA0EFC22FA05F28018D9
:1002980041F1000103FA0EF2801843FA05F35941BF
:1002A8000EE0A5F120050EF1200E012A03FA0EFC3E
:1002B80028BF4CF0020C43FA05F3C01851EBE37168
:1002C80001F0004507D54FF0000EDCF1000C7EEB85
:1002D80000006EEB0101B1F5801F1BD3B1F5001FC3
:1002E8000CD349085FEA30004FEA3C0C04F10104E2
:1002F8004FEA445212F5800F80F09A80BCF1004F0B
:1003080008BF5FEA500C50F1000041EB045141EA8C
:10031800050130BD5FEA4C0C404141EB0101013C55
:1003280028BFB1F5801FE9D291F0000F04BF014644
:100338000020B1FA81F308BF2033A3F10B03B3F116
:1003480020020CDA0C3208DD02F1140CC2F10C02A6
:1003580001FA0CF021FA02F10CE002F11402D8BF04
:10036800C2F1200C01FA02F120FA0CFCDCBF41EAD0
:100378000C019040E41AA2BF01EB0451294330BD9F
:100388006FEA04041F3C1CDA0C340EDC04F114047C
:10039800C4F1200220FA04F001FA02F340EA030053
:1003A80021FA04F345EA030130BDC4F10C04C4F199
:1003B800200220FA02F001FA04F340EA0300294679
:1003C80030BD21FA04F0294630BD94F0000F83F4C3
:1003D800801306BF81F480110134013D4EE77FEAA6
:1003E800645C18BF7FEA655C29D094EA050F08BFF2
:1003F80090EA020F05D054EA000C04BF19461046D3
:1004080030BD91EA030F1EBF0021002030BD5FEA16
:10041800545C05D14000494128BF41F0004130BD3E
:1004280014F580043CBF01F5801130BD01F0004592
:1004380045F0FE4141F470014FF0000030BD7FEA05
:10044800645C1ABF194610467FEA655C1CBF0B4600
:10045800024650EA013406BF52EA033591EA030F17
:1004680041F4002130BD00BF90F0000F04BF00210F
:10047800704730B54FF4806404F132044FF0000542
:100488004FF0000150E700BF90F0000F04BF0021BB
:10049800704730B54FF4806404F1320410F0004521
:1004A80048BF40424FF000013EE700BF42004FEA1C
:1004B800E2014FEA31014FEA02701FBF12F07F4399
:1004C80093F07F4F81F06051704732F07F4208BF50
:1004D800704793F07F4F04BF41F40021704730B557
:1004E8004FF4607401F0004521F000411CE700BFA3
:1004F80050EA010208BF704730B54FF000050AE026
:1005080050EA010208BF704730B511F0004502D526
:10051800404261EB41014FF4806404F132045FEA28
:10052800915C3FF4D8AE4FF003025FEADC0C18BFD1
:1005380003325FEADC0C18BF033202EBDC02C2F1C3
:10054800200300FA03FC20FA02F001FA03FE40EA55
:100558000E0021FA02F11444BDE600BF70B54FF059
:10056800FF0C4CF4E06C1CEA11541DBF1CEA135537
:1005780094EA0C0F95EA0C0F00F0DEF82C4481EA9F
:10058800030621EA4C5123EA4C5350EA013518BFBF
:1005980052EA033541F4801143F4801338D0A0FBAC
:1005A80002CE4FF00005E1FB02E506F00042E0FB59
:1005B80003E54FF00006E1FB03569CF0000F18BF5F
:1005C8004EF0010EA4F1FF04B6F5007F64F5407407
:1005D80004D25FEA4E0E6D4146EB060642EAC6219A
:1005E80041EA55514FEAC52040EA5E504FEACE2E07
:1005F800B4F1FD0C88BFBCF5E06F1ED8BEF1004F0A
:1006080008BF5FEA500E50F1000041EB045170BD85
:1006180006F0004646EA010140EA020081EA0301C9
:10062800B4EB5C04C2BFD4EB0C0541EA045170BDC5
:1006380041F480114FF0000E013C00F3AB8014F13F
:10064800360FDEBF002001F0004170BDC4F1000488
:10065800203C35DA0C341BDC04F11404C4F1200509
:1006680000FA05F320FA04F001FA05F240EA020064
:1006780001F0004221F0004110EBD37021FA04F69A
:1006880042EB06015EEA430E08BF20EAD37070BD54
:10069800C4F10C04C4F1200500FA04F320FA05F0B3
:1006A80001FA04F240EA020001F0004110EBD370B5
:1006B80041F100015EEA430E08BF20EAD37070BD25
:1006C800C4F1200500FA05F24EEA020E20FA04F3FE
:1006D80001FA05F243EA020321FA04F001F00041AD
:1006E80021FA04F220EA020000EBD3705EEA430E1E
:1006F80008BF20EAD37070BD94F0000F0FD101F04D
:100708000046400041EB010111F4801F08BF013C85
:10071800F7D041EA060195F0000F18BF704703F0C3
:100728000046520043EB030313F4801F08BF013D4A
:10073800F7D043EA0603704794EA0C0F0CEA135506
:1007480018BF95EA0C0F0CD050EA410618BF52EAC0
:100758004306D1D181EA030101F000414FF00000C6
:1007680070BD50EA410606BF1046194652EA4306D4
:1007780019D094EA0C0F02D150EA013613D195EA48
:100788000C0F05D152EA03361CBF104619460AD190
:1007980081EA030101F0004141F0FE4141F470019A
:1007A8004FF0000070BD41F0FE4141F4780170BD8A
:1007B80070B54FF0FF0C4CF4E06C1CEA11541DBFEF
:1007C8001CEA135594EA0C0F95EA0C0F00F0A7F8F1
:1007D800A4EB050481EA030E52EA03354FEA01311E
:1007E80000F088804FEA03334FF0805545EA131331
:1007F80043EA12634FEA022245EA111545EA1065F9
:100808004FEA00260EF000419D4208BF964244F18F
:10081800FD0404F5407402D25B084FEA3202B61AAE
:1008280065EB03055B084FEA32024FF480104FF482
:10083800002CB6EB020E75EB030E22BFB61A7546F6
:1008480040EA0C005B084FEA3202B6EB020E75EB89
:10085800030E22BFB61A754640EA5C005B084FEAF1
:100868003202B6EB020E75EB030E22BFB61A7546BE
:1008780040EA9C005B084FEA3202B6EB020E75EBC9
:10088800030E22BFB61A754640EADC0055EA060E8A
:1008980018D04FEA051545EA16754FEA06164FEACD
:1008A800C30343EA52734FEAC2025FEA1C1CC0D179
:1008B80011F4801F0BD141EA00014FF000004FF006
:1008C800004CB6E711F4801F04BF01430020B4F1C7
:1008D800FD0C88BFBCF5E06F3FF6AFAEB5EB030C7F
:1008E80004BFB6EB020C5FEA500C50F1000041EB7C
:1008F800045170BD0EF0004E4EEA113114EB5C0449
:10090800C2BFD4EB0C0541EA045170BD41F480111B
:100918004FF0000E013C90E645EA060E8DE60CEA23
:10092800135594EA0C0F08BF95EA0C0F3FF43BAF40
:1009380094EA0C0F0AD150EA01347FF434AF95EAF7
:100948000C0F7FF425AF104619462CE795EA0C0FDB
:1009580006D152EA03353FF4FDAE1046194622E7A8
:1009680050EA410618BF52EA43067FF4C5AE50EA82
:1009780041047FF40DAF52EA43057FF4EBAE12E772
:100988004FF0FF3C06E000BF4FF0010C02E000BF53
:100998004FF0010C4DF804CD4FEA410C7FEA6C5C36
:1009A8004FEA430C18BF7FEA6C5C1BD001B050EAD9
:1009B800410C0CBF52EA430C91EA030F02BF90EAC4
:1009C800020F0020704710F1000F91EA030F58BF83
:1009D800994208BF90422CBFD8176FEAE37040F0E5
:1009E800010070474FEA410C7FEA6C5C02D150EA83
:1009F800013C07D14FEA430C7FEA6C5CD6D152EA3E
:100A0800033CD3D05DF8040B704700BF8446104602
:100A180062468C461946634600E000BF01B5FFF701
:100A2800B7FF002848BF10F1000F01BD4DF808EDD1
:100A3800FFF7F4FF0CBF012000205DF808FB00BFA2
:100A48004DF808EDFFF7EAFF34BF012000205DF8FC
:100A580008FB00BF4DF808EDFFF7E0FF94BF012049
:100A680000205DF808FB00BF4DF808EDFFF7CEFF4A
:100A780094BF012000205DF808FB00BF4DF808ED89
:100A8800FFF7C4FF34BF012000205DF808FB00BF5A
:100A98004FEA410C7FEA6C5C02D150EA013C0AD172
:100AA8004FEA430C7FEA6C5C02D152EA033C02D164
:100AB8004FF0000070474FF0010070474FEA4102C5
:100AC80012F5001215D211D56FF47873B3EB625298
:100AD80012D94FEAC12343F0004343EA505311F0BF
:100AE800004F23FA02F018BF404270474FF0000051
:100AF800704750EA013005D111F0004008BF6FF08F
:100B0800004070474FF00000704700BF4A0011D204
:100B180012F5001211D20DD56FF47873B3EB62524F
:100B28000ED44FEAC12343F0004343EA505323FA5B
:100B380002F070474FF00000704750EA013002D1D0
:100B48004FF0FF3070474FF0000070474FEA410206
:100B5800B2F1E04324BFB3F5001CDCF1FE5C0DD913
:100B680001F0004C4FEAC0024CEA5070B2F1004F5D
:100B780040EB830008BF20F00100704711F0804F60
:100B880021D113F13872BCBF01F00040704741F425
:100B980080114FEA5252C2F11802C2F1200C10FA29
:100BA8000CF320FA02F018BF40F001004FEAC1230D
:100BB8004FEAD32303FA0CFC40EA0C0023FA02F3B1
:100BC8004FEA4303CCE77FEA625307D150EA013387
:100BD8001EBF4FF0FE4040F44000704701F0004057
:100BE80040F0FE4040F40000704700BF4FF0FF3C6B
:100BF80006E000BF4FF0010C02E000BF4FF0010C0F
:100C08004DF804CD4FEA40024FEA41037FEA226CD7
:100C180018BF7FEA236C11D001B052EA530C18BFF9
:100C280090EA010F58BFB2EB030088BFC81738BF5E
:100C38006FEAE17018BF40F0010070477FEA226C4C
:100C480002D15FEA402C05D17FEA236CE4D15FEA48
:100C5800412CE1D05DF8040B704700BF844608467C
:100C68006146FFE70FB5FFF7C9FF002848BF10F13D
:100C7800000F0FBD4DF808EDFFF7F4FF0CBF012082
:100C880000205DF808FB00BF4DF808EDFFF7EAFF0C
:100C980034BF012000205DF808FB00BF4DF808EDC7
:100CA800FFF7E0FF94BF012000205DF808FB00BFBC
:100CB8004DF808EDFFF7D2FF94BF012000205DF842
:100CC80008FB00BF4DF808EDFFF7C8FF34BF01204F
:100CD80000205DF808FB00BF4FEA40024FEA4103DD
:100CE8007FEA226C02D15FEA402C08D17FEA236CAC
:100CF80002D15FEA412C02D14FF0000070474FF05B
:100D08000100704753B94AB9002908BF00281CBF21
:100D18004FF0FF314FF0FF3000F0AEB9ADF1080CE5
:100D28006DE904CE00F03EF8DDF804E0DDE90223C9
:100D380004B0704738B505460C4600220023284603
:100D48002146FFF77DFE28B928462146BDE83840F0
:100D580000F00AB8284604F1004100F005F84042C6
:100D680061EB410138BD00BFD0B500220B4B0646F0
:100D78000F46FFF7F3FBFFF7C9FE0446FFF774FBC6
:100D88000022074BFFF7EAFB02460B46304639467E
:100D9800FFF72CFAFFF7BAFE2146D0BD0000F03D60
:100DA8000000F0412DE9F047089E0D4604468846AC
:100DB800002B4DD18A42944668D9B2FA82F252B1D8
:100DC80001FA02F3C2F1200120FA01F10CFA02FC47
:100DD80041EA030894404FEA1C41B8FBF1F71FFAB7
:100DE8008CFE01FB178807FB0EF0230C43EA08432F
:100DF80098420AD91CEB030307F1FF3580F01E81E6
:100E0800984240F21B81023F63441B1AB3FBF1F086
:100E180001FB103300FB0EFEA4B244EA0344A645CE
:100E28000AD91CEB040400F1FF3380F00981A645C0
:100E380040F20681644402380021A4EB0E0440EA23
:100E480007401EB10023D440C6E90043BDE8F0873F
:100E58008B4208D9002E00F0EE800021C6E900057B
:100E68000846BDE8F087B3FA83F100294AD1AB42BE
:100E780002D3824200F2FC80841A65EB030301204E
:100E88009846002EE2D0C6E90048DFE702B9FFDE47
:100E9800B2FA82F2002A40F09180A1EB0C00012105
:100EA8004FEA1C471FFA8CFEB0FBF7F307FB130051
:100EB800250C45EA00450EFB03F0A84208D91CEBB7
:100EC800050503F1FF3802D2A84200F2CE8043465E
:100ED8002D1AB5FBF7F007FB10550EFB00FEA4B268
:100EE80044EA0544A64508D91CEB040400F1FF3583
:100EF80002D2A64500F2B6802846A4EB0E0440EACA
:100F080003409EE7C1F120078B4022FA07FC4CEA18
:100F1800030C25FA07FA4FEA1C49BAFBF9F820FA3C
:100F280007F309FB18AA8D401FFA8CFE1D4300FA2F
:100F380001F308FB0EF02C0C44EA0A44A04202FA22
:100F480001F20BD91CEB040408F1FF3A80F0888009
:100F5800A04240F28580A8F102086444241AB4FB38
:100F6800F9F009FB104400FB0EFEADB245EA04445B
:100F7800A64508D91CEB040400F1FF356CD2A64540
:100F88006AD90238644440EA0840A0FB0295A4EB01
:100F98000E04AC42C846AE4656D353D0002E69D094
:100FA800B3EB080264EB0E0422FA01F304FA07F724
:100FB8001F43CC40C6E90074002147E70CFA02FC45
:100FC800C2F1200125FA01F34FEA1C4720FA01F18A
:100FD80095400D43B3FBF7F107FB11331FFA8CFE65
:100FE800280C40EA034001FB0EF3834204FA02F4A2
:100FF80008D91CEB000001F1FF382FD283422DD90C
:1010080002396044C01AB0FBF7F307FB1300ADB216
:1010180045EA004503FB0EF0A84208D91CEB05057C
:1010280003F1FF3816D2A84214D9023B6544281AA6
:1010380043EA014138E73146304607E72F46E4E600
:101048001846F9E64B45A9D2B9EB020865EB0C0E38
:101058000138A3E74346EAE7284694E74146D1E743
:10106800D0467BE76444023847E7023B65442FE7F4
:10107800084606E73146E9E6704700BF80B500AF8D
:101088004FF4E131002001F04BFD4FF4E131012034
:1010980001F046FD4FF4E131002000F015FB4FF45C
:1010A800E131012000F02EFB00BF80BD80B582B089
:1010B80000AF00F097F8786000F094F802467B687B
:1010C800D31AB3F5FA7F05D300F08CF878600020C6
:1010D80001F09EFC00F0D0FBEEE7000080B588B080
:1010E80000AF01F045FF00F084F807F10C0300227F
:1010F8001A605A609A60DA601A610023BB602A4B52
:101108001B6B294A43F480731363274B1B6B03F44F
:101118008073BB60BB6800237B60234B1B6B224A38
:1011280043F004031363204B1B6B03F004037B6041
:101138007B6800233B601C4B1B6B1B4A43F040033E
:101148001363194B1B6B03F040033B603B684FF480
:101158008053FB6011233B6100237B610223BB6149
:1011680007F10C031946114803F00AF800224FF45E
:1011780080510E4803F0A0FA4FF4967000F018F86A
:1011880001224FF48051094803F096FA00233B618D
:1011980007F10C031946054802F0F2FF08F018FEA3
:1011A80000BF2037BD4680BD003802400000024025
:1011B80080B582B000AF7860786801F047FF00BF63
:1011C8000837BD4680BD80B582B000AF78603B1D52
:1011D80001221946002001F09BFD0123184608371B
:1011E800BD4680BD80B500AF01F026FF0346184616
:1011F80080BD80B592B000AF07F1180330220021FE
:10120800184609F057FC3B1D00221A605A609A6084
:10121800DA601A610123BB610123FB6102233B638E
:101228004FF480037B631423BB63C023FB63022357
:101238003B6405237B6407F11803184604F0C2FBDE
:101248000346002B01D000F01AF80F237B6002231D
:10125800BB600023FB604FF4A0533B614FF4805305
:101268007B613B1D0321184604F0FAFD0346002B61
:1012780001D000F004F800BF4837BD4680BD80B4F7
:1012880000AF72B600BFFEE780B483B000AF0023A2
:101298007B600F4B5B6C0E4A43F4804353640C4BEA
:1012A8005B6C03F480437B607B6800233B60084BE6
:1012B8001B6C074A43F080531364054B1B6C03F007
:1012C80080533B603B6800BF0C37BD4680BC70470D
:1012D8000038024080B400AFFEE780B400AFFEE7FC
:1012E80080B400AFFEE780B400AFFEE780B400AF83
:1012F800FEE780B400AF00BFBD4680BC704780B435
:1013080000AF00BFBD4680BC704780B400AF00BFCF
:10131800BD4680BC704780B500AF01F07BFE00BFC2
:1013280080BD000080B500AF024802F0E9F900BFB7
:1013380080BD00BF0C09002080B500AF024805F051
:10134800CDF800BF80BD00BFC808002080B500AF41
:10135800024803F021FB00BF80BD00BF64180020D5
:1013680080B400AF01231846BD4680BC704780B5E5
:1013780082B000AF7860396009F062FB034616223C
:101388001A604FF0FF3318460837BD4680BD80B558
:1013980082B000AF78604FF0FF317868FFF7E7FF61
:1013A800FEE780B586B000AFF860B9607A600023C8
:1013B8007B610AE0AFF300800146BB685A1CBA6043
:1013C800CAB21A707B6901337B617A697B689A4279
:1013D800F0DB7B6818461837BD4680BD80B586B0FF
:1013E80000AFF860B9607A6000237B6109E0BB68F0
:1013F8005A1CBA601B781846FFF7E5FE7B69013373
:101408007B617A697B689A42F1DB7B6818461837FA
:10141800BD4680BD80B483B000AF78604FF0FF3325
:1014280018460C37BD4680BC704780B483B000AF07
:10143800786039603B684FF400525A6000231846C0
:101448000C37BD4680BC704780B483B000AF78606D
:10145800012318460C37BD4680BC704780B485B060
:1014680000AFF860B9607A60002318461437BD46AB
:1014780080BC704780B586B000AF7860144A154BC1
:10148800D31A7B617B693B61134B1B68002B02D12C
:10149800114B124A1A60104B1A687B6813443A6958
:1014A8009A4207D209F0CCFA03460C221A604FF090
:1014B800FF3309E0084B1B68FB60074B1A687B6821
:1014C8001344054A1360FB6818461837BD4680BDAB
:1014D8000000022000040000FC030020781C00200B
:1014E80080B400AF00BFBD4680BC7047DFF834D081
:1014F8000D480E490E4A002302E0D458C450043364
:10150800C4188C42F9D30B4A0B4C002301E013603A
:101518000432A242FBD3FFF7E3FF09F097FA09F080
:1015280083FA70470000022000000020E00300203A
:101538006CFD0008E0030020741C0020FEE780B466
:1015480087B000AFF860B9607A600123FB75FB686B
:1015580000221A60FB6800225A60FB687A689A6069
:10156800FB68BA68DA60FB7D18461C37BD4680BC4C
:10157800704780B487B000AFF860B9607A60012323
:10158800FB7500233B6126E0FB68DB68002B09D074
:10159800FB68DA68FB685B681A443B69B9680B4406
:1015A80012781A70FB685A68FB681B689A420CD05C
:1015B800FB685B680133FA689268B3FBF2F101FBE0
:1015C80002F29A1AFB685A6002E00023FB7506E0F3
:1015D8003B6901333B613B697A689A42D4D8FB7D09
:1015E80018461C37BD4680BC704780B485B000AF34
:1015F80078607B681A687B685B68D31A7A68926837
:10160800B3FBF2F101FB02F29B1AFB60FB68184680
:101618001437BD4680BC704780B483B000AF012347
:10162800FB71FB7918460C37BD4680BC704700003B
:1016380080B500AF1B4B00221A721A4B00225A7257
:10164800184B00221A74174B002283F89521154B6A
:10165800002283F89621134B002283F89721114B1F
:10166800002283F894210F4B0F4AC3F894230D4BA3
:101678000E4AC3F898230B4B0D4AC3F89C23094B19
:101688000C4AC3F8A023074800F088FB0A490B4816
:1016980000F038FE0A490B4800F034FE01231846D2
:1016A80080BD00BF00040020A9210008F92100081E
:1016B800492200088D220008A1230008B0F500087F
:1016C80011240008B8F5000880B582B000AF0346C1
:1016D8003960FB710A4AFB791370094A3B68536009
:1016E800FB793968184601F01BFA03461A46044B81
:1016F8001A72034B1B7A18460837BD4680BD00BFD7
:101708000004002080B584B000AF03463960FB7147
:101718000B4AFB7993720A4A3B68D360FB793968B4
:10172800184601F0FDF90346FB73FB7B002B02D042
:10173800034B01225A72FB7B18461037BD4680BD09
:101748000004002080B584B000AF7860344B5B7A29
:10175800002B61D07B68987A7B6893F845321A46EB
:10176800304901F001FB7B68987A7B6893F8463230
:101778001A462D4901F0F8FA7B68987A7B6893F845
:1017880044321A46294901F0EFFA7B68987A7B6857
:1017980003F509731A46264901F0E6FA7B68987A38
:1017A8007B6893F995311A46224901F0DDFA7B6886
:1017B800987A7B6893F896311A461F4901F0D4FA53
:1017C8007B68987A7B6893F897311A461B4901F031
:1017D800CBFA0023FB6012E07B68987AFA6813461C
:1017E8009B001344DA00D21A02F5CC737A681344CA
:1017F800FA68134901F0B8FAFB680133FB607B68AB
:1018080093F897311A46FB689342E5DB7B689B7A2D
:101818000C49184601F0A8FA00BF1037BD4680BD34
:1018280000040020BCF50008CCF50008DCF5000831
:10183800ECF50008FCF500080CF600081CF600089A
:101848002CF600083CF6000880B582B000AF78603E
:101858007B681B780649184601F086FA7B681B7876
:101868000449184601F080FA00BF0837BD4680BD1C
:1018780040F6000844F6000880B500AF0D4B1B7A0F
:1018880083F00103DBB2002B01D000230FE000F04E
:1018980013F80346002B09D0064B1B78184601F0B5
:1018A80013FA03461946034800F012F801231846B4
:1018B80080BD00BF0004002080B500AF034B1B783B
:1018C800184601F0CFF90346184680BD00040020F1
:1018D80080B58CB000AF78600B46FB70002387F8AA
:1018E80023307B6803F50973FB617B681B7C002B45
:1018F80040F06881FB787F2B2AD07F2B00F3DA80B9
:101908001B2B21D01B2B00F3D580082B62D00D2B6D
:1019180040F0D080FB6993F82230002B05D078681E
:1019280000F055FA786800F041FBFB69002283F863
:101938002220FB69002283F82120FB6900221A700B
:101948007868FFF781FF44E17B6801221A7440E15F
:10195800FB6993F82120FB6993F822309A4280F0C2
:101968003381FB6993F82220FB6993F82130D31A5D
:10197800FB760123FB6213E0FB6993F821301A46DA
:10198800FB6A1A44FB6993F821301946FB6A0B4439
:10199800013BF969895CFA69D154FB6A0133FB623E
:1019A800FB7EFA6A9A42E7DBFB6993F82230013B37
:1019B800DAB2FB6983F82220FB6993F822301A46D1
:1019C800FB69002199547B681B788E49184601F001
:1019D800CBF9F9E0FB6993F82230002B55D0FB696D
:1019E80093F82130002B50D0FB6993F82120FB6934
:1019F80093F822309A420ED1FB6993F82230013BCA
:101A0800DAB2FB6983F82220FB6993F822301A4680
:101A1800FB6900219954FB6993F82120FB6993F82D
:101A280022309A4231D2FB6993F82220FB6993F85D
:101A38002130D31ABB760023BB6213E0FB6993F80D
:101A480021301A46BB6A1A44FB6993F821301946BB
:101A5800BB6A0B44013BF969895CFA69D154BB6ADA
:101A68000133BB62BB7EBA6A9A42E7DBFB6993F833
:101A78002230013BDAB2FB6983F82220FB6993F834
:101A880022301A46FB6900219954FB6993F82130EA
:101A9800002B00F09B80FB6993F82130013BDAB200
:101AA800FB6983F821207B681B785749184601F0A9
:101AB8005BF98BE0FB6993F822300133FA6992F8FD
:101AC8002020934280F28480FB6993F82120FB69EF
:101AD80093F822309A4224D17B681B78F91C0122A2
:101AE800184601F015F9FB6993F821301A46F97880
:101AF800FB699954FB6993F822300133DAB2FB6928
:101B080083F82220FB6993F821300133DAB2FB69AC
:101B180083F82120FB6993F822301A46FB690021DB
:101B28009954FB6993F82120FB6993F822309A4273
:101B38004ED2FB6993F82220FB6993F82130D31A1F
:101B48007B7600237B6213E0FB6993F822301A4608
:101B58007B6AD31A5A1EFB6993F8223019467B6AAE
:101B6800CB1AF969895CFA69D1547B6A01337B62C3
:101B78007B7E7A6A9A42E7DBFB6993F821301A4642
:101B8800F978FB699954FB6993F822300133DAB28A
:101B9800FB6983F82220FB6993F821300133DAB21C
:101BA800FB6983F82120FB6993F822301A46FB6908
:101BB800002199547B681B78FA781449184601F07B
:101BC800D3F805E000BF04E000BF02E000BF00E07A
:101BD80000BF7B681B7C013B032B00F2D28001A273
:101BE80052F823F0FD1B0008051C0008191C00080A
:101BF800811D00087B6802221A74C2E07B680322F8
:101C08001A74BEE04CF6000854F600085CF60008AA
:101C18007B6800221A74FB78442B1AD1FB6993F86D
:101C28002130002B15D0FB6993F82130013BDAB243
:101C3800FB6983F821201B233B735B237B73FB78B1
:101C4800BB737B681B7807F10C010322184601F06F
:101C58005FF8FB78432B1DD1FB6993F82120FB69C2
:101C680093F822309A4215D2FB6993F82130013358
:101C7800DAB2FB6983F821201B233B735B237B7358
:101C8800FB78BB737B681B7807F10C0103221846AD
:101C980001F03EF8FB78412B0CD10121786800F067
:101CA800EBF87B681A787B6803F5097319461046C8
:101CB80001F05AF8FB78422B0CD10021786800F02B
:101CC800DBF87B681A787B6803F5097319461046B8
:101CD80001F04AF8FB78312B0FD17B681878FB6943
:101CE80093F821301A462B4901F03EF8FB6900228F
:101CF80083F821207B6804221A74FB78342B3FD1A7
:101D0800FB6993F82120FB6993F822309A4210D29C
:101D1800FB6993F822309AB2FB6993F821309BB2A1
:101D2800D31AFB827B681B78FA8A1B49184601F094
:101D38001BF8FB6993F82120FB6993F822309A423B
:101D480010D9FB6993F821309AB2FB6993F82230D5
:101D58009BB2D31AFB827B681B78FA8A0D49184616
:101D680001F002F8FB6993F82220FB6983F821202F
:101D78007B6804221A7403E07B6800221A7400E06E
:101D880000BF7868FFF7DEFC97F823301846303735
:101D9800BD4680BD68F6000870F6000880B483B0C0
:101DA80000AF78607B68002283F846227B680022B7
:101DB80083F845227B681F2283F844227B6800222F
:101DC80083F8242200BF0C37BD4680BC7047F0B5AD
:101DD80083B000AF78607B6893F896311A467968CB
:101DE80013469B001344DA00D21A8B1803F5CC7201
:101DF8007B6803F50974944604F1200E654626466F
:101E08000FCE28606960AA60EB6010340CF1100CEA
:101E18007445F3D1634622461188927819809A70E6
:101E28007B6893F89731032B07D87B6893F8973131
:101E38000133DAB27B6883F897217B6893F896318F
:101E48005AB27B6883F895217B6893F89631013301
:101E58005A4203F0030302F0030258BF5342DAB2B6
:101E68007B6883F896217B68012283F8942100BF60
:101E78000C37BD46F0BD0000F0B585B000AF786006
:101E88000B46FB707B6893F89731002B00F0868037
:101E98007B6893F84532002B08D07B6818787B68FC
:101EA80093F845321A463F4900F05EFF7B6893F885
:101EB8004632002B08D07B6818787B6893F8463246
:101EC8001A46394900F050FF97F90330012B25D104
:101ED8007B6893F89431002B06D07B6893F8963191
:101EE8005AB27B6883F895217B6893F995311A4635
:101EF8007B6893F897311344013B7A6892F89721ED
:101F080093FBF2F101FB02F29B1A5AB27B6883F849
:101F180095217B6893F99531FB7313E07B6893F9FE
:101F2800953101337A6892F8972193FBF2F101FB1E
:101F380002F29B1A5AB27B6883F895217B6893F961
:101F48009531FB73FA7B7968786813469B001344D4
:101F5800DA00D21A831803F5CC731C4601F509760A
:101F680004F1200C35462346186859689A68DB68DE
:101F78000FC5103410366445F4D133462246118813
:101F8800927819809A707B6893F846227B6883F868
:101F980045227B68002283F8942100E000BF1437B3
:101FA800BD46F0BD68F6000878F6000880B584B034
:101FB80000AF78600023FB72786800F051F80346A0
:101FC800002B46D0254800F093F87B68D3F81431ED
:101FD800184600F0B1F80023FB6033E07B68D3F8C3
:101FE8001401FA6813469B0013449B0003F512730F
:101FF8007A68134404331946FEF7E2F80346002BC7
:102008001DD17B68B3F81231013B9AB27B68A3F803
:102018008C237B6803F58C727B68C3F890237968FE
:10202800FA6813469B0013449B000B4403F517738F
:102038001B687A6802F563721046984709E0FB68E6
:102048000133FB607B68B3F848321A46FB68934259
:10205800C4DBFB7A18461037BD4680BD80F6000801
:1020680080B588B000AF78600023FB770023FB823F
:102078007B680022A3F812217B6803F509733B6192
:102088007B6803F58A73FB60FB8A9B00FA6813443C
:1020980000221A60154B1B6807F1080219463869B7
:1020A8000AF022FBB86110E0FB8A5A1CFA829B00F6
:1020B800FA681344BA691A600C4B1B6807F10802E6
:1020C800194600200AF010FBB861BB69002BEBD160
:1020D8007B68FA8AA3F81221FB8A002B01D001231E
:1020E800FB77FB7F18462037BD4680BD04000020E3
:1020F8000FB480B584B000AF07F11C037B600D4BB3
:10210800FB60FB6803F111007B68BA694FF48071CA
:102118000AF014FCB860FB681878FB681133BA68D9
:10212800194600F0F5FD00BF1037BD46BDE88040F8
:1021380004B070470004002080B485B000AF786018
:102148000023FB8118E0FB897A6813441B787B73B2
:102158007B7B002B14D07B7B602B05D97B7B7A2B78
:1021680002D87B7B203B7B73FB897A6813447A7B9C
:102178001A70FB890133FB81FB890F2BE3D900E03F
:1021880000BFFB89102B05D1FB89013B7A681344FA
:1021980000221A7000BF1437BD4680BC704700008B
:1021A80080B584B000AF0346FB710023FB600F4B82
:1021B800BB60FB799AB2BB68B3F88C339A4201D3FF
:1021C80000230EE0BB68D3F89023FB799B001344EF
:1021D8001B680022002118460AF07AFB0346FB60C0
:1021E800FB6818461037BD4680BD00BF00040020BC
:1021F80080B584B000AF0346FB714FF00003FB606D
:102208000E4BBB60FB799AB2BB68B3F88C339A4229
:1022180002D34FF000030CE0BB68D3F89023FB799E
:102228009B0013441B68002118460AF0E3F9F86084
:10223800FB6818461037BD4680BD00BF000400206B
:1022480080B485B000AF0346FB710023FB600C4BE4
:10225800BB60FB799AB2BB68B3F88C339A4201D35E
:10226800002308E0BB68D3F89023FB799B00134454
:102278001B68FB60FB6818461437BD4680BC704776
:102288000004002080B584B000AF03463960FB71BC
:102298000023FB730F4BBB60FB799AB2BB68B3F8A2
:1022A8008C339A4201D3002310E0BB68D3F8902303
:1022B800FB799B0013441B6819463868FDF780FFBB
:1022C8000346002B01D10123FB73FB7B1846103713
:1022D800BD4680BD0004002080B582B000AF084B29
:1022E8007B607B681B78184600F0BCFC0346002B1B
:1022F80001D1012300E0002318460837BD4680BD00
:102308000004002080B586B000AF786039600123F2
:10231800FB75204B3B613B69B3F848320F2B01D961
:10232800002332E03B69B3F84832FB81FA8913464F
:102338009B0013449B0003F512733A69134404335A
:102348007968184609F03CFBFA89396913469B00FD
:1023580013449B000B4403F517733A681A60FA8913
:1023680013469B0013449B0003F512733A69134408
:1023780004331846FFF7E0FE3B69B3F848320133EF
:102388009AB23B69A3F84822FB7D18461837BD4628
:1023980080BD00BF0004002080B584B000AF786025
:1023A800154BBB601548FFF7A3FE1548FFF7A0FEC5
:1023B8000023FB6012E0FA6813469B0013449B005D
:1023C80003F51273BA68134404331846FFF790FEF6
:1023D8000A48FFF78DFEFB680133FB60BB68B3F862
:1023E80048321A46FB689342E5DB0648FFF780FE51
:1023F80000BF1037BD4680BD0004002080F60008ED
:1024080084F60008A4F6000880B58CB000AF7860A8
:102418001023BB627B681B887B617B685B683B61C0
:102428007B681B88002B03D14048FFF761FE7AE0E8
:102438007B69012B09DD3B6904331B6800220021FD
:1024480018460AF045FA0346BB623B691B6800223E
:10245800002118460AF03CFA03467B627B6ABB619E
:102468003348FFF745FE0023FB6258E0FB6A03F0A0
:102478000303002B04D17B6A19462E48FFF738FE68
:102488007B6A1B6819462C48FFF732FEFB6A5A42E2
:1024980003F0030302F0030258BF5342032B38D161
:1024A8002648FFF725FE00233B622CE0BB691B682A
:1024B800FB600023FB611DE007F10C02FB6913447C
:1024C8001B781F2B10D907F10C02FB6913441B78EA
:1024D8007E2B09D807F10C02FB6913441B781946B7
:1024E8001748FFF705FE02E01648FFF701FEFB69F3
:1024F8000133FB61FB69032BDEDDBB690433BB6180
:102508003B6A01333B623B6A032BCFDD0E48FFF782
:10251800EFFD7B6A04337B62FB6A0133FB62FA6A74
:10252800BB6A9A42A2DB3037BD4680BDC4F60008BC
:10253800D8F60008E0F60008ECF60008F4F6000803
:10254800F8F60008FCF6000800F7000880B48BB025
:1025580000AF0346B9607A60FB81002387F8273013
:10256800FB89254A52F833303B62FB89224A52F8EC
:102578003320FB892049DB000B445B681344013B93
:10258800FB61BB68BB61BA697B681344013B7B6133
:102598003A6ABB699A4206D33A6A7B699A4202D878
:1025A800012387F82730FA69BB699A4206D3FA698A
:1025B8007B699A4202D8012387F82730BA693B6AB7
:1025C8009A4206D3BA69FB699A4202D8012387F86E
:1025D80027307A693B6A9A4206D37A69FB699A423C
:1025E80002D8012387F8273097F8273018462C3768
:1025F800BD4680BC704700BF0800002080B582B08F
:1026080000AF0123FB7104490448FFF77BFEFB7907
:1026180018460837BD4680BD3527000810F7000862
:1026280080B58CB000AF78603960002387F82F3010
:102638004FF6FF73BB850023BB6200237B6215E066
:102648007B6A9BB23A6879681846FFF77FFF0346B2
:10265800002B08D0B7F92C30002B01DA7B6ABB8538
:10266800BB6A0133BB627B6A01337B627B6A0B2BDB
:10267800E6DDBB6A002B20D001F0FCFA0023FB60EA
:1026880001233B61B7F92C307B61BB6ABB61022334
:10269800FB6107F1080207F10C031146184601F027
:1026A80047FC034687F8233097F82330002B02D1E4
:1026B800012387F82F3001F0FFFA97F82F301846DA
:1026C8003037BD4680BDB0B588B000AFF860B9609E
:1026D8007A600123FB7701F0CDFA0023BB6119E092
:1026E800BB681B78FB82BA69FB68D118FB8A002299
:1026F8001C46154622462B46002001F067FA034681
:102708007B757B7D002B02D00023FB7706E0BB693D
:102718000133BB61BB697A689A42E1D801F0CCFA0F
:10272800FB7F18462037BD46B0BD000080B58CB091
:1027380000AF7860002387F82F307B681B88012B57
:1027480021D17B685B695E49002098470346002BCE
:1027580019D00023BB6210E05A4ABB6A52F8331002
:10276800584ABB6ADB0013445B689B0A1A46564802
:10277800FFF7BEFCBB6A0133BB62BB6A0B2BEBDD08
:10278800012387F82F307B681B88032B2BD17B68AC
:102798005B694E49002098470346002B23D07B688D
:1027A8009B680120984703463B627B689B68022030
:1027B80098470346FB6100237B620DE07A6A3B6A17
:1027C800D1187A6A3B6A13441B781A464048FFF7C7
:1027D8008FFC7B6A01337B627B6AFA699A42EDD887
:1027E800012387F82F307B681B88032B27D17B6850
:1027F8005B693849002098470346002B1FD07B6847
:102808009B68012098470346BB617B689B68022050
:1028180098470346FB6007F10C0310221946B86974
:10282800FFF751FF0346002B03D02B48FFF760FC4E
:1028380002E02A48FFF75CFC012387F82F307B6809
:102848001B88032B24D17B685B69254900209847A6
:102858000346002B1CD07B689B68012098470346E1
:102868007B617B689B680220984703463B61396916
:102878007869FFF7D5FE0346002B03D01948FFF708
:1028880037FC02E01848FFF733FC012387F82F30A4
:1028980097F82F3083F00103DBB2002B0BD01348DD
:1028A800FFF726FC1248FFF723FC1248FFF720FC2D
:1028B8001148FFF71DFC00BF3037BD4680BD00BF83
:1028C80018F700080800002020F7000830F7000873
:1028D80038F7000848F7000850F7000868F70008BC
:1028E8007CF7000884F7000898F70008ACF70008A0
:1028F800BCF70008D8F70008F0F7000880B58AB0E0
:1029080000AF012387F8233007F10C0300221A6077
:102918005A609A60DA601A610023BB602A4B1B6B0D
:10292800294A43F480731363274B1B6B03F48073AA
:10293800BB60BB6800237B60234B1B6B224A43F0C0
:1029480004031363204B1B6B03F004037B607B6859
:1029580000233B601C4B1B6B1B4A43F04003136373
:10296800194B1B6B03F040033B603B6801233B6141
:1029780000237B610223BB6100237B6217E0134ABB
:102988007B6ADB0013449B88FB60104A7B6A52F821
:10299800333007F10C021146184601F0F1FB7B6A4F
:1029A800DBB2184600F018F87B6A01337B627B6A59
:1029B800032BE4DD06490748FFF7A4FC97F823300A
:1029C80018462837BD4680BD003802406800002000
:1029D800492A00080CF8000880B582B000AF034609
:1029E800FB71FB79094A52F83300FB79074ADB008F
:1029F80013449988FB79054ADB001344DB791A46AE
:102A080001F05AFE00BF0837BD4680BD68000020AF
:102A180080B582B000AF0346FB71FB79074A52F8D4
:102A28003320FB790549DB000B449B881946104687
:102A380001F05AFE00BF0837BD4680BD680000207F
:102A480080B586B000AF78600023FB757B681B8873
:102A5800032B36D17B685B692149002098470346E0
:102A6800002B2ED07B689B68012098470346BB75D6
:102A78007B689B68022098470346FB60BB7D002B60
:102A880002D0BB7D013BBB751648FFF731FBFEF753
:102A9800A9FB38610EE0FEF7A5FB02463B69D31A95
:102AA800FA689A4206D8FEF79DFB3861BB7D184646
:102AB800FFF7AEFFFFF710FC0346002BEBD1012315
:102AC800FB75FB7D83F00103DBB2002B03D00421EF
:102AD8000548FFF70DFB00BF1837BD4680BD00BF96
:102AE80010F8000818F8000828F8000880B483B027
:102AF80000AF0123BB710023FB7106E0FB79074A95
:102B08000021D154FB790133FB71FB79012BF5D9F5
:102B1800BB7918460C37BD4680BC7047A407002017
:102B280080B584B000AF03463960FB710023FB73A6
:102B3800FB79002B02D0012B07D07DE0FB79414ABD
:102B48000121D1540123FB7376E03F4B3F4A1A60C1
:102B58003D4A3B6853603C4B00229A603A4B002246
:102B6800DA60394B00221A61374B0C225A61364B16
:102B780000229A61344B0022DA614FF480723449A2
:102B88003448FEF7DCFC0023BB60334B1B6B324A36
:102B980043F400131363304B1B6B03F40013BB6047
:102BA800BB68002200210C2000F06FFB0C2000F015
:102BB80088FB254803F0A1FB0346002B02D1012323
:102BC800FB7301E00023FB73FB7B002B33D01E4813
:102BD80003F046FB0346002B02D00023FB732AE0D8
:102BE800FB79184A0121D1540123FB734FF48072F9
:102BF8001749154803F042FC0346002B01D0002377
:102C0800FB73FB79154A1B01134408331968144BED
:102C18001B685A68FB798A1A10491B010B441A6011
:102C2800FA79FB790D4912010A4412680B491B0114
:102C38000B4404331A6000BFFB7B18461037BD46AF
:102C480080BD00BFA4070020C8080020004800403D
:102C5800C8070020B807002000380240A807002055
:102C68000C09002080B584B000AF0346FB71002337
:102C7800FB60FB79002B02D0012B04D01BE007F08E
:102C8800D7F8F86017E0FB790D4A1B0113440833A5
:102C980019680C4B1B685A68FB798A1A08491B018A
:102CA8000B441A60FB791B01054A13441846FEF7CA
:102CB8009CFCF86000BFFB6818461037BD4680BD15
:102CC800A80700200C09002080B584B000AF034697
:102CD800FB710023FB73FB79002B02D0012B05D07D
:102CE8000FE007F0E5F80346FB730AE0FB791B01E8
:102CF800064A134407F10F0101221846FEF739FC72
:102D080000BFFB7B18461037BD4680BDA8070020D2
:102D180080B586B000AF0346B9607A60FB730023C4
:102D28007B61FB7B002B02D0012B06D014E0796875
:102D3800B86807F00FF978610EE07B689AB26423EF
:102D4800B968084803F008FB0346FB74FB7C002BBA
:102D580001D17B687B6100BF7B6918461837BD4687
:102D680080BD00BFC80800200EB480B5C7B000AF52
:102D7800024607F58C73A3F211131A7007F59472C3
:102D880007F58C73A3F586731A6007F58C73A3F5A2
:102D9800867307F110001B68D7F824214FF480715F
:102DA80009F0CCFDC7F81401D7F8142107F1100178
:102DB80007F58C73A3F211131B781846FFF7A8FFC9
:102DC800C7F81001D7F81031184607F58E77BD46B9
:102DD800BDE8804003B0704780B483B000AF78602E
:102DE80000BF0C37BD4680BC704780B483B000AFCD
:102DF800786000BF0C37BD4680BC704780B58AB08C
:102E080000AF786007F1140300221A605A609A60D4
:102E1800DA601A617B681B68354A934263D10023E4
:102E28003B61344B1B6C334A43F480231364314BAE
:102E38001B6C03F480233B613B690023FB602D4B33
:102E48001B6B2C4A43F0040313632A4B1B6B03F0E0
:102E58000403FB60FB684FF440637B610223BB61A2
:102E68000023FB6103233B6207237B6207F1140302
:102E78001946214801F084F9204B214A1A601F4B5A
:102E88004FF000625A601D4B00229A601B4B0022D3
:102E9800DA601A4B4FF480621A61184B00225A61AB
:102EA800164B00229A61154B4FF48072DA61134B6E
:102EB80000221A62114B00225A62104800F02AFAC6
:102EC8000346002B01D0FEF7DAF97B680B4A9A63B8
:102ED8000A4A7B68936300220021272000F0D5F975
:102EE800272000F0EEF900BF2837BD4680BD00BF9F
:102EF8000048004000380240000802400C09002049
:102F08002860024080B582B000AF78607B681B689B
:102F18000C4A934212D10C4B1B6C0B4A23F48023AE
:102F280013644FF44061094801F0C8FA7B689B6B51
:102F3800184600F09DFA272000F0D1F900BF0837A5
:102F4800BD4680BD004800400038024000080240ED
:102F580080B500AFFEF7C2F8FEF76AFBFFF7CEFCBC
:102F6800FFF7C4FDFEF758FBFFF748FB00BF80BD25
:102F780080B500AF0E4B1B680D4A43F40073136015
:102F88000B4B1B680A4A43F480631360084B1B68A9
:102F9800074A43F480731360032000F06BF90F2095
:102FA80000F008F8FEF770F90023184680BD00BF4E
:102FB800003C024080B582B000AF7860124B1A68BE
:102FC800124B1B7819464FF47A73B3FBF1F3B2FB3B
:102FD800F3F3184600F091F90346002B01D00123C2
:102FE8000EE07B680F2B0AD8002279684FF0FF307B
:102FF80000F04BF9064A7B681360002300E00123C8
:1030080018460837BD4680BD000000208C0000200F
:103018008800002080B400AF054B1B781A46054B8A
:103028001B681344034A136000BFBD4680BC704749
:103038008C0000206C09002080B400AF024B1B6894
:103048001846BD4680BC70476C09002080B584B026
:1030580000AF7860FFF7F0FFB8607B68FB60FB6843
:10306800B3F1FF3F05D00A4B1B781A46FB6813449F
:10307800FB6000BFFFF7E0FF0246BB68D31AFA689F
:103088009A42F7D800BF00BF1037BD4680BD00BFC9
:103098008C00002080B485B000AF78607B6803F0B6
:1030A8000703FB600C4BDB68BB60BA684FF6FF0395
:1030B8001340BB60FB681A02BB68134343F0BF634D
:1030C80043F40033BB60044ABB68D36000BF1437C5
:1030D800BD4680BC704700BF00ED00E080B400AF83
:1030E800044BDB681B0A03F007031846BD4680BC87
:1030F800704700BF00ED00E080B483B000AF034626
:10310800FB7197F90730002B0BDBFB7903F01F02EB
:10311800064997F907305B09012000FA02F241F8E5
:10312800232000BF0C37BD4680BC704700E100E09B
:1031380080B483B000AF0346FB7197F90730002BCA
:1031480012DBFB7903F01F020A4997F907305B0984
:10315800012000FA02F2203341F82320BFF34F8FF9
:1031680000BFBFF36F8F00BF00BF0C37BD4680BCE8
:10317800704700BF00E100E080B483B000AF0346B1
:103188003960FB7197F90730002B0ADB3B68DAB22C
:103198000C4997F907301201D2B20B4483F8002387
:1031A8000AE03B68DAB20849FB7903F00F03043BF5
:1031B8001201D2B20B441A7600BF0C37BD4680BC50
:1031C800704700BF00E100E000ED00E080B489B086
:1031D80000AFF860B9607A60FB6803F00703FB6131
:1031E800FB69C3F10703042B28BF0423BB61FB69F8
:1031F8000433062B02D9FB69033B00E000237B6103
:103208004FF0FF32BB6902FA03F3DA43BB681A4096
:103218007B699A404FF0FF317B6901FA03F3D94388
:103228007B680B40134318462437BD4680BC704763
:1032380080B582B000AF78607B68013BB3F1807FD6
:1032480001D301230FE00A4A7B68013B53600F2139
:103258004FF0FF30FFF790FF054B00229A60044BB8
:1032680007221A60002318460837BD4680BD00BFF4
:1032780010E000E080B582B000AF78607868FFF7B2
:1032880009FF00BF0837BD4680BD80B586B000AFD6
:103298000346B9607A60FB7300237B61FFF71EFF6A
:1032A80078617A68B9687869FFF790FF024697F9FC
:1032B8000F3011461846FFF75FFF00BF1837BD46AD
:1032C80080BD80B582B000AF0346FB7197F9073027
:1032D8001846FFF711FF00BF0837BD4680BD80B50F
:1032E80082B000AF0346FB7197F907301846FFF725
:1032F8001FFF00BF0837BD4680BD80B582B000AF54
:1033080078607868FFF794FF034618460837BD468B
:1033180080BD000080B586B000AF786000237B6177
:10332800FFF78AFE38617B68002B01D1012399E001
:103338007B68022283F835207B68002283F83420DA
:103348007B681B681A687B681B6822F001021A6098
:103358000FE0FFF771FE02463B69D31A052B08D927
:103368007B6820225A657B68032283F83520032373
:1033780078E07B681B681B6803F00103002BE8D129
:103388007B681B681B687B617A69384B13407B61DB
:103398007B685A687B689B681A437B68DB681A43BA
:1033A8007B681B691A437B685B691A437B689B6966
:1033B8001A437B68DB691A437B681B6A13437A6983
:1033C80013437B617B685B6A042B07D17B68DA6AED
:1033D8007B681B6B13437A6913437B617B681B68AB
:1033E8007A691A607B681B685B697B617B6923F07B
:1033F80007037B617B685B6A7A6913437B617B683F
:103408005B6A042B17D17B689B6A7A6913437B61DB
:103418007B68DB6A002B0ED0786800F05DFB034602
:10342800002B08D07B6840225A657B68012283F80C
:103438003520012316E07B681B687A695A61786831
:1034480000F016FB0346FB607B68DB6D3F229A4069
:10345800FB689A607B6800225A657B68012283F8C2
:103468003520002318461837BD4680BD3F8010F030
:1034780080B584B000AF78607B68002B01D1012350
:1034880050E07B6893F83530DBB2022B01D1022380
:1034980048E07B681B681A687B681B6822F0010299
:1034A8001A607B681B6800221A607B681B68002210
:1034B8005A607B681B6800229A607B681B68002240
:1034C800DA607B681B6800221A617B681B6821220E
:1034D8005A61786800F0CCFA0346FB607B680022EA
:1034E800DA637B6800221A647B6800225A647B686E
:1034F80000229A647B680022DA647B6800221A65DD
:103508007B68DB6D3F229A40FB689A607B680022EB
:103518005A657B68002283F835207B68002283F88F
:103528003420002318461037BD4680BD80B586B0CC
:1035380000AFF860B9607A603B600023FB75FB68F8
:103548009B6D3B61FB6893F83430012B01D102235A
:1035580040E0FB68012283F83420FB6893F835309B
:10356800DBB2012B2FD1FB68022283F83520FB68E0
:1035780000225A653B687A68B968F86800F04AFA28
:10358800FB68DB6D3F229A403B699A60FB681B68C9
:103598001A68FB681B6842F016021A60FB681B6C0D
:1035A800002B07D0FB681B681A68FB681B6842F091
:1035B80008021A60FB681B681A68FB681B6842F0FF
:1035C80001021A6005E0FB68002283F83420022318
:1035D800FB75FB7D18461837BD4680BD80B584B0A5
:1035E80000AF78607B689B6DFB60FFF725FDB860D6
:1035F8007B6893F83530DBB2022B08D07B688022D9
:103608005A657B68002283F83420012352E07B68E6
:103618001B681A687B681B6822F016021A607B68B0
:103628001B685A697B681B6822F080025A617B68B4
:103638001B6C002B03D17B689B6C002B07D07B682D
:103648001B681A687B681B6822F008021A607B688E
:103658001B681A687B681B6822F001021A6013E075
:10366800FFF7EAFC0246BB68D31A052B0CD97B6826
:1036780020225A657B68032283F835207B68002264
:1036880083F83420032315E07B681B681B6803F06C
:103698000103002BE4D17B68DB6D3F229A40FB6875
:1036A8009A607B68012283F835207B68002283F8C2
:1036B8003420002318461037BD4680BD80B483B03F
:1036C80000AF78607B6893F83530DBB2022B04D00A
:1036D8007B6880225A6501230CE07B68052283F809
:1036E80035207B681B681A687B681B6822F001021A
:1036F8001A60002318460C37BD4680BC704700008E
:1037080080B586B000AF78600023BB608E4B1B6825
:103718008E4AA2FB03239B0A7B617B689B6D3B61FE
:103728003B691B68FB607B68DB6D08229A40FB687D
:103738001340002B1AD07B681B681B6803F0040336
:10374800002B13D07B681B681A687B681B6822F003
:1037580004021A607B68DB6D08229A403B699A6014
:103768007B685B6D43F001027B685A657B68DB6DA3
:1037780001229A40FB681340002B12D07B681B681B
:103788005B6903F08003002B0BD07B68DB6D0122A3
:103798009A403B699A607B685B6D43F002027B68E4
:1037A8005A657B68DB6D04229A40FB681340002B46
:1037B80012D07B681B681B6803F00203002B0BD038
:1037C8007B68DB6D04229A403B699A607B685B6D7D
:1037D80043F004027B685A657B68DB6D10229A40CF
:1037E800FB681340002B43D07B681B681B6803F001
:1037F8000803002B3CD07B68DB6D10229A403B69A4
:103808009A607B681B681B6803F48023002B18D020
:103818007B681B681B6803F40023002B08D17B68B6
:103828001B6C002B24D07B681B6C786898471FE0C2
:103838007B689B6C002B1BD07B689B6C78689847D7
:1038480016E07B681B681B6803F48073002B07D1A4
:103858007B681B681A687B681B6822F008021A607C
:103868007B681B6C002B03D07B681B6C78689847BF
:103878007B68DB6D20229A40FB681340002B00F028
:103888008F807B681B681B6803F01003002B00F017
:1038980087807B68DB6D20229A403B699A607B6851
:1038A80093F83530DBB2052B36D17B681B681A6874
:1038B8007B681B6822F016021A607B681B685A69CD
:1038C8007B681B6822F080025A617B681B6C002BA6
:1038D80003D17B689B6C002B07D07B681B681A6838
:1038E8007B681B6822F008021A607B68DB6D3F2248
:1038F8009A403B699A607B68012283F835207B688F
:10390800002283F834207B681B6D002B7ED07B68F7
:103918001B6D7868984779E07B681B681B6803F41F
:103928008023002B1DD07B681B681B6803F40023D1
:10393800002B0DD17B685B6C002B31D07B685B6CF6
:10394800786898472CE000BF00000020B5814E1B26
:103958007B68DB6B002B23D07B68DB6B7868984730
:103968001EE07B681B681B6803F48073002B0FD173
:103978007B681B681A687B681B6822F010021A6053
:103988007B68012283F835207B68002283F8342085
:103998007B68DB6B002B03D07B68DB6B7868984710
:1039A8007B685B6D002B32D07B685B6D03F0010395
:1039B800002B22D07B68052283F835207B681B68A2
:1039C8001A687B681B6822F001021A60BB68013321
:1039D800BB607A699A4207D37B681B681B6803F04F
:1039E8000103002BF2D100E000BF7B68012283F8BD
:1039F80035207B68002283F834207B68DB6C002B41
:103A080005D07B68DB6C7868984700E000BF183702
:103A1800BD4680BD80B485B000AFF860B9607A60FB
:103A28003B60FB681B681A68FB681B6822F48022ED
:103A38001A60FB681B683A685A60FB689B68402BF1
:103A480008D1FB681B687A689A60FB681B68BA68CB
:103A5800DA6007E0FB681B68BA689A60FB681B6855
:103A68007A68DA6000BF1437BD4680BC7047000032
:103A780080B485B000AF78607B681B68DBB2103B10
:103A8800134AA2FB03231B09FB60124AFB68134479
:103A98001B781A467B68DA65FB68032B09D97B68B3
:103AA8001B6823F47F7323F003031A1D7B689A6550
:103AB80007E07B681B6823F47F7323F003037A68AD
:103AC80093657B689B6D18461437BD4680BC70476C
:103AD800ABAAAAAAACF8000880B485B000AF786099
:103AE8000023FB737B689B6ABB607B689B69002B28
:103AF8001FD1BB68032B56D801A252F823F000BF90
:103B0800193B00082B3B0008193B0008AF3B000895
:103B18007B68DB6A03F08073002B46D00123FB73BC
:103B280043E07B68DB6AB3F1C07F40D10123FB73BC
:103B38003DE07B689B69B3F5005F21D1BB68032B2F
:103B480037D801A252F823F0613B0008673B000810
:103B5800613B0008793B00080123FB7330E07B6878
:103B6800DB6A03F08073002B25D00123FB7322E06E
:103B78007B68DB6AB3F1C07F1FD10123FB731CE0B4
:103B8800BB68022B03D9BB68032B03D018E00123C1
:103B9800FB7315E07B68DB6A03F08073002B0ED0A3
:103BA8000123FB730BE000BF0AE000BF08E000BF81
:103BB80006E000BF04E000BF02E000BF00E000BF75
:103BC800FB7B18461437BD4680BC704780B586B06D
:103BD80000AFF860B960C7E900230123FB75234BE8
:103BE8001B7E012B01D102233BE0204B01221A76D8
:103BF8004CF2503000F070F80346FB75FB7D002B4B
:103C08002BD1FB68002B05D13B781946B86800F02A
:103C180019F916E0FB68012B05D13B881946B868ED
:103C280000F0EEF80DE0FB68022B05D13B68194661
:103C3800B86800F0C3F804E0D7E90023B86800F0DA
:103C48008BF84CF2503000F047F80346FB75084BF0
:103C58001B69074A23F001031361044B00221A76FB
:103C6800FB7D18461837BD4680BD00BF700900208F
:103C7800003C024080B483B000AF0023FB710B4BC3
:103C88001B69002B0BDA094B094A5A60074B094A92
:103C98005A60064B1B69002B01DA0123FB71FB7983
:103CA80018460C37BD4680BC704700BF003C024038
:103CB80023016745AB89EFCD80B400AF054B1B6985
:103CC800044A43F00043136100231846BD4680BCF4
:103CD800704700BF003C024080B584B000AF7860F8
:103CE8000023FB601A4B0022DA61FFF7A5F9F860A0
:103CF80010E07B68B3F1FF3F0CD07B68002B07D046
:103D0800FFF79AF90246FB68D31A7A689A4201D2F9
:103D1800032319E00F4BDB6803F48033002BE8D151
:103D28000C4BDB6803F00103002B02D0094B012286
:103D3800DA60084BDB6803F0F203002B03D000F0D5
:103D4800A1F8012300E0002318461037BD4680BDC6
:103D580070090020003C024080B485B000AFF860D4
:103D6800C7E90023144B1B69134A23F440731361FA
:103D7800114B1B69104A43F4407313610E4B1B69C6
:103D88000D4A43F001031361FB683A681A60BFF3F8
:103D98006F8F00BFD7E900014FF000024FF000031A
:103DA8000A000023F968043113460B6000BF14377A
:103DB800BD4680BC704700BF003C024080B483B061
:103DC80000AF786039600D4B1B690C4A23F44073CF
:103DD80013610A4B1B69094A43F400731361074BCB
:103DE8001B69064A43F0010313617B683A681A604D
:103DF80000BF0C37BD4680BC704700BF003C024086
:103E080080B483B000AF78600B467B800C4B1B6995
:103E18000B4A23F440731361094B1B69084A43F4A6
:103E280080731361064B1B69054A43F00103136154
:103E38007B687A881A8000BF0C37BD4680BC704703
:103E4800003C024080B483B000AF78600B46FB7042
:103E58000B4B1B690A4A23F440731361084B084A49
:103E68001B691361064B1B69054A43F00103136183
:103E78007B68FA781A7000BF0C37BD4680BC704763
:103E8800003C024080B400AF274BDB6803F010030E
:103E9800002B08D0254BDB6943F00803234AD36184
:103EA800214B1022DA60204BDB6803F02003002B43
:103EB80008D01E4BDB6943F004031C4AD3611A4B3C
:103EC8002022DA60184BDB6803F04003002B08D08F
:103ED800164BDB6943F00203144AD361124B4022AC
:103EE800DA60114BDB6803F08003002B08D00F4B1E
:103EF800DB6943F001030D4AD3610B4B8022DA6082
:103F0800094BDB6803F00203002B08D0074BDB6981
:103F180043F01003054AD361034B0222DA6000BF65
:103F2800BD4680BC704700BF003C024070090020BD
:103F380080B584B000AF786039600123FB7300233B
:103F4800BB60314B1B7E012B01D1022358E02E4B65
:103F580001221A764CF25030FFF7BEFE0346FB737F
:103F6800FB7B002B48D13B684FF0FF321A607B681F
:103F78001B68012B15D17B681B69DAB27B685B680B
:103F88001946104600F0DAF84CF25030FFF7A4FE5C
:103F98000346FB731D4B1B691C4A23F00403136182
:103FA80028E07B689B68BB601CE07B681B69DBB210
:103FB8001946B86800F02CF84CF25030FFF78CFE28
:103FC8000346FB73114B1B69104A23F0FA03136174
:103FD800FB7B002B03D03B68BA681A600AE0BB6819
:103FE8000133BB607B68DA687B689B681344BA68F6
:103FF8009A42DAD300F05EF8034B00221A76FB7B74
:1040080018461037BD4680BD70090020003C0240AC
:1040180080B487B000AF78600B46FB7000237B61EB
:10402800FB78002B02D100237B6110E0FB78012B89
:1040380003D14FF480737B6109E0FB78022B03D135
:104048004FF400737B6102E04FF440737B61184BBF
:104058001B69174A23F440731361154B1A691449F5
:104068007B6913430B61124B1B69114A23F0F80358
:104078001361F8233B613B6993FAA3F3FB60FB6888
:10408800B3FA83F3DBB21A467B68934043F002022B
:10409800074B1B69064913430B61054B1B69044A0F
:1040A80043F48033136100BF1C37BD4680BC7047A2
:1040B800003C024080B400AF1F4B1B6803F4007340
:1040C800002B17D01C4B1B681B4A23F4007313608A
:1040D800194B1B68184A43F400631360164B1B689E
:1040E800154A23F400631360134B1B68124A43F408
:1040F80000731360104B1B6803F48063002B17D008
:104108000D4B1B680C4A23F4806313600A4B1B6831
:10411800094A43F480531360074B1B68064A23F48B
:1041280080531360044B1B68034A43F48063136095
:1041380000BFBD4680BC7047003C024080B483B0DD
:1041480000AF03463960FB710C4B1B690B4A23F423
:1041580040731361094B1B69084A43F00403136158
:10416800064B1A69FB791B021343044A43F4803354
:10417800136100BF0C37BD4680BC7047003C02404D
:1041880080B487B000AF7860396000237B616FE14D
:104198003B681A6801217B6901FA03F31340FB604D
:1041A800FB68002B00F061813B685B6803F0030348
:1041B800012B05D03B685B6803F00303022B30D169
:1041C8007B689B683B617B695B00032202FA03F30F
:1041D800DB433A6913403B613B68DA687B695B0003
:1041E80002FA03F33A6913433B617B683A699A60C0
:1041F8007B685B683B6101227B6902FA03F3DB435E
:104208003A6913403B613B685B681B0903F0010294
:104218007B6902FA03F33A6913433B617B683A69A5
:104228005A603B685B6803F00303032B17D07B6875
:10423800DB683B617B695B00032202FA03F3DB4323
:104248003A6913403B613B689A687B695B0002FAF4
:1042580003F33A6913433B617B683A69DA603B6868
:104268005B6803F00303022B23D17B69DA087B68C0
:10427800083253F822303B617B6903F007039B0047
:104288000F2202FA03F3DB433A6913403B613B68B0
:104298001A697B6903F007039B0002FA03F33A6982
:1042A80013433B617B69DA087B680832396943F854
:1042B80022107B681B683B617B695B00032202FA62
:1042C80003F3DB433A6913403B613B685B6803F0E7
:1042D80003027B695B0002FA03F33A6913433B610B
:1042E8007B683A691A603B685B6803F44033002BCB
:1042F80000F0BB800023BB60644B5B6C634A43F4F3
:1043080080435364614B5B6C03F48043BB60BB68C0
:104318005F4A7B699B08023352F823303B617B6913
:1043280003F003039B000F2202FA03F3DB433A690D
:1043380013403B617B68574A934231D07B68564AA9
:1043480093422BD07B68554A934225D07B68544AC8
:1043580093421FD07B68534A934219D07B68524AD4
:10436800934213D07B68514A93420DD07B68504AE0
:10437800934207D07B684F4A934201D1082310E04B
:1043880009230EE007230CE006230AE0052308E0D2
:10439800042306E0032304E0022302E0012300E0F3
:1043A80000237A6902F00302920093401A463B699F
:1043B80013433B6136497B699B0802333A6941F8EC
:1043C80023203D4B1B683B61FB68DB433A69134084
:1043D8003B613B685B6803F48033002B03D03A6988
:1043E800FB6813433B61344A3B691360324B5B689B
:1043F8003B61FB68DB433A6913403B613B685B68A0
:1044080003F40033002B03D03A69FB6813433B6184
:10441800294A3B695360284B9B683B61FB68DB4337
:104428003A6913403B613B685B6803F48013002BD7
:1044380003D03A69FB6813433B611F4A3B699360A9
:104448001D4BDB683B61FB68DB433A6913403B610A
:104458003B685B6803F40013002B03D03A69FB68E0
:1044680013433B61144A3B69D3607B6901337B6129
:104478003B681A687B6922FA03F3002B7FF488AE45
:1044880000BF00BF1C37BD4680BC704700380240E3
:1044980000380140000002400004024000080240C9
:1044A800000C0240001002400014024000180240B4
:1044B800001C024000200240003C014080B487B04C
:1044C80000AF7860396000237B61D1E001227B690D
:1044D80002FA03F33A6813403B613B69002B00F092
:1044E800C4806A4A7B699B08023352F82330FB6018
:1044F8007B6903F003039B000F2202FA03F3FA68B7
:104508001340FB607B68624A934231D07B68614A02
:1045180093422BD07B68604A934225D07B685F4AE0
:1045280093421FD07B685E4A934219D07B685D4AEC
:10453800934213D07B685C4A93420DD07B685B4AF8
:10454800934207D07B685A4A934201D1082310E06E
:1045580009230EE007230CE006230AE0052308E000
:10456800042306E0032304E0022302E0012300E021
:1045780000237A6902F00302920003FA02F2FB6850
:104588009A4232D14B4B1A683B69DB434949134085
:104598000B60484B5A683B69DB43464913404B6004
:1045A800444B9A683B69DB43424913408B60414B5B
:1045B800DA683B69DB433F491340CB607B6903F012
:1045C80003039B000F2202FA03F3FB602F4A7B6967
:1045D8009B08023352F82310FB68DA432B487B69A7
:1045E8009B080A40023340F823207B681A687B69DD
:1045F8005B00032101FA03F3DB431A407B681A606E
:104608007B69DA087B68083253F822107B6903F06B
:1046180007039B000F2202FA03F3DB437A69D208EF
:1046280019407B68083243F822107B68DA687B6996
:104638005B00032101FA03F3DB431A407B68DA606D
:104648007B685A6801217B6901FA03F3DB431A404E
:104658007B685A607B689A687B695B00032101FA72
:1046680003F3DB431A407B689A607B6901337B6103
:104678003A687B6922FA03F3002B7FF427AF00BF67
:1046880000BF1C37BD4680BC704700BF00380140E2
:10469800000002400004024000080240000C0240F2
:1046A800001002400014024000180240001C0240A2
:1046B80000200240003C014080B483B000AF786025
:1046C8000B467B8013467B707B78002B03D07A885F
:1046D8007B689A6103E07B881A047B689A6100BF53
:1046E8000C37BD4680BC704780B485B000AF786099
:1046F8000B467B807B685B69FB607A88FB681340AC
:104708001A04FB68D9437B880B401A437B689A617B
:1047180000BF1437BD4680BC7047F0B58FB00AAFF4
:1047280078607B68002B01D101230FE17B681B684F
:10473800BB607B6893F8BD33DBB2002B06D17B6886
:10474800002283F8BC23786805F070FE7B6803229A
:1047580083F8BD23BB68DB6B03F48073002B02D1A5
:104768007B6800221A617B681B68184602F038FDD6
:104778007B681B683B607E686D4606F110040FCCB1
:104788000FC50FCC0FC594E8030085E80300331D5F
:104798000ECB386802F01AFC0346002B05D07B6864
:1047A800022283F8BD230123D0E07B681B68002127
:1047B800184602F025FD0023FB734AE0FA7B79686E
:1047C8001346DB009B1A9B000B443D3301221A70F1
:1047D800FA7B79681346DB009B1A9B000B443C3339
:1047E800FA7B1A70FA7BFB7B98B279681346DB0078
:1047F8009B1A9B000B44423302461A80FA7B796865
:104808001346DB009B1A9B000B443F3300221A70AF
:10481800FA7B79681346DB009B1A9B000B444433F0
:1048280000221A60FA7B79681346DB009B1A9B000A
:104838000B44483300221A60FA7B79681346DB0080
:104848009B1A9B000B44503300221A60FB7B0133F8
:10485800FB73FA7B7B685B689A42AFD30023FB73D8
:1048680044E0FA7B79681346DB009B1A9B000B44F3
:1048780003F2FD1300221A70FA7B79681346DB00F5
:104888009B1A9B000B4403F5FE73FA7B1A70FA7BA4
:1048980079681346DB009B1A9B000B4403F2FF1355
:1048A80000221A70FA7B79681346DB009B1A9B007A
:1048B8000B4403F5017300221A60FA7B79681346EA
:1048C800DB009B1A9B000B4403F5027300221A605D
:1048D800FA7B79681346DB009B1A9B000B4403F5AF
:1048E800047300221A60FB7B0133FB73FA7B7B683D
:1048F8005B689A42B5D37B681B683B607E686D46EF
:1049080006F110040FCC0FC50FCC0FC594E80300B7
:1049180085E80300331D0ECB386802F0BDFC034662
:10492800002B05D07B68022283F8BD2301230DE00C
:104938007B68002283F838207B68012283F8BD2336
:104948007B681B68184603F02EFD002318461437B1
:10495800BD46F0BD80B582B000AF78607B6893F843
:10496800BC33012B01D1022312E07B68012283F8BA
:10497800BC237B681B68184602F022FC7B681B6816
:10498800184603F0F0FC7B68002283F8BC23002360
:1049980018460837BD4680BD90B58DB000AF786029
:1049A8007B681B683B623B6AFB617B681B68184637
:1049B80003F0A7FD0346002B40F08F837B681B683C
:1049C800184603F010FD0346002B00F085837B6832
:1049D8001B68184603F007FD034603F00203022B89
:1049E80007D17B681B685A697B681B6802F0020262
:1049F8005A617B681B68184603F0F5FC034603F010
:104A08001003102B61D17B681B689A697B681B684F
:104A180022F010029A613B6A1B6ABB61BB6903F012
:104A28000F021346DB009B1A9B0003F5FC737A68A0
:104A3800134404337B61BB695B0C03F00F03022B47
:104A480024D1BA6947F6F0731340002B35D07B693F
:104A5800D968BB691B099BB2C3F30A039BB21A4608
:104A6800386A03F032FB7B69DA68BB691B09C3F358
:104A78000A031A447B69DA607B699A69BB691B0976
:104A8800C3F30A031A447B699A6116E0BB695B0C9D
:104A980003F00F03062B10D17B6803F5717308220E
:104AA8001946386A03F011FB7B699A69BB691B09CF
:104AB800C3F30A031A447B699A617B681B689A6985
:104AC8007B681B6842F010029A617B681B68184675
:104AD80003F089FC034603F40023B3F5002F6ED1DD
:104AE80000237B627B681B68184603F08EFCB86263
:104AF80062E0BB6A03F00103002B57D07B681B6898
:104B08007A6AD2B21146184603F0B1FC38613B69A3
:104B180003F00103002B0CD07B6A5A01FB69134494
:104B280003F530631A4601239360796A786800F0C8
:104B3800A1FD3B6903F00803002B0CD07B6A5A01E6
:104B4800FB69134403F530631A4608239360796AB6
:104B5800786800F09BFE3B6903F01003002B08D037
:104B68007B6A5A01FB69134403F530631A46102324
:104B780093603B6903F02003002B08D07B6A5A013D
:104B8800FB69134403F530631A46202393603B699D
:104B980003F40053002B09D07B6A5A01FB691344C4
:104BA80003F530631A464FF4005393607B6A013370
:104BB8007B62BB6A5B08BB62BB6A002B99D17B68CE
:104BC8001B68184603F00FFC034603F48023B3F573
:104BD800802F40F0C0807B681B68184603F02EFCCD
:104BE800B86200237B62B2E0BB6A03F00103002BCA
:104BF80000F0A7807B681B687A6AD2B21146184613
:104C080003F052FC38613B6903F00103002B57D0D5
:104C18007B6A03F00F03012202FA03F3FB60FB69CE
:104C280003F500635A6BFB68DB43F96901F5006122
:104C380013404B637B6A5A01FB69134403F5106305
:104C48001A46012393607B681B69012B32D179686E
:104C58007A6A1346DB009B1A9B000B444833196899
:104C680078687A6A1346DB009B1A9B000344443336
:104C78001B68194478687A6A1346DB009B1A9B0004
:104C88000344483319607B6A002B13D179687A6A28
:104C98001346DB009B1A9B000B4450331B68002B08
:104CA80008D17B6818687B6803F571731A4601217F
:104CB80003F056FC7B6ADBB21946786805F037FCCE
:104CC8003B6903F00803002B08D07B6A5A01FB6993
:104CD800134403F510631A46082393603B6903F0F5
:104CE8001003002B08D07B6A5A01FB69134403F5B3
:104CF80010631A46102393603B6903F04003002BAE
:104D080008D07B6A5A01FB69134403F510631A46FD
:104D1800402393603B6903F00203002B08D07B6AB1
:104D28005A01FB69134403F510631A460223936082
:104D38003B6903F08003002B03D0796A786800F0A0
:104D48000CFC7B6A01337B62BB6A5B08BB62BB6A93
:104D5800002B7FF449AF7B681B68184603F043FBC0
:104D6800034603F00043B3F1004F14D1FB6903F588
:104D780000635B68FA6902F5006223F0010353607F
:104D8800786805F04BFC7B681B685A697B681B6870
:104D980002F000425A617B681B68184603F023FB47
:104DA800034603F40063B3F5006F12D1FB6903F502
:104DB80000639B6803F00103012B02D1786805F0BA
:104DC80007FC7B681B685A697B681B6802F40062F1
:104DD8005A617B681B68184603F005FB034603F419
:104DE8008053B3F5805F40F0C780FB6903F500632B
:104DF8005B68FA6902F5006223F0010353607B687F
:104E08001B681021184602F0ABFB0023FB6256E03A
:104E1800FB6A5A01FB69134403F510631A464FF6FF
:104E28007F339360FB6A5A01FB69134403F51063EF
:104E38001B68FA6A5101FA690A4402F5106223F400
:104E480000131360FB6A5A01FB69134403F51063EE
:104E58001B68FA6A5101FA690A4402F5106243F0C4
:104E680000631360FB6A5A01FB69134403F530635E
:104E78001A464FF67F339360FB6A5A01FB69134465
:104E880003F530631B68FA6A5101FA690A4402F5AE
:104E9800306223F400131360FB6A5A01FB69134460
:104EA80003F530631B68FA6A5101FA690A4402F58E
:104EB800306243F000631360FB6A0133FB627B6876
:104EC8005B68FA6A9A42A3D3FB6903F50063DB695E
:104ED800FA6902F5006243F00113D3617B681B6B2A
:104EE800002B16D0FB6903F50063D3F88430FA6908
:104EF80002F5006243F00B03C2F88430FB6903F546
:104F080000635B6CFA6902F5006243F00B035364BB
:104F180015E0FB6903F500635B69FA6902F5006255
:104F280043F4005343F02B035361FB6903F500631B
:104F38001B69FA6902F5006243F00B031361FB6910
:104F480003F500631B68FA6902F5006223F4FE6347
:104F580013607B6818687B681B69D9B27B6803F5A6
:104F680071731A4603F0FCFA7B681B685A697B6800
:104F78001B6802F480525A617B681B68184603F06C
:104F880032FA034603F40053B3F5005F24D17B687B
:104F98001B68184603F0C2FA7B681B68184602F0C3
:104FA8003BFB03461A467B68DA607B681C6801F0A5
:104FB80009F901467B68DB68DBB21A46204602F035
:104FC8005DF8786805F0DBFA7B681B685A697B68CE
:104FD8001B6802F400525A617B681B68184603F08C
:104FE80002FA034603F00803082B0AD1786805F093
:104FF800B8FA7B681B685A697B681B6802F008026C
:105008005A617B681B68184603F0EDF9034603F400
:105018008013B3F5801F0FD100237B627B6ADBB25C
:105028001946786805F01AFB7B681B685A697B6823
:105038001B6802F480125A617B681B68184603F0EB
:10504800D2F9034603F40013B3F5001F0FD1002370
:105058007B627B6ADBB21946786805F0EDFA7B68FB
:105068001B685A697B681B6802F400125A617B68E6
:105078001B68184603F0B7F9034603F08043B3F101
:10508800804F0AD1786805F0FBFA7B681B685A697B
:105098007B681B6802F080425A617B681B6818466F
:1050A80003F0A1F9034603F00403042B15D17B6830
:1050B8001B685B68BB61BB6903F00403002B02D06B
:1050C800786805F0EBFA7B681B6859687B681B6891
:1050D800BA690A435A6000E000BF3437BD4690BD44
:1050E80080B582B000AF78600B46FB707B6893F8A0
:1050F800BC33012B01D1022313E07B68012283F822
:10510800BC237B68FA7883F838207B681B68FA78B8
:105118001146184603F002F97B68002283F8BC2385
:10512800002318460837BD4680BD80B584B000AF5F
:105138007860084611461A460346FB700B463B80CA
:105148001346BB700023FB7297F90330002B0FDA6C
:10515800FB7803F00F021346DB009B1A9B003833E1
:105168007A6813440433FB60FB6801225A700FE02D
:10517800FB7803F00F021346DB009B1A9B0003F534
:10518800FC737A6813440433FB60FB6800225A708E
:10519800FB7803F00F03DAB2FB681A703A88FB68F1
:1051A8009A60FB68BA78DA70FB685B78002B04D0E9
:1051B800FB681B789AB2FB68DA80BB78022B02D1B5
:1051C800FB6800221A717B6893F8BC33012B01D16C
:1051D80002230EE07B68012283F8BC237B681B68EE
:1051E800F968184602F03CFA7B68002283F8BC2371
:1051F800FB7A18461037BD4680BD80B584B000AF35
:1052080078600B46FB7097F90330002B0FDAFB78B8
:1052180003F00F021346DB009B1A9B0038337A68B1
:1052280013440433FB60FB6801225A700FE0FB78DB
:1052380003F00F021346DB009B1A9B0003F5FC7377
:105248007A6813440433FB60FB6800225A70FB78C9
:1052580003F00F03DAB2FB681A707B6893F8BC336B
:10526800012B01D102230EE07B68012283F8BC23C5
:105278007B681B68F968184602F078FA7B68002298
:1052880083F8BC23002318461037BD4680BD80B57F
:1052980086B000AFF8607A603B600B46FB72FB7A21
:1052A80003F00F021346DB009B1A9B0003F5FC7307
:1052B800FA68134404337B617B697A68DA607B6936
:1052C8003A685A617B6900229A617B6900225A70A8
:1052D800FB7A03F00F03DAB27B691A70FB681B696B
:1052E800012B02D17A687B691A61FB7A03F00F03FC
:1052F800002B09D1FB681868FB681B69DBB21A46EA
:10530800796902F053FD08E0FB681868FB681B69BF
:10531800DBB21A46796902F005FB002318461837F4
:10532800BD4680BD80B483B000AF78600B46FB708B
:10533800FB7803F00F0279681346DB009B1A9B0089
:105348000B4403F505731B6818460C37BD4680BC33
:10535800704780B586B000AFF8607A603B600B4656
:10536800FB72FB7A03F00F021346DB009B1A9B00CB
:105378003833FA68134404337B617B697A68DA60EE
:105388007B693A685A617B6900229A617B690122CC
:105398005A70FB7A03F00F03DAB27B691A70FB6864
:1053A8001B69012B02D17A687B691A61FB7A03F0C9
:1053B8000F03002B09D1FB681868FB681B69DBB277
:1053C8001A46796902F0F2FC08E0FB681868FB6885
:1053D8001B69DBB21A46796902F0A4FA0023184661
:1053E8001837BD4680BD80B584B000AF78600B46E5
:1053F800FB70FB7803F00F027B685B689A4201D967
:10540800012350E097F90330002B0FDAFB7803F003
:105418000F021346DB009B1A9B0038337A6813444B
:105428000433FB60FB6801225A700DE0FA781346DA
:10543800DB009B1A9B0003F5FC737A681344043362
:10544800FB60FB6800225A70FB6801229A70FB78A7
:1054580003F00F03DAB2FB681A707B6893F8BC3369
:10546800012B01D102231EE07B68012283F8BC23B3
:105478007B681B68F968184602F07EFEFB7803F02B
:105488000F03002B0AD17B6818687B681B69D9B2A7
:105498007B6803F571731A4603F062F87B68002293
:1054A80083F8BC23002318461037BD4680BD80B55D
:1054B80084B000AF78600B46FB70FB7803F00F02F6
:1054C8007B685B689A4201D9012342E097F903306F
:1054D800002B0FDAFB7803F00F021346DB009B1A50
:1054E8009B0038337A6813440433FB60FB6801225D
:1054F8005A700FE0FB7803F00F021346DB009B1A8B
:105508009B0003F5FC737A6813440433FB60FB6863
:1055180000225A70FB6800229A70FB7803F00F0390
:10552800DAB2FB681A707B6893F8BC33012B01D19F
:1055380002230EE07B68012283F8BC237B681B688A
:10554800F968184602F085FE7B68002283F8BC23C0
:10555800002318461037BD4680BD80B58AB002AF1B
:10556800786039607B681B687B617B693B613A685E
:105578001346DB009B1A9B0038337A6813440433C4
:10558800FB60FB689A69FB685B699A4201D9012351
:105598006CE0FB685A69FB689B69D31AFB61FB687E
:1055A8009B68FA699A4202D9FB689B68FB61FB69B0
:1055B80003339B08BB612BE0FB685A69FB689B6956
:1055C800D31AFB61FB689B68FA699A4202D9FB68A7
:1055D8009B68FB61FB6903339B08BB61FB68D96867
:1055E8003B68DAB2FB6998B27B681B69DBB200934F
:1055F8000346786902F02CFDFB68DA68FB691A44F7
:10560800FB68DA60FB689A69FB691A44FB689A616F
:105618003B685A013B69134403F510639B699BB2CD
:10562800BA699A4209D8FB689A69FB685B699A4229
:1056380003D2FB685B69002BBED1FB685A69FB6823
:105648009B699A4211D83B6803F00F03012202FAC2
:1056580003F3BB603B6903F500635A6BBB68DB432C
:10566800396901F5006113404B6300231846203760
:10567800BD4680BD80B586B000AF786039607B6874
:105688001B687B617B693B617B693C3304331B6826
:10569800FB603B685A013B69134403F530639B6820
:1056A800BB607B681B69012B40F0A080BB6803F0DE
:1056B8000803002B15D0FB68724A934240F2DD8044
:1056C800BB6803F40043002B00F0D7803B685A0105
:1056D8003B69134403F530631A464FF40043936063
:1056E800CBE0BB6803F02003002B09D03B685A01CC
:1056F8003B69134403F530631A4620239360BCE0EA
:10570800BB6803F02803002B40F0B780FB685D4AB4
:1057180093420FD9BB6803F40043002B0AD03B68BF
:105728005A013B69134403F530631A464FF40043AA
:105738009360A2E079683A681346DB009B1A9B00E5
:105748000B4403F501731A683B6859013B690B4424
:1057580003F530631B69C3F31203D11A78683A68FA
:105768001346DB009B1A9B00034403F5057319607D
:1057780079683A681346DB009B1A9B000B4403F5D3
:105788000273196878683A681346DB009B1A9B0015
:10579800034403F501731B68194478683A68134693
:1057A800DB009B1A9B00034403F5027319603B68F6
:1057B800002B14D179683A681346DB009B1A9B00CA
:1057C8000B4403F504731B68002B08D17B68186829
:1057D8007B6803F571731A46012102F0C1FE3B682C
:1057E800DBB21946786804F087FE46E0FB68264A73
:1057F800934224D1BB6803F40043002B0AD03B68D2
:105808005A013B69134403F530631A464FF40043C9
:10581800936032E0BB6803F02003002B08D03B689C
:105828005A013B69134403F530631A4620239360F9
:105838003B68DBB21946786804F05EFE1DE03B6801
:10584800002B14D179683A681346DB009B1A9B0039
:105858000B4403F504731B68002B08D17B68186898
:105868007B6803F571731A46002102F079FE3B68E4
:10587800DBB21946786804F03FFE00231846183753
:10588800BD4680BD0A30544F0A31544F80B586B0AA
:1058980000AF786039607B681B687B617B693B611E
:1058A8007B693C3304331B68FB603B685A013B69E6
:1058B800134403F530639B68BB60FB68154A934249
:1058C8000ED9BB6803F40043002B09D03B685A018A
:1058D8003B69134403F530631A464FF40043936061
:1058E800786804F0F7FDFB680A4A93420CD97B6894
:1058F8001B69012B08D17B6818687B6803F57173F5
:105908001A46012102F02CFE002318461837BD461E
:1059180080BD00BF0A30544F80B485B000AF7860B6
:105928000B46FB7013463B807B681B685B6ABB6059
:10593800FB78002B07D13B8819047B681B68BA6881
:105948000A439A6228E07B681B689B6A1B0CBA684A
:105958001344BB600023FB730DE07B681A68FB7B74
:1059680040339B0013445B681B0CBA681344BB604C
:10597800FB7B0133FB73FA7BFB78013B9A42ECD348
:105988003B8818047B681968FB78013BBA680243B6
:1059980040339B000B445A60002318461437BD4619
:1059A80080BC704780B483B000AF78600B467B80C2
:1059B8007B681B687A885A62002318460C37BD46F4
:1059C80080BC704780B58AB000AF78607B68002BD8
:1059D80001D1012336E27B681B6803F00103002B29
:1059E80050D09E4B9B6803F00C03042B0CD09B4BB0
:1059F8009B6803F00C03082B12D1984B5B6803F4E7
:105A08008003B3F5800F0BD1944B1B6803F400336C
:105A1800002B36D07B685B68002B32D1012311E262
:105A28007B685A688E4BD2B21A707B685B68002B11
:105A380013D0FDF701FB386208E0FDF7FDFA0246D6
:105A48003B6AD31A642B01D90323FBE1834B1B6800
:105A580003F40033002BF0D014E0FDF7EDFA3862C0
:105A680008E0FDF7E9FA02463B6AD31A642B01D92C
:105A78000323E7E1794B1B6803F40033002BF0D1D3
:105A880000E000BF7B681B6803F00203002B77D09F
:105A9800724B9B6803F00C03002B0BD06F4B9B6879
:105AA80003F00C03082B26D16C4B5B6803F48003CE
:105AB800002B20D1694B1B6803F00203002B05D093
:105AC8007B68DB68012B01D00123BBE1634B1B68BA
