:020000040800F2
:1000000000000220851400086D1200087312000819
:10001000791200087F120008851200080000000015
:100020000000000000000000000000008B1200082B
:100030009712000800000000A3120008AF12000889
:10004000D5140008D5140008D5140008D5140008EC
:10005000D5140008D5140008D5140008D5140008DC
:10006000D5140008D5140008D5140008D5140008CC
:10007000BD120008D5140008D5140008D5140008D6
:10008000D5140008D5140008D5140008D5140008AC
:10009000D5140008D5140008D5140008D51400089C
:1000A000D5140008D5140008D5140008D51400088C
:1000B000D5140008D5140008D5140008D51400087C
:1000C000D5140008D5140008D5140008D51400086C
:1000D000D5140008D5140008D5140008D112000862
:1000E000D5140008D5140008D5140008D51400084C
:1000F000D5140008D5140008D5140008D51400083C
:10010000D5140008D5140008D5140008D51400082B
:10011000D5140008D5140008D5140008D51400081B
:10012000D5140008D5140008D5140008D51400080B
:10013000D5140008D5140008D5140008D5140008FB
:10014000D5140008D5140008D5140008E5120008DD
:10015000D5140008D5140008D5140008D5140008DB
:10016000D5140008D5140008D5140008D5140008CB
:10017000D5140008D5140008D514000800000000AC
:04018000D51400088A
:1001880010B5054C237833B9044B13B10448AFF3C9
:1001980000800123237010BD7C03002000000000B4
:1001A80044D9000808B5034B1BB103490348AFF312
:1001B800008008BD000000008003002044D900082A
:1001C800034613F8012B002AFBD1181A013870478F
:1001D80081F0004102E000BF83F0004330B54FEAF0
:1001E80041044FEA430594EA050F08BF90EA020F5D
:1001F8001FBF54EA000C55EA020C7FEA645C7FEAF0
:10020800655C00F0E2804FEA5454D4EB5555B8BF12
:100218006D420CDD2C4480EA020281EA030382EA83
:10022800000083EA010180EA020281EA0303362D15
:1002380088BF30BD11F0004F4FEA01314FF4801CE8
:100248004CEA113102D0404261EB410113F0004FFA
:100258004FEA03334CEA133302D0524263EB4303B1
:1002680094EA050F00F0A780A4F10104D5F1200E4F
:100278000DDB02FA0EFC22FA05F2801841F10001AA
:1002880003FA0EF2801843FA05F359410EE0A5F17E
:1002980020050EF1200E012A03FA0EFC28BF4CF0AF
:1002A800020C43FA05F3C01851EBE37101F0004565
:1002B80007D54FF0000EDCF1000C7EEB00006EEB72
:1002C8000101B1F5801F1BD3B1F5001F0CD34908FC
:1002D8005FEA30004FEA3C0C04F101044FEA445253
:1002E80012F5800F80F09A80BCF1004F08BF5FEADA
:1002F800500C50F1000041EB045141EA050130BDBA
:100308005FEA4C0C404141EB0101013C28BFB1F5CB
:10031800801FE9D291F0000F04BF01460020B1FA16
:1003280081F308BF2033A3F10B03B3F120020CDAE9
:100338000C3208DD02F1140CC2F10C0201FA0CF0C7
:1003480021FA02F10CE002F11402D8BFC2F1200C2C
:1003580001FA02F120FA0CFCDCBF41EA0C019040E2
:10036800E41AA2BF01EB0451294330BD6FEA04042B
:100378001F3C1CDA0C340EDC04F11404C4F1200216
:1003880020FA04F001FA02F340EA030021FA04F328
:1003980045EA030130BDC4F10C04C4F1200220FA7F
:1003A80002F001FA04F340EA0300294630BD21FABD
:1003B80004F0294630BD94F0000F83F4801306BF83
:1003C80081F480110134013D4EE77FEA645C18BF77
:1003D8007FEA655C29D094EA050F08BF90EA020F0E
:1003E80005D054EA000C04BF1946104630BD91EA06
:1003F800030F1EBF0021002030BD5FEA545C05D109
:100408004000494128BF41F0004130BD14F5800447
:100418003CBF01F5801130BD01F0004545F0FE41BB
:1004280041F470014FF0000030BD7FEA645C1ABFF0
:10043800194610467FEA655C1CBF0B46024650EA27
:10044800013406BF52EA033591EA030F41F4002153
:1004580030BD00BF90F0000F04BF0021704730B5D9
:100468004FF4806404F132044FF000054FF00001AE
:1004780050E700BF90F0000F04BF0021704730B56F
:100488004FF4806404F1320410F0004548BF404244
:100498004FF000013EE700BF42004FEAE2014FEA99
:1004A80031014FEA02701FBF12F07F4393F07F4F74
:1004B80081F06051704732F07F4208BF704793F077
:1004C8007F4F04BF41F40021704730B54FF460748A
:1004D80001F0004521F000411CE700BF50EA01028D
:1004E80008BF704730B54FF000050AE050EA010236
:1004F80008BF704730B511F0004502D5404261EBA6
:1005080041014FF4806404F132045FEA915C3FF4E6
:10051800D8AE4FF003025FEADC0C18BF03325FEA83
:10052800DC0C18BF033202EBDC02C2F1200300FA34
:1005380003FC20FA02F001FA03FE40EA0E0021FA59
:1005480002F11444BDE600BF70B54FF0FF0C4CF447
:10055800E06C1CEA11541DBF1CEA135594EA0C0FF9
:1005680095EA0C0F00F0DEF82C4481EA030621EA34
:100578004C5123EA4C5350EA013518BF52EA03356F
:1005880041F4801143F4801338D0A0FB02CE4FF021
:100598000005E1FB02E506F00042E0FB03E54FF051
:1005A8000006E1FB03569CF0000F18BF4EF0010E49
:1005B800A4F1FF04B6F5007F64F5407404D25FEA45
:1005C8004E0E6D4146EB060642EAC62141EA5551F8
:1005D8004FEAC52040EA5E504FEACE2EB4F1FD0C3A
:1005E80088BFBCF5E06F1ED8BEF1004F08BF5FEAB8
:1005F800500E50F1000041EB045170BD06F000466A
:1006080046EA010140EA020081EA0301B4EB5C0416
:10061800C2BFD4EB0C0541EA045170BD41F480110E
:100628004FF0000E013C00F3AB8014F1360FDEBF33
:10063800002001F0004170BDC4F10004203C35DA0F
:100648000C341BDC04F11404C4F1200500FA05F392
:1006580020FA04F001FA05F240EA020001F0004233
:1006680021F0004110EBD37021FA04F642EB0601A9
:100678005EEA430E08BF20EAD37070BDC4F10C04D3
:10068800C4F1200500FA04F320FA05F001FA04F297
:1006980040EA020001F0004110EBD37041F1000183
:1006A8005EEA430E08BF20EAD37070BDC4F120058E
:1006B80000FA05F24EEA020E20FA04F301FA05F2F6
:1006C80043EA020321FA04F001F0004121FA04F29E
:1006D80020EA020000EBD3705EEA430E08BF20EA6E
:1006E800D37070BD94F0000F0FD101F000464000A8
:1006F80041EB010111F4801F08BF013CF7D041EA2A
:10070800060195F0000F18BF704703F0004652002D
:1007180043EB030313F4801F08BF013DF7D043EAFE
:100728000603704794EA0C0F0CEA135518BF95EAB4
:100738000C0F0CD050EA410618BF52EA4306D1D13B
:1007480081EA030101F000414FF0000070BD50EA5A
:10075800410606BF1046194652EA430619D094EAE4
:100768000C0F02D150EA013613D195EA0C0F05D1CE
:1007780052EA03361CBF104619460AD181EA030122
:1007880001F0004141F0FE4141F470014FF00000DA
:1007980070BD41F0FE4141F4780170BD70B54FF075
:1007A800FF0C4CF4E06C1CEA11541DBF1CEA1355F5
:1007B80094EA0C0F95EA0C0F00F0A7F8A4EB0504D7
:1007C80081EA030E52EA03354FEA013100F08880CE
:1007D8004FEA03334FF0805545EA131343EA126397
:1007E8004FEA022245EA111545EA10654FEA00264C
:1007F8000EF000419D4208BF964244F1FD0404F505
:10080800407402D25B084FEA3202B61A65EB030560
:100818005B084FEA32024FF480104FF4002CB6EB1D
:10082800020E75EB030E22BFB61A754640EA0C009D
:100838005B084FEA3202B6EB020E75EB030E22BFDD
:10084800B61A754640EA5C005B084FEA3202B6EB1E
:10085800020E75EB030E22BFB61A754640EA9C00DD
:100868005B084FEA3202B6EB020E75EB030E22BFAD
:10087800B61A754640EADC0055EA060E18D04FEA6B
:10088800051545EA16754FEA06164FEAC30343EA0B
:1008980052734FEAC2025FEA1C1CC0D111F4801FD8
:1008A8000BD141EA00014FF000004FF0004CB6E7D1
:1008B80011F4801F04BF01430020B4F1FD0C88BF70
:1008C800BCF5E06F3FF6AFAEB5EB030C04BFB6EB7B
:1008D800020C5FEA500C50F1000041EB045170BD6E
:1008E8000EF0004E4EEA113114EB5C04C2BFD4EB9B
:1008F8000C0541EA045170BD41F480114FF0000E1F
:10090800013C90E645EA060E8DE60CEA135594EA9A
:100918000C0F08BF95EA0C0F3FF43BAF94EA0C0F9D
:100928000AD150EA01347FF434AF95EA0C0F7FF412
:1009380025AF104619462CE795EA0C0F06D152EA66
:1009480003353FF4FDAE1046194622E750EA41064A
:1009580018BF52EA43067FF4C5AE50EA41047FF45B
:100968000DAF52EA43057FF4EBAE12E74FF0FF3CC0
:1009780006E000BF4FF0010C02E000BF4FF0010C91
:100988004DF804CD4FEA410C7FEA6C5C4FEA430C0A
:1009980018BF7FEA6C5C1BD001B050EA410C0CBF59
:1009A80052EA430C91EA030F02BF90EA020F0020BB
:1009B800704710F1000F91EA030F58BF994208BF22
:1009C80090422CBFD8176FEAE37040F001007047DF
:1009D8004FEA410C7FEA6C5C02D150EA013C07D136
:1009E8004FEA430C7FEA6C5CD6D152EA033CD3D081
:1009F8005DF8040B704700BF8446104662468C467B
:100A08001946634600E000BF01B5FFF7B7FF0028AD
:100A180048BF10F1000F01BD4DF808EDFFF7F4FFD6
:100A28000CBF012000205DF808FB00BF4DF808ED61
:100A3800FFF7EAFF34BF012000205DF808FB00BF84
:100A48004DF808EDFFF7E0FF94BF012000205DF8A6
:100A580008FB00BF4DF808EDFFF7CEFF94BF01205B
:100A680000205DF808FB00BF4DF808EDFFF7C4FF54
:100A780034BF012000205DF808FB00BF4FEA410C9D
:100A88007FEA6C5C02D150EA013C0AD14FEA430C80
:100A98007FEA6C5C02D152EA033C02D14FF00000BD
:100AA80070474FF0010070474FEA410212F50012FB
:100AB80015D211D56FF47873B3EB625212D94FEA9D
:100AC800C12343F0004343EA505311F0004F23FA87
:100AD80002F018BF404270474FF00000704750EADC
:100AE800013005D111F0004008BF6FF00040704799
:100AF8004FF00000704700BF4A0011D212F50012F3
:100B080011D20DD56FF47873B3EB62520ED44FEA5D
:100B1800C12343F0004343EA505323FA02F07047DD
:100B28004FF00000704750EA013002D14FF0FF301B
:100B380070474FF0000070474FEA4102B2F1E043BE
:100B480024BFB3F5001CDCF1FE5C0DD901F0004CAC
:100B58004FEAC0024CEA5070B2F1004F40EB8300FC
:100B680008BF20F00100704711F0804F21D113F128
:100B78003872BCBF01F00040704741F480114FEA61
:100B88005252C2F11802C2F1200C10FA0CF320FAEA
:100B980002F018BF40F001004FEAC1234FEAD32307
:100BA80003FA0CFC40EA0C0023FA02F34FEA430371
:100BB800CCE77FEA625307D150EA01331EBF4FF0FA
:100BC800FE4040F44000704701F0004040F0FE4015
:100BD80040F40000704700BF53B94AB9002908BF64
:100BE80000281CBF4FF0FF314FF0FF3000F0AEB9C6
:100BF800ADF1080C6DE904CE00F03EF8DDF804E034
:100C0800DDE9022304B0704738B505460C460022DA
:100C1800002328462146FFF709FF28B92846214620
:100C2800BDE8384000F00AB8284604F1004100F059
:100C380005F8404261EB410138BD00BFD0B5002244
:100C48000B4B06460F46FFF77FFCFFF755FF0446A0
:100C5800FFF700FC0022074BFFF776FC02460B4625
:100C680030463946FFF7B8FAFFF746FF2146D0BDB0
:100C78000000F03D0000F0412DE9F047089E0D46C8
:100C880004468846002B4DD18A42944668D9B2FA68
:100C980082F252B101FA02F3C2F1200120FA01F105
:100CA8000CFA02FC41EA030894404FEA1C41B8FBE5
:100CB800F1F71FFA8CFE01FB178807FB0EF0230CD7
:100CC80043EA084398420AD91CEB030307F1FF35AE
:100CD80080F01E81984240F21B81023F63441B1A38
:100CE800B3FBF1F001FB103300FB0EFEA4B244EAA3
:100CF8000344A6450AD91CEB040400F1FF3380F035
:100D08000981A64540F20681644402380021A4EB1B
:100D18000E0440EA07401EB10023D440C6E9004350
:100D2800BDE8F0878B4208D9002E00F0EE80002144
:100D3800C6E900050846BDE8F087B3FA83F1002943
:100D48004AD1AB4202D3824200F2FC80841A65EB9E
:100D5800030301209846002EE2D0C6E90048DFE7E9
:100D680002B9FFDEB2FA82F2002A40F09180A1EBCC
:100D78000C0001214FEA1C471FFA8CFEB0FBF7F369
:100D880007FB1300250C45EA00450EFB03F0A842BB
:100D980008D91CEB050503F1FF3802D2A84200F27E
:100DA800CE8043462D1AB5FBF7F007FB10550EFB16
:100DB80000FEA4B244EA0544A64508D91CEB040485
:100DC80000F1FF3502D2A64500F2B6802846A4EB12
:100DD8000E0440EA03409EE7C1F120078B4022FA47
:100DE80007FC4CEA030C25FA07FA4FEA1C49BAFB40
:100DF800F9F820FA07F309FB18AA8D401FFA8CFEB0
:100E08001D4300FA01F308FB0EF02C0C44EA0A44D7
:100E1800A04202FA01F20BD91CEB040408F1FF3AD4
:100E280080F08880A04240F28580A8F102086444DE
:100E3800241AB4FBF9F009FB104400FB0EFEADB216
:100E480045EA0444A64508D91CEB040400F1FF3523
:100E58006CD2A6456AD90238644440EA0840A0FB2F
:100E68000295A4EB0E04AC42C846AE4656D353D006
:100E7800002E69D0B3EB080264EB0E0422FA01F3EA
:100E880004FA07F71F43CC40C6E90074002147E77E
:100E98000CFA02FCC2F1200125FA01F34FEA1C47C3
:100EA80020FA01F195400D43B3FBF7F107FB11332D
:100EB8001FFA8CFE280C40EA034001FB0EF3834224
:100EC80004FA02F408D91CEB000001F1FF382FD214
:100ED80083422DD902396044C01AB0FBF7F307FBEF
:100EE8001300ADB245EA004503FB0EF0A84208D94D
:100EF8001CEB050503F1FF3816D2A84214D9023BB2
:100F08006544281A43EA014138E73146304607E785
:100F18002F46E4E61846F9E64B45A9D2B9EB020894
:100F280065EB0C0E0138A3E74346EAE7284694E749
:100F38004146D1E7D0467BE76444023847E7023BA5
:100F480065442FE7084606E73146E9E6704700BFE3
:100F580080B500AF4FF4E131002000F0E5FB4FF41D
:100F6800E131012000F0E0FB00BF80BD90B5A5B0E5
:100F780000AF00F0FEF8C7F88C0000F0FAF802465F
:100F8800D7F88C30D31AB3F5FA7F06D300F0F1F80E
:100F9800C7F88C00002000F095FB002000F0E8FC6A
:100FA8000446012000F0E4FC03469C4207D00020E0
:100FB80000F0DEFC03461946012000F0B5FB0020D6
:100FC80000F054FC034687F88B3097F88B30802B61
:100FD80002D9802387F88B3097F88B30002B20D0EC
:100FE8000023C7F884300FE0002000F071FC0346AE
:100FF80019463A46D7F8843013440A461A70D7F887
:1010080084300133C7F8843097F88B30D7F88420C0
:101018009A42E9DB97F88B203B461946012000F0FD
:101028007BFC012000F022FC034687F88B3097F800
:101038008B30802B02D9802387F88B3097F88B3040
:10104800002B9AD00023C7F880300FE0012000F071
:101058003FFC034619463A46D7F8803013440A46FF
:101068001A70D7F880300133C7F8803097F88B3082
:10107800D7F880209A42E9DB97F88B203B4619463F
:10108800002000F049FC78E780B588B000AF00F098
:1010980053FD00F075F807F10C0300221A605A603E
:1010A8009A60DA601A610023BB602A4B1B6B294ADD
:1010B80043F480731363274B1B6B03F48073BB608B
:1010C800BB6800237B60234B1B6B224A43F004035D
:1010D8001363204B1B6B03F004037B607B680023C6
:1010E8003B601C4B1B6B1B4A43F040031363194BBB
:1010F8001B6B03F040033B603B684FF48053FB607D
:1011080011233B6100237B610223BB6107F10C03C0
:101118001946114801F03EFB00224FF480510E4859
:1011280001F0D4FD4FF4967000F018F801224FF446
:101138008051094801F0CAFD00233B6107F10C0307
:101148001946054801F026FB07F04CF900BF203787
:10115800BD4680BD003802400000024080B582B024
:1011680000AF7860786800F055FD00BF0837BD46CD
:1011780080BD80B500AF00F043FD0346184680BD32
:1011880080B592B000AF07F118033022002118464D
:1011980007F0A4FF3B1D00221A605A609A60DA60CB
:1011A8001A610123BB610123FB6102233B634FF4F6
:1011B80080037B631423BB63C023FB6302233B646C
:1011C80005237B6407F11803184602F005FF034660
:1011D800002B01D000F01AF80F237B600223BB60BC
:1011E8000023FB604FF4A0533B614FF480537B61B5
:1011F8003B1D0321184603F03DF90346002B01D09F
:1012080000F004F800BF4837BD4680BD80B400AF89
:1012180072B600BFFEE7000080B483B000AF0023C1
:101228007B600F4B5B6C0E4A43F4804353640C4B5A
:101238005B6C03F480437B607B6800233B60084B56
:101248001B6C074A43F080531364054B1B6C03F077
:1012580080533B603B6800BF0C37BD4680BC70477D
:101268000038024080B400AFFEE780B400AFFEE76C
:1012780080B400AFFEE780B400AFFEE780B400AFF3
:10128800FEE780B400AF00BFBD4680BC704780B4A5
:1012980000AF00BFBD4680BC704780B400AF00BF40
:1012A800BD4680BC704780B500AF00F097FC00BF1A
:1012B80080BD000080B500AF024801F005F800BF0E
:1012C80080BD00BF0405002080B500AF024803F0D0
:1012D8000FFC00BF80BD00BFC004002080B500AF78
:1012E800024801F063FE00BF80BD00BF3C1400202F
:1012F80080B400AF01231846BD4680BC704780B556
:1013080082B000AF7860396007F0AEFE034616225F
:101318001A604FF0FF3318460837BD4680BD80B5C8
:1013280082B000AF78604FF0FF317868FFF7E7FFD1
:10133800FEE780B586B000AFF860B9607A60002338
:101348007B610AE0AFF300800146BB685A1CBA60B3
:10135800CAB21A707B6901337B617A697B689A42E9
:10136800F0DB7B6818461837BD4680BD80B586B06F
:1013780000AFF860B9607A6000237B6109E0BB6860
:101388005A1CBA601B781846AFF300807B6901339A
:101398007B617A697B689A42F1DB7B68184618376B
:1013A800BD4680BD80B483B000AF78604FF0FF3396
:1013B80018460C37BD4680BC704780B483B000AF78
:1013C800786039603B684FF400525A600023184631
:1013D8000C37BD4680BC704780B483B000AF7860DE
:1013E800012318460C37BD4680BC704780B485B0D1
:1013F80000AFF860B9607A60002318461437BD461C
:1014080080BC704780B586B000AF7860144A154B31
:10141800D31A7B617B693B61134B1B68002B02D19C
:10142800114B124A1A60104B1A687B6813443A69C8
:101438009A4207D207F018FE03460C221A604FF0B2
:10144800FF3309E0084B1B68FB60074B1A687B6891
:101458001344054A1360FB6818461837BD4680BD1B
:10146800000002200004000098030020501800200B
:1014780080B400AF00BFBD4680BC7047DFF834D0F1
:101488000D480E490E4A002302E0D458C4500433D4
:10149800C4188C42F9D30B4A0B4C002301E01360AB
:1014A8000432A242FBD3FFF7E3FF07F0E3FD07F0A6
:1014B800CFFD704700000220000000207C030020C0
:1014C8007CDE00087C0300204C180020FEE780B476
:1014D80087B000AFF860B9607A600123FB75FB68DC
:1014E80000221A60FB6800225A60FB687A689A60DA
:1014F800FB68BA68DA60FB7D18461C37BD4680BCBD
:10150800704780B487B000AFF860B9607A60012393
:10151800FB7500233B6126E0FB68DB68002B09D0E4
:10152800FB68DA68FB685B681A443B69B9680B4476
:1015380012781A70FB685A68FB681B689A420CD0CC
:10154800FB685B680133FA689268B3FBF2F101FB50
:1015580002F29A1AFB685A6002E00023FB7506E063
:101568003B6901333B613B697A689A42D4D8FB7D79
:1015780018461C37BD4680BC704780B485B000AFA4
:1015880078607B681A687B685B68D31A7A689268A7
:10159800B3FBF2F101FB02F29B1AFB60FB681846F1
:1015A8001437BD4680BC704780B483B000AF0123B8
:1015B800FB71FB7918460C37BD4680BC70470000AC
:1015C80080B58AB000AF012387F8233007F10C03F8
:1015D80000221A605A609A60DA601A610023BB60C0
:1015E800284B1B6B274A43F480731363254B1B6BF3
:1015F80003F48073BB60BB6800237B60214B1B6BCB
:10160800204A43F0040313631E4B1B6B03F00403CF
:101618007B607B6800233B601A4B1B6B194A43F0C5
:1016280040031363174B1B6B03F040033B603B689D
:1016380001233B6100237B610223BB6100237B62A2
:1016480017E0114A7B6ADB0013449B88FB600E4A53
:101658007B6A52F8333007F10C021146184601F044
:1016680099F87B6ADBB2184600F010F87B6A013300
:101678007B627B6A032BE4DD97F823301846283712
:10168800BD4680BD003802400400002080B582B00D
:1016980000AF0346FB71FB79094A52F83300FB7926
:1016A800074ADB0013449988FB79054ADB00134499
:1016B800DB791A4601F00AFB00BF0837BD4680BD3A
:1016C8000400002080B582B000AF0346FB71FB79AF
:1016D800074A52F83320FB790549DB000B449B8805
:1016E8001946104601F00AFB00BF0837BD4680BD09
:1016F8000400002080B483B000AF0123BB71002335
:10170800FB7106E0FB79074A0021D154FB790133CC
:10171800FB71FB79012BF5D9BB7918460C37BD460F
:1017280080BC70479C03002080B584B000AF03469E
:101738003960FB710023FB73FB79002B02D0012B6E
:1017480007D07DE0FB79414A0121D1540123FB7385
:1017580076E03F4B3F4A1A603D4A3B6853603C4B3A
:1017680000229A603A4B0022DA60394B00221A6153
:10177800374B0C225A61364B00229A61344B0022B7
:10178800DA614FF4807234493448FFF7A0FE002331
:10179800BB60334B1B6B324A43F400131363304B6B
:1017A8001B6B03F40013BB60BB68002200210C20F4
:1017B80000F04FFB0C2000F068FB254803F0A7F869
:1017C8000346002B02D10123FB7301E00023FB73C6
:1017D800FB7B002B33D01E4803F04CF80346002B4C
:1017E80002D00023FB732AE0FB79184A0121D15467
:1017F8000123FB734FF480721749154803F048F929
:101808000346002B01D00023FB73FB79154A1B010B
:10181800134408331968144B1B685A68FB798A1AF1
:1018280010491B010B441A60FA79FB790D49120122
:101838000A4412680B491B010B4404331A6000BFA9
:10184800FB7B18461037BD4680BD00BF9C030020B7
:10185800C004002000480040C0030020B00300205E
:1018680000380240A00300200405002080B584B0A1
:1018780000AF0346FB710023FB60FB79002B02D00D
:10188800012B04D01BE006F0DDFDF86017E0FB79C2
:101898000D4A1B011344083319680C4B1B685A681E
:1018A800FB798A1A08491B010B441A60FB791B0152
:1018B800054A13441846FFF760FEF86000BFFB684E
:1018C80018461037BD4680BDA0030020040500203F
:1018D80080B584B000AF0346FB710023FB73FB792E
:1018E800002B02D0012B05D00FE006F0EBFD0346DC
:1018F800FB730AE0FB791B01064A134407F10F0149
:1019080001221846FFF7FDFD00BFFB7B1846103784
:10191800BD4680BDA003002080B586B000AF034659
:10192800B9607A60FB7300237B61FB7B002B02D0DC
:10193800012B06D014E07968B86806F015FE7861C6
:101948000EE07B689AB26423B968084803F00EF881
:101958000346FB74FB7C002B01D17B687B6100BFD5
:101968007B6918461837BD4680BD00BFC0040020FB
:1019780080B584B000AF0346FB710023FB60FB79A0
:10198800002B02D0012B04D007E006F015FEF8600A
:1019980003E0044B5B68FB6000BFFB681846103728
:1019A800BD4680BDC004002080B483B000AF78601D
:1019B80000BF0C37BD4680BC704780B483B000AF11
:1019C800786000BF0C37BD4680BC704780B58AB0D0
:1019D80000AF786007F1140300221A605A609A6019
:1019E800DA601A617B681B68354A934263D1002329
:1019F8003B61344B1B6C334A43F480231364314BF3
:101A08001B6C03F480233B613B690023FB602D4B77
:101A18001B6B2C4A43F0040313632A4B1B6B03F024
:101A28000403FB60FB684FF440637B610223BB61E6
:101A38000023FB6103233B6207237B6207F1140346
:101A48001946214800F0A6FE204B214A1A601F4B78
:101A58004FF000625A601D4B00229A601B4B002217
:101A6800DA601A4B4FF480621A61184B00225A61EF
:101A7800164B00229A61154B4FF48072DA61134BB2
:101A880000221A62114B00225A62104800F026FA0E
:101A98000346002B01D0FFF7B9FB7B680B4A9A631A
:101AA8000A4A7B68936300220021272000F0D1F9BD
:101AB800272000F0EAF900BF2837BD4680BD00BFE7
:101AC8000048004000380240000802400405002099
:101AD8002860024080B582B000AF78607B681B68E0
:101AE8000C4A934212D10C4B1B6C0B4A23F48023F3
:101AF80013644FF44061094800F0EAFF7B689B6B70
:101B0800184600F099FA272000F0CDF900BF0837F1
:101B1800BD4680BD00480040003802400008024031
:101B280080B500AFFFF7B0FAFFF74AFDFFF7E2FD17
:101B3800FFF73AFD00BF80BD80B500AF0E4B1B68B4
:101B48000D4A43F4007313600B4B1B680A4A43F4B5
:101B580080631360084B1B68074A43F48073136063
:101B6800032000F06BF90F2000F008F8FFF754FB92
:101B78000023184680BD00BF003C024080B582B0FB
:101B880000AF7860124B1A68124B1B7819464FF455
:101B98007A73B3FBF1F3B2FBF3F3184600F091F953
:101BA8000346002B01D001230EE07B680F2B0AD8D7
:101BB800002279684FF0FF3000F04BF9064A7B6845
:101BC8001360002300E0012318460837BD4680BD96
:101BD80000000020280000202400002080B400AF6E
:101BE800054B1B781A46054B1B681344034A1360C0
:101BF80000BFBD4680BC7047280000206405002057
:101C080080B400AF024B1B681846BD4680BC7047C5
:101C18006405002080B584B000AF7860FFF7F0FF5E
:101C2800B8607B68FB60FB68B3F1FF3F05D00A4BE7
:101C38001B781A46FB681344FB6000BFFFF7E0FF00
:101C48000246BB68D31AFA689A42F7D800BF00BFA9
:101C58001037BD4680BD00BF2800002080B485B085
:101C680000AF78607B6803F00703FB600C4BDB6810
:101C7800BB60BA684FF6FF031340BB60FB681A02EB
:101C8800BB68134343F0BF6343F40033BB60044AAB
:101C9800BB68D36000BF1437BD4680BC704700BF27
:101CA80000ED00E080B400AF044BDB681B0A03F0D2
:101CB80007031846BD4680BC704700BF00ED00E032
:101CC80080B483B000AF0346FB7197F90730002B4F
:101CD8000BDBFB7903F01F02064997F907305B0914
:101CE800012000FA02F241F8232000BF0C37BD465C
:101CF80080BC704700E100E080B483B000AF0346C9
:101D0800FB7197F90730002B12DBFB7903F01F02F8
:101D18000A4997F907305B09012000FA02F22033DB
:101D280041F82320BFF34F8F00BFBFF36F8F00BF71
:101D380000BF0C37BD4680BC704700BF00E100E023
:101D480080B483B000AF03463960FB7197F9073060
:101D5800002B0ADB3B68DAB20C4997F9073012010D
:101D6800D2B20B4483F800230AE03B68DAB2084990
:101D7800FB7903F00F03043B1201D2B20B441A762D
:101D880000BF0C37BD4680BC704700BF00E100E0D3
:101D980000ED00E080B489B000AFF860B9607A6007
:101DA800FB6803F00703FB61FB69C3F10703042B1E
:101DB80028BF0423BB61FB690433062B02D9FB69E6
:101DC800033B00E000237B614FF0FF32BB6902FA5E
:101DD80003F3DA43BB681A407B699A404FF0FF313E
:101DE8007B6901FA03F3D9437B680B401343184618
:101DF8002437BD4680BC704780B582B000AF78609C
:101E08007B68013BB3F1807F01D301230FE00A4ACD
:101E18007B68013B53600F214FF0FF30FFF790FFC5
:101E2800054B00229A60044B07221A6000231846CB
:101E38000837BD4680BD00BF10E000E080B582B025
:101E480000AF78607868FFF709FF00BF0837BD4624
:101E580080BD80B586B000AF0346B9607A60FB7379
:101E680000237B61FFF71EFF78617A68B96878699B
:101E7800FFF790FF024697F90F3011461846FFF713
:101E88005FFF00BF1837BD4680BD80B582B000AF88
:101E98000346FB7197F907301846FFF711FF00BF9B
:101EA8000837BD4680BD80B582B000AF0346FB71E0
:101EB80097F907301846FFF71FFF00BF0837BD46E0
:101EC80080BD80B582B000AF78607868FFF794FF76
:101ED800034618460837BD4680BD000080B586B069
:101EE80000AF786000237B61FFF78AFE38617B686A
:101EF800002B01D1012399E07B68022283F8352069
:101F08007B68002283F834207B681B681A687B682A
:101F18001B6822F001021A600FE0FFF771FE02460B
:101F28003B69D31A052B08D97B6820225A657B6840
:101F3800032283F83520032378E07B681B681B683D
:101F480003F00103002BE8D17B681B681B687B61E9
:101F58007A69384B13407B617B685A687B689B6859
:101F68001A437B68DB681A437B681B691A437B68E2
:101F78005B691A437B689B691A437B68DB691A4370
:101F88007B681B6A13437A6913437B617B685B6ACE
:101F9800042B07D17B68DA6A7B681B6B13437A6969
:101FA80013437B617B681B687A691A607B681B68CE
:101FB8005B697B617B6923F007037B617B685B6AF4
:101FC8007A6913437B617B685B6A042B17D17B6852
:101FD8009B6A7A6913437B617B68DB6A002B0ED0AE
:101FE800786800F05DFB0346002B08D07B68402230
:101FF8005A657B68012283F83520012316E07B6847
:102008001B687A695A61786800F016FB0346FB6022
:102018007B68DB6D3F229A40FB689A607B680022F0
:102028005A657B68012283F8352000231846183743
:10203800BD4680BD3F8010F080B584B000AF7860A9
:102048007B68002B01D1012350E07B6893F8353081
:10205800DBB2022B01D1022348E07B681B681A68B7
:102068007B681B6822F001021A607B681B680022EB
:102078001A607B681B6800225A607B681B68002214
:102088009A607B681B680022DA607B681B68002204
:102098001A617B681B6821225A61786800F0CCFAC3
:1020A8000346FB607B680022DA637B6800221A64BF
:1020B8007B6800225A647B6800229A647B6800224D
:1020C800DA647B6800221A657B68DB6D3F229A40E0
:1020D800FB689A607B6800225A657B68002283F857
:1020E80035207B68002283F83420002318461037F7
:1020F800BD4680BD80B586B000AFF860B9607A6033
:102108003B600023FB75FB689B6D3B61FB6893F8A4
:102118003430012B01D1022340E0FB68012283F80F
:102128003420FB6893F83530DBB2012B2FD1FB68E4
:10213800022283F83520FB6800225A653B687A68DA
:10214800B968F86800F04AFAFB68DB6D3F229A40EC
:102158003B699A60FB681B681A68FB681B6842F059
:1021680016021A60FB681B6C002B07D0FB681B6803
:102178001A68FB681B6842F008021A60FB681B6853
:102188001A68FB681B6842F001021A6005E0FB68E8
:10219800002283F834200223FB75FB7D184618378C
:1021A800BD4680BD80B584B000AF78607B689B6D0C
:1021B800FB60FFF725FDB8607B6893F83530DBB22C
:1021C800022B08D07B6880225A657B68002283F83E
:1021D8003420012352E07B681B681A687B681B68FF
:1021E80022F016021A607B681B685A697B681B68B4
:1021F80022F080025A617B681B6C002B03D17B683C
:102208009B6C002B07D07B681B681A687B681B686F
:1022180022F008021A607B681B681A687B681B68D2
:1022280022F001021A6013E0FFF7EAFC0246BB68DD
:10223800D31A052B0CD97B6820225A657B680322A8
:1022480083F835207B68002283F83420032315E0C7
:102258007B681B681B6803F00103002BE4D17B68D3
:10226800DB6D3F229A40FB689A607B68012283F805
:1022780035207B68002283F8342000231846103765
:10228800BD4680BD80B483B000AF78607B6893F8AA
:102298003530DBB2022B04D07B6880225A650123DB
:1022A8000CE07B68052283F835207B681B681A6878
:1022B8007B681B6822F001021A60002318460C375D
:1022C800BD4680BC7047000080B586B000AF78601E
:1022D8000023BB608E4B1B688E4AA2FB03239B0A1C
:1022E8007B617B689B6D3B613B691B68FB607B681E
:1022F800DB6D08229A40FB681340002B1AD07B68DC
:102308001B681B6803F00403002B13D07B681B6851
:102318001A687B681B6822F004021A607B68DB6D10
:1023280008229A403B699A607B685B6D43F0010222
:102338007B685A657B68DB6D01229A40FB68134015
:10234800002B12D07B681B685B6903F08003002BAD
:102358000BD07B68DB6D01229A403B699A607B68F1
:102368005B6D43F002027B685A657B68DB6D042273
:102378009A40FB681340002B12D07B681B681B68CF
:1023880003F00203002B0BD07B68DB6D04229A401C
:102398003B699A607B685B6D43F004027B685A6511
:1023A8007B68DB6D10229A40FB681340002B43D0FA
:1023B8007B681B681B6803F00803002B3CD07B6814
:1023C800DB6D10229A403B699A607B681B681B682A
:1023D80003F48023002B18D07B681B681B6803F468
:1023E8000023002B08D17B681B6C002B24D07B6852
:1023F8001B6C786898471FE07B689B6C002B1BD090
:102408007B689B6C7868984716E07B681B681B683C
:1024180003F48073002B07D17B681B681A687B68FC
:102428001B6822F008021A607B681B6C002B03D023
:102438007B681B6C786898477B68DB6D20229A4024
:10244800FB681340002B00F08F807B681B681B68BB
:1024580003F01003002B00F087807B68DB6D2022DF
:102468009A403B699A607B6893F83530DBB2052B5C
:1024780036D17B681B681A687B681B6822F01602D5
:102488001A607B681B685A697B681B6822F08002A7
:102498005A617B681B6C002B03D17B689B6C002BFB
:1024A80007D07B681B681A687B681B6822F00802E3
:1024B8001A607B68DB6D3F229A403B699A607B68B3
:1024C800012283F835207B68002283F834207B685A
:1024D8001B6D002B7ED07B681B6D7868984779E070
:1024E8007B681B681B6803F48023002B1DD07B6866
:1024F8001B681B6803F40023002B0DD17B685B6C01
:10250800002B31D07B685B6C786898472CE000BF63
:1025180000000020B5814E1B7B68DB6B002B23D0AD
:102528007B68DB6B786898471EE07B681B681B68D4
:1025380003F48073002B0FD17B681B681A687B68D3
:102548001B6822F010021A607B68012283F835208C
:102558007B68002283F834207B68DB6B002B03D078
:102568007B68DB6B786898477B685B6D002B32D0A3
:102578007B685B6D03F00103002B22D07B6805228A
:1025880083F835207B681B681A687B681B6822F013
:1025980001021A60BB680133BB607A699A4207D3AB
:1025A8007B681B681B6803F00103002BF2D100E075
:1025B80000BF7B68012283F835207B68002283F8FE
:1025C80034207B68DB6C002B05D07B68DB6C78687B
:1025D800984700E000BF1837BD4680BD80B485B07D
:1025E80000AFF860B9607A603B60FB681B681A68E6
:1025F800FB681B6822F480221A60FB681B683A6833
:102608005A60FB689B68402B08D1FB681B687A6896
:102618009A60FB681B68BA68DA6007E0FB681B68A9
:10262800BA689A60FB681B687A68DA6000BF14377A
:10263800BD4680BC7047000080B485B000AF7860AC
:102648007B681B68DBB2103B134AA2FB03231B0900
:10265800FB60124AFB6813441B781A467B68DA65EC
:10266800FB68032B09D97B681B6823F47F7323F06D
:1026780003031A1D7B689A6507E07B681B6823F4CF
:102688007F7323F003037A6893657B689B6D184614
:102698001437BD4680BC7047ABAAAAAAC0D90008A7
:1026A80080B485B000AF78600023FB737B689B6AB9
:1026B800BB607B689B69002B1FD1BB68032B56D876
:1026C80001A252F823F000BFE1260008F326000813
:1026D800E1260008772700087B68DB6A03F080732F
:1026E800002B46D00123FB7343E07B68DB6AB3F120
:1026F800C07F40D10123FB733DE07B689B69B3F544
:10270800005F21D1BB68032B37D801A252F823F010
:10271800292700082F270008292700084127000833
:102728000123FB7330E07B68DB6A03F08073002BC6
:1027380025D00123FB7322E07B68DB6AB3F1C07FFD
:102748001FD10123FB731CE0BB68022B03D9BB68B4
:10275800032B03D018E00123FB7315E07B68DB6AC9
:1027680003F08073002B0ED00123FB730BE000BF36
:102778000AE000BF08E000BF06E000BF04E000BFB9
:1027880002E000BF00E000BFFB7B18461437BD46DF
:1027980080BC704780B487B000AF78603960002390
:1027A8007B616FE13B681A6801217B6901FA03F3D9
:1027B8001340FB60FB68002B00F061813B685B689D
:1027C80003F00303012B05D03B685B6803F00303A8
:1027D800022B30D17B689B683B617B695B000322DD
:1027E80002FA03F3DB433A6913403B613B68DA685A
:1027F8007B695B0002FA03F33A6913433B617B6828
:102808003A699A607B685B683B6101227B6902FADE
:1028180003F3DB433A6913403B613B685B681B0980
:1028280003F001027B6902FA03F33A6913433B613F
:102838007B683A695A603B685B6803F00303032BC3
:1028480017D07B68DB683B617B695B00032202FA77
:1028580003F3DB433A6913403B613B689A687B6941
:102868005B0002FA03F33A6913433B617B683A69F8
:10287800DA603B685B6803F00303022B23D17B69B2
:10288800DA087B68083253F822303B617B6903F031
:1028980007039B000F2202FA03F3DB433A69134054
:1028A8003B613B681A697B6903F007039B0002FAE6
:1028B80003F33A6913433B617B69DA087B680832A2
:1028C800396943F822107B681B683B617B695B00B0
:1028D800032202FA03F3DB433A6913403B613B6886
:1028E8005B6803F003027B695B0002FA03F33A6951
:1028F80013433B617B683A691A603B685B6803F481
:102908004033002B00F0BB800023BB60644B5B6C42
:10291800634A43F480435364614B5B6C03F4804324
:10292800BB60BB685F4A7B699B08023352F823305F
:102938003B617B6903F003039B000F2202FA03F358
:10294800DB433A6913403B617B68574A934231D075
:102958007B68564A93422BD07B68554A934225D0D0
:102968007B68544A93421FD07B68534A934219D0DC
:102978007B68524A934213D07B68514A93420DD0E8
:102988007B68504A934207D07B684F4A934201D1F3
:10299800082310E009230EE007230CE006230AE0D1
:1029A800052308E0042306E0032304E0022302E0F1
:1029B800012300E000237A6902F0030292009340A9
:1029C8001A463B6913433B6136497B699B080233CE
:1029D8003A6941F823203D4B1B683B61FB68DB43A8
:1029E8003A6913403B613B685B6803F48033002B12
:1029F80003D03A69FB6813433B61344A3B6913606F
:102A0800324B5B683B61FB68DB433A6913403B61CF
:102A18003B685B6803F40033002B03D03A69FB681A
:102A280013433B61294A3B695360284B9B683B61D0
:102A3800FB68DB433A6913403B613B685B6803F41E
:102A48008013002B03D03A69FB6813433B611F4A8C
:102A58003B6993601D4BDB683B61FB68DB433A696C
:102A680013403B613B685B6803F40013002B03D001
:102A78003A69FB6813433B61144A3B69D3607B693D
:102A880001337B613B681A687B6922FA03F3002BE8
:102A98007FF488AE00BF00BF1C37BD4680BC7047BE
:102AA80000380240003801400000024000040240A3
:102AB80000080240000C02400010024000140240CE
:102AC80000180240001C024000200240003C014067
:102AD80080B487B000AF7860396000237B61D1E0B3
:102AE80001227B6902FA03F33A6813403B613B69B0
:102AF800002B00F0C4806A4A7B699B08023352F8B5
:102B08002330FB607B6903F003039B000F2202FA6A
:102B180003F3FA681340FB607B68624A934231D042
:102B28007B68614A93422BD07B68604A934225D0E8
:102B38007B685F4A93421FD07B685E4A934219D0F4
:102B48007B685D4A934213D07B685C4A93420DD000
:102B58007B685B4A934207D07B685A4A934201D10B
:102B6800082310E009230EE007230CE006230AE0FF
:102B7800052308E0042306E0032304E0022302E01F
:102B8800012300E000237A6902F00302920003FAAD
:102B980002F2FB689A4232D14B4B1A683B69DB431D
:102BA800494913400B60484B5A683B69DB43464927
:102BB80013404B60444B9A683B69DB4342491340DE
:102BC8008B60414BDA683B69DB433F491340CB607C
:102BD8007B6903F003039B000F2202FA03F3FB60F7
:102BE8002F4A7B699B08023352F82310FB68DA43AB
:102BF8002B487B699B080A40023340F823207B68F6
:102C08001A687B695B00032101FA03F3DB431A406E
:102C18007B681A607B69DA087B68083253F82210EF
:102C28007B6903F007039B000F2202FA03F3DB43DF
:102C38007A69D20819407B68083243F822107B6809
:102C4800DA687B695B00032101FA03F3DB431A406E
:102C58007B68DA607B685A6801217B6901FA03F3B3
:102C6800DB431A407B685A607B689A687B695B0023
:102C7800032101FA03F3DB431A407B689A607B69FE
:102C880001337B613A687B6922FA03F3002B7FF4F6
:102C980027AF00BF00BF1C37BD4680BC704700BFD0
:102CA80000380140000002400004024000080240D1
:102CB800000C0240001002400014024000180240BC
:102CC800001C024000200240003C014080B483B058
:102CD80000AF78600B467B8013467B707B78002BB7
:102CE80003D07A887B689A6103E07B881A047B6842
:102CF8009A6100BF0C37BD4680BC704780B485B070
:102D080000AF78600B467B807B685B69FB607A88E4
:102D1800FB6813401A04FB68D9437B880B401A43AD
:102D28007B689A6100BF1437BD4680BC7047F0B518
:102D38008FB00AAF78607B68002B01D101230FE1C7
:102D48007B681B68BB607B6893F8BD33DBB2002BE4
:102D580006D17B68002283F8BC23786805F07AFEE8
:102D68007B68032283F8BD23BB68DB6B03F48073A5
:102D7800002B02D17B6800221A617B681B68184609
:102D880002F038FD7B681B683B607E686D4606F183
:102D980010040FCC0FC50FCC0FC594E8030085E8CD
:102DA8000300331D0ECB386802F01AFC0346002BD3
:102DB80005D07B68022283F8BD230123D0E07B681D
:102DC8001B680021184602F025FD0023FB734AE02A
:102DD800FA7B79681346DB009B1A9B000B443D3352
:102DE80001221A70FA7B79681346DB009B1A9B0054
:102DF8000B443C33FA7B1A70FA7BFB7B98B27968F8
:102E08001346DB009B1A9B000B44423302461A8090
:102E1800FA7B79681346DB009B1A9B000B443F330F
:102E280000221A70FA7B79681346DB009B1A9B0014
:102E38000B44443300221A60FA7B79681346DB009E
:102E48009B1A9B000B44483300221A60FA7B79686E
:102E58001346DB009B1A9B000B44503300221A6078
:102E6800FB7B0133FB73FA7B7B685B689A42AFD3C9
:102E78000023FB7344E0FA7B79681346DB009B1A56
:102E88009B000B4403F2FD1300221A70FA7B796849
:102E98001346DB009B1A9B000B4403F5FE73FA7B79
:102EA8001A70FA7B79681346DB009B1A9B000B4467
:102EB80003F2FF1300221A70FA7B79681346DB00CD
:102EC8009B1A9B000B4403F5017300221A60FA7BDE
:102ED80079681346DB009B1A9B000B4403F50273C9
:102EE80000221A60FA7B79681346DB009B1A9B0064
:102EF8000B4403F5047300221A60FB7B0133FB7358
:102F0800FA7B7B685B689A42B5D37B681B683B6039
:102F18007E686D4606F110040FCC0FC50FCC0FC5A7
:102F280094E8030085E80300331D0ECB386802F0EF
:102F3800BDFC0346002B05D07B68022283F8BD2325
:102F480001230DE07B68002283F838207B6801228A
:102F580083F8BD237B681B68184603F02EFD002309
:102F680018461437BD46F0BD80B582B000AF786012
:102F78007B6893F8BC33012B01D1022312E07B68F4
:102F8800012283F8BC237B681B68184602F022FCE8
:102F98007B681B68184603F0F0FC7B68002283F806
:102FA800BC23002318460837BD4680BD90B58DB0B8
:102FB80000AF78607B681B683B623B6AFB617B689B
:102FC8001B68184603F0A7FD0346002B40F08F83CB
:102FD8007B681B68184603F010FD0346002B00F0C1
:102FE80085837B681B68184603F007FD034603F0DA
:102FF8000203022B07D17B681B685A697B681B6830
:1030080002F002025A617B681B68184603F0F5FC5F
:10301800034603F01003102B61D17B681B689A6983
:103028007B681B6822F010029A613B6A1B6ABB61CD
:10303800BB6903F00F021346DB009B1A9B0003F5E4
:10304800FC737A68134404337B61BB695B0C03F03F
:103058000F03022B24D1BA6947F6F0731340002BF3
:1030680035D07B69D968BB691B099BB2C3F30A03D6
:103078009BB21A46386A03F032FB7B69DA68BB698F
:103088001B09C3F30A031A447B69DA607B699A69EE
:10309800BB691B09C3F30A031A447B699A6116E0EA
:1030A800BB695B0C03F00F03062B10D17B6803F59B
:1030B800717308221946386A03F011FB7B699A6913
:1030C800BB691B09C3F30A031A447B699A617B68CD
:1030D8001B689A697B681B6842F010029A617B68DA
:1030E8001B68184603F089FC034603F40023B3F574
:1030F800002F6ED100237B627B681B68184603F0A3
:103108008EFCB86262E0BB6A03F00103002B57D063
:103118007B681B687A6AD2B21146184603F0B1FC84
:1031280038613B6903F00103002B0CD07B6A5A011C
:10313800FB69134403F530631A4601239360796AE7
:10314800786800F0A1FD3B6903F00803002B0CD060
:103158007B6A5A01FB69134403F530631A46082356
:103168009360796A786800F09BFE3B6903F010036E
:10317800002B08D07B6A5A01FB69134403F53063BE
:103188001A46102393603B6903F02003002B08D0F4
:103198007B6A5A01FB69134403F530631A462023FE
:1031A80093603B6903F40053002B09D07B6A5A01F2
:1031B800FB69134403F530631A464FF400539360D8
:1031C8007B6A01337B62BB6A5B08BB62BB6A002B0C
:1031D80099D17B681B68184603F00FFC034603F47B
:1031E8008023B3F5802F40F0C0807B681B681846A9
:1031F80003F02EFCB86200237B62B2E0BB6A03F0E6
:103208000103002B00F0A7807B681B687A6AD2B2A2
:103218001146184603F052FC38613B6903F001037C
:10322800002B57D07B6A03F00F03012202FA03F345
:10323800FB60FB6903F500635A6BFB68DB43F969C4
:1032480001F5006113404B637B6A5A01FB69134423
:1032580003F510631A46012393607B681B69012BF1
:1032680032D179687A6A1346DB009B1A9B000B44BB
:103278004833196878687A6A1346DB009B1A9B0002
:10328800034444331B68194478687A6A1346DB00A0
:103298009B1A9B000344483319607B6A002B13D1A7
:1032A80079687A6A1346DB009B1A9B000B445033FB
:1032B8001B68002B08D17B6818687B6803F571735D
:1032C8001A46012103F056FC7B6ADBB2194678687E
:1032D80005F041FC3B6903F00803002B08D07B6A2A
:1032E8005A01FB69134403F510631A4608239360D7
:1032F8003B6903F01003002B08D07B6A5A01FB6975
:10330800134403F510631A46102393603B6903F0D6
:103318004003002B08D07B6A5A01FB69134403F56C
:1033280010631A46402393603B6903F00203002BA5
:1033380008D07B6A5A01FB69134403F510631A46E7
:10334800022393603B6903F08003002B03D0796A62
:10335800786800F00CFC7B6A01337B62BB6A5B080F
:10336800BB62BB6A002B7FF449AF7B681B681846B9
:1033780003F043FB034603F00043B3F1004F14D1BD
:10338800FB6903F500635B68FA6902F5006223F0E4
:1033980001035360786805F055FC7B681B685A691F
:1033A8007B681B6802F000425A617B681B681846FC
:1033B80003F023FB034603F40063B3F5006F12D157
:1033C800FB6903F500639B6803F00103012B02D13D
:1033D800786805F011FC7B681B685A697B681B6874
:1033E80002F400625A617B681B68184603F005FB0B
:1033F800034603F48053B3F5805F40F0C780FB6950
:1034080003F500635B68FA6902F5006223F00103C3
:1034180053607B681B681021184602F0ABFB002341
:10342800FB6256E0FB6A5A01FB69134403F510631B
:103438001A464FF67F339360FB6A5A01FB691344BF
:1034480003F510631B68FA6A5101FA690A4402F528
:10345800106223F400131360FB6A5A01FB691344DA
:1034680003F510631B68FA6A5101FA690A4402F508
:10347800106243F000631360FB6A5A01FB6913444E
:1034880003F530631A464FF67F339360FB6A5A019F
:10349800FB69134403F530631B68FA6A5101FA6942
:1034A8000A4402F5306223F400131360FB6A5A01E0
:1034B800FB69134403F530631B68FA6A5101FA6922
:1034C8000A4402F5306243F000631360FB6A01337B
:1034D800FB627B685B68FA6A9A42A3D3FB6903F5CF
:1034E8000063DB69FA6902F5006243F00113D361F6
:1034F8007B681B6B002B16D0FB6903F50063D3F8C0
:103508008430FA6902F5006243F00B03C2F8843094
:10351800FB6903F500635B6CFA6902F5006243F02E
:103528000B03536415E0FB6903F500635B69FA69F3
:1035380002F5006243F4005343F02B035361FB6927
:1035480003F500631B69FA6902F5006243F00B0397
:103558001361FB6903F500631B68FA6902F50062F1
:1035680023F4FE6313607B6818687B681B69D9B213
:103578007B6803F571731A4603F0FCFA7B681B68D5
:103588005A697B681B6802F480525A617B681B6821
:10359800184603F032FA034603F40053B3F5005F0C
:1035A80024D17B681B68184603F0C2FA7B681B6845
:1035B800184602F03BFB03461A467B68DA607B68D4
:1035C8001C6801F009F901467B68DB68DBB21A4622
:1035D800204602F05DF8786805F0E5FA7B681B681C
:1035E8005A697B681B6802F400525A617B681B6841
:1035F800184603F002FA034603F00803082B0AD121
:10360800786805F0C2FA7B681B685A697B681B6892
:1036180002F008025A617B681B68184603F0EDF94E
:10362800034603F48013B3F5801F0FD100237B6298
:103638007B6ADBB21946786805F024FB7B681B6857
:103648005A697B681B6802F480125A617B681B68A0
:10365800184603F0D2F9034603F40013B3F5001F2C
:103668000FD100237B627B6ADBB21946786805F0CC
:10367800F7FA7B681B685A697B681B6802F40012BA
:103688005A617B681B68184603F0B7F9034603F0D4
:103698008043B3F1804F0AD1786805F005FB7B6859
:1036A8001B685A697B681B6802F080425A617B6814
:1036B8001B68184603F0A1F9034603F00403042B22
:1036C80015D17B681B685B68BB61BB6903F00403A9
:1036D800002B02D0786805F0F5FA7B681B685968FA
:1036E8007B681B68BA690A435A6000E000BF343738
:1036F800BD4690BD80B582B000AF78600B46FB70C8
:103708007B6893F8BC33012B01D1022313E07B685B
:10371800012283F8BC237B68FA7883F838207B6819
:103728001B68FA781146184603F002F97B680022F4
:1037380083F8BC23002318460837BD4680BD80B5F2
:1037480084B000AF7860084611461A460346FB70FD
:103758000B463B801346BB700023FB7297F903307E
:10376800002B0FDAFB7803F00F021346DB009B1ADD
:103778009B0038337A6813440433FB60FB680122EA
:103788005A700FE0FB7803F00F021346DB009B1A18
:103798009B0003F5FC737A6813440433FB60FB68F1
:1037A80000225A70FB7803F00F03DAB2FB681A7034
:1037B8003A88FB689A60FB68BA78DA70FB685B78CD
:1037C800002B04D0FB681B789AB2FB68DA80BB78C0
:1037D800022B02D1FB6800221A717B6893F8BC3374
:1037E800012B01D102230EE07B68012283F8BC2360
:1037F8007B681B68F968184602F03CFA7B6800226F
:1038080083F8BC23FB7A18461037BD4680BD80B5C7
:1038180084B000AF78600B46FB7097F90330002B3B
:103828000FDAFB7803F00F021346DB009B1A9B00AC
:1038380038337A6813440433FB60FB6801225A70FA
:103848000FE0FB7803F00F021346DB009B1A9B0086
:1038580003F5FC737A6813440433FB60FB680022A9
:103868005A70FB7803F00F03DAB2FB681A707B68B2
:1038780093F8BC33012B01D102230EE07B680122AF
:1038880083F8BC237B681B68F968184602F078FA4D
:103898007B68002283F8BC23002318461037BD46F6
:1038A80080BD80B586B000AFF8607A603B600B469B
:1038B800FB72FB7A03F00F021346DB009B1A9B0096
:1038C80003F5FC73FA68134404337B617B697A68F7
:1038D800DA607B693A685A617B6900229A617B6980
:1038E80000225A70FB7A03F00F03DAB27B691A7070
:1038F800FB681B69012B02D17A687B691A61FB7A24
:1039080003F00F03002B09D1FB681868FB681B69DB
:10391800DBB21A46796902F053FD08E0FB681868C3
:10392800FB681B69DBB21A46796902F005FB0023C4
:1039380018461837BD4680BD80B483B000AF7860A4
:103948000B46FB70FB7803F00F0279681346DB0027
:103958009B1A9B000B4403F505731B6818460C372C
:10396800BD4680BC704780B586B000AFF8607A600D
:103978003B600B46FB72FB7A03F00F021346DB0039
:103988009B1A9B003833FA68134404337B617B69C4
:103998007A68DA607B693A685A617B6900229A61C1
:1039A8007B6901225A70FB7A03F00F03DAB27B6954
:1039B8001A70FB681B69012B02D17A687B691A614E
:1039C800FB7A03F00F03002B09D1FB681868FB682A
:1039D8001B69DBB21A46796902F0F2FC08E0FB6861
:1039E8001868FB681B69DBB21A46796902F0A4FA09
:1039F800002318461837BD4680BD80B584B000AF97
:103A080078600B46FB70FB7803F00F027B685B68FD
:103A18009A4201D9012350E097F90330002B0FDABD
:103A2800FB7803F00F021346DB009B1A9B00383328
:103A38007A6813440433FB60FB6801225A700DE076
:103A4800FA781346DB009B1A9B0003F5FC737A682F
:103A580013440433FB60FB6800225A70FB680122A0
:103A68009A70FB7803F00F03DAB2FB681A707B6870
:103A780093F8BC33012B01D102231EE07B6801229D
:103A880083F8BC237B681B68F968184602F07EFE41
:103A9800FB7803F00F03002B0AD17B6818687B685A
:103AA8001B69D9B27B6803F571731A4603F062F893
:103AB8007B68002283F8BC23002318461037BD46D4
:103AC80080BD80B584B000AF78600B46FB70FB7892
:103AD80003F00F027B685B689A4201D9012342E038
:103AE80097F90330002B0FDAFB7803F00F02134627
:103AF800DB009B1A9B0038337A6813440433FB605D
:103B0800FB6801225A700FE0FB7803F00F0213469E
:103B1800DB009B1A9B0003F5FC737A68134404339B
:103B2800FB60FB6800225A70FB6800229A70FB78E1
:103B380003F00F03DAB2FB681A707B6893F8BC33A2
:103B4800012B01D102230EE07B68012283F8BC23FC
:103B58007B681B68F968184602F085FE7B680022BE
:103B680083F8BC23002318461037BD4680BD80B5B6
:103B78008AB002AF786039607B681B687B617B69BB
:103B88003B613A681346DB009B1A9B0038337A681E
:103B980013440433FB60FB689A69FB685B699A42CB
:103BA80001D901236CE0FB685A69FB689B69D31A49
:103BB800FB61FB689B68FA699A4202D9FB689B68BB
:103BC800FB61FB6903339B08BB612BE0FB685A6907
:103BD800FB689B69D31AFB61FB689B68FA699A4288
:103BE80002D9FB689B68FB61FB6903339B08BB61D7
:103BF800FB68D9683B68DAB2FB6998B27B681B69D5
:103C0800DBB200930346786902F02CFDFB68DA68A2
:103C1800FB691A44FB68DA60FB689A69FB691A4415
:103C2800FB689A613B685A013B69134403F51063CA
:103C38009B699BB2BA699A4209D8FB689A69FB6882
:103C48005B699A4203D2FB685B69002BBED1FB68B3
:103C58005A69FB689B699A4211D83B6803F00F03C5
:103C6800012202FA03F3BB603B6903F500635A6B58
:103C7800BB68DB43396901F5006113404B630023DE
:103C880018462037BD4680BD80B586B000AF786045
:103C980039607B681B687B617B693B617B693C336E
:103CA80004331B68FB603B685A013B69134403F506
:103CB80030639B68BB607B681B69012B40F0A08068
:103CC800BB6803F00803002B15D0FB68724A9342C7
:103CD80040F2DD80BB6803F40043002B00F0D7807E
:103CE8003B685A013B69134403F530631A464FF4A5
:103CF80000439360CBE0BB6803F02003002B09D09E
:103D08003B685A013B69134403F530631A46202384
:103D18009360BCE0BB6803F02803002B40F0B78039
:103D2800FB685D4A93420FD9BB6803F40043002B3C
:103D38000AD03B685A013B69134403F530631A46BD
:103D48004FF400439360A2E079683A681346DB00B9
:103D58009B1A9B000B4403F501731A683B685901D1
:103D68003B690B4403F530631B69C3F31203D11A93
:103D780078683A681346DB009B1A9B00034403F5F6
:103D88000573196079683A681346DB009B1A9B0033
:103D98000B4403F50273196878683A681346DB0028
:103DA8009B1A9B00034403F501731B681944786848
:103DB8003A681346DB009B1A9B00034403F5027321
:103DC80019603B68002B14D179683A681346DB0008
:103DD8009B1A9B000B4403F504731B68002B08D146
:103DE8007B6818687B6803F571731A46012102F035
:103DF800C1FE3B68DBB21946786804F091FE46E0E4
:103E0800FB68264A934224D1BB6803F40043002B85
:103E18000AD03B685A013B69134403F530631A46DC
:103E28004FF40043936032E0BB6803F02003002B9B
:103E380008D03B685A013B69134403F530631A46BE
:103E4800202393603B68DBB21946786804F068FE6B
:103E58001DE03B68002B14D179683A681346DB00F3
:103E68009B1A9B000B4403F504731B68002B08D1B5
:103E78007B6818687B6803F571731A46002102F0A5
:103E880079FE3B68DBB21946786804F049FE0023E6
:103E980018461837BD4680BD0A30544F0A31544F72
:103EA80080B586B000AF786039607B681B687B613D
:103EB8007B693B617B693C3304331B68FB603B686F
:103EC8005A013B69134403F530639B68BB60FB6888
:103ED800154A93420ED9BB6803F40043002B09D05E
:103EE8003B685A013B69134403F530631A464FF4A3
:103EF80000439360786804F001FEFB680A4A934225
:103F08000CD97B681B69012B08D17B6818687B6812
:103F180003F571731A46012102F02CFE002318469E
:103F28001837BD4680BD00BF0A30544F80B485B0F5
:103F380000AF78600B46FB7013463B807B681B68BC
:103F48005B6ABB60FB78002B07D13B8819047B6850
:103F58001B68BA680A439A6228E07B681B689B6AF8
:103F68001B0CBA681344BB600023FB730DE07B682D
:103F78001A68FB7B40339B0013445B681B0CBA68D0
:103F88001344BB60FB7B0133FB73FA7BFB78013B7B
:103F98009A42ECD33B8818047B681968FB78013B8C
:103FA800BA68024340339B000B445A60002318460A
:103FB8001437BD4680BC704780B483B000AF7860CA
:103FC8000B467B807B681B687A885A6200231846F8
:103FD8000C37BD4680BC704780B58AB000AF7860AA
:103FE8007B68002B01D1012336E27B681B6803F054
:103FF8000103002B50D09E4B9B6803F00C03042B4D
:104008000CD09B4B9B6803F00C03082B12D1984BE8
:104018005B6803F48003B3F5800F0BD1944B1B68E6
:1040280003F40033002B36D07B685B68002B32D159
:10403800012311E27B685A688E4BD2B21A707B68F2
:104048005B68002B13D0FDF7DBFD386208E0FDF755
:10405800D7FD02463B6AD31A642B01D90323FBE13F
:10406800834B1B6803F40033002BF0D014E0FDF7FA
:10407800C7FD386208E0FDF7C3FD02463B6AD31A64
:10408800642B01D90323E7E1794B1B6803F4003360
:10409800002BF0D100E000BF7B681B6803F002032F
:1040A800002B77D0724B9B6803F00C03002B0BD0CE
:1040B8006F4B9B6803F00C03082B26D16C4B5B6895
:1040C80003F48003002B20D1694B1B6803F0020323
:1040D800002B05D07B68DB68012B01D00123BBE1F5
:1040E800634B1B6823F0F8027B681B69F821B961F0
:1040F800B96991FAA1F179617969B1FA81F1C9B225
:104108008B405B4913430B6044E07B68DB68002B02
:104118002AD0594B01221A60FDF772FD386208E077
:10412800FDF76EFD02463B6AD31A022B01D9032321
:1041380092E14F4B1B6803F00203002BF0D04C4B6D
:104148001B6823F0F8027B681B69F821396139691B
:1041580091FAA1F1F960F968B1FA81F1C9B28B401D
:10416800434913430B6015E0434B00221A60FDF7E7
:1041780047FD386208E0FDF743FD02463B6AD31A63
:10418800022B01D9032367E1394B1B6803F00203B3
:10419800002BF0D17B681B6803F00803002B30D09C
:1041A8007B685B69002B16D0344B01221A60FDF73F
:1041B80027FD386208E0FDF723FD02463B6AD31A63
:1041C800022B01D9032347E1294B5B6F03F002035C
:1041D800002BF0D015E0294B00221A60FDF710FDE6
:1041E800386208E0FDF70CFD02463B6AD31A022B41
:1041F80001D9032330E11E4B5B6F03F00203002B50
:10420800F0D17B681B6803F00403002B00F0878063
:10421800002387F82730164B1B6C03F08053002BC4
:1042280010D10023BB60124B1B6C114A43F0805322
:1042380013640F4B1B6C03F08053BB60BB680123F6
:1042480087F827300E4B1B680D4A43F480731360C0
:104258000B4B1B6803F48073002B22D1084B1B689F
:10426800074A43F480731360FDF7CAFC386212E012
:10427800003802400238024000004742800E4742A0
:1042880000700040FDF7BCFC02463B6AD31A022BC3
:1042980001D90323E0E0724B1B6803F48073002B01
:1042A800F0D07B689A686F4BD2B21A707B689B68B3
:1042B800002B15D0FDF7A4FC38620AE0FDF7A0FC3E
:1042C80002463B6AD31A41F28832934201D903234A
:1042D800C2E0654B1B6F03F00203002BEED014E025
:1042E800FDF78EFC38620AE0FDF78AFC02463B6A5D
:1042F800D31A41F28832934201D90323ACE05A4BD6
:104308001B6F03F00203002BEED197F82730012B27
:1043180005D1554B1B6C544A23F0805313647B68BA
:104328009B69002B00F097804F4B9B6803F00C03B0
:10433800082B61D07B689B69022B46D14B4B00222E
:104348001A60FDF75DFC386208E0FDF759FC02468B
:104358003B6AD31A642B01D903237DE0424B1B68C7
:1043680003F00073002BF0D13F4B5A68404B1340C9
:104378007A68D1697A68126A11437A68526A920136
:1043880011437A68D26A120611437A68926A52080F
:10439800013A12040A43344913434B60334B012258
:1043A8001A60FDF72DFC386208E0FDF729FC02468B
:1043B8003B6AD31A642B01D903234DE02A4B1B68AF
:1043C80003F00073002BF0D045E0284B00221A6060
:1043D800FDF716FC386208E0FDF712FC02463B6A5E
:1043E800D31A642B01D9032336E01F4B1B6803F053
:1043F8000073002BF0D12EE07B689B69012B01D163
:10440800012329E0184B5B68FB61FB6903F4800218
:104418007B68DB699A421CD1FB6903F03F027B6829
:104428001B6A9A4215D1FB699B09C3F308027B6892
:104438005B6A9A420DD1FB6903F440327B689B6A40
:104448009A4206D1FB6903F070627B68DB6A9A4284
:1044580001D0012300E0002318462837BD4680BD5F
:104468000070004070380240003802406000474247
:104478000080BCF080B586B000AF786039607B689A
:10448800002B01D10123D2E06B4B1B6803F00F0313
:104498003A689A420CD9684B3A68D2B21A70664B9D
:1044A8001B6803F00F033A689A4201D00123BEE06B
:1044B8007B681B6803F00203002B20D07B681B6815
:1044C80003F00403002B05D05C4B9B685B4A43F464
:1044D800E05393607B681B6803F00803002B05D04A
:1044E800564B9B68554A43F460439360534B9B6813
:1044F80023F0F0027B689B68504913438B607B680C
:104508001B6803F00103002B40D07B685B68012B1C
:1045180007D14A4B1B6803F40033002B15D1012344
:1045280085E07B685B68022B07D1444B1B6803F06E
:104538000073002B09D1012379E0404B1B6803F07D
:104548000203002B01D1012371E03C4B9B6823F04F
:1045580003027B685B68394913438B60FDF750FBA6
:1045680078610AE0FDF74CFB02467B69D31A41F2F9
:104578008832934201D9032359E0304B9B6803F0FA
:104588000C027B685B689B009A42EBD12A4B1B6844
:1045980003F00F033A689A420CD2274B3A68D2B21A
:1045A8001A70254B1B6803F00F033A689A4201D032
:1045B80001233CE07B681B6803F00403002B08D050
:1045C8001E4B9B6823F4E0527B68DB681B4913434E
:1045D8008B607B681B6803F00803002B09D0174B1E
:1045E8009B6823F460427B681B69DB001349134313
:1045F8008B6000F02BF80146104B9B6803F0F0032A
:10460800F0223A613A6992FAA2F2FA60FA68B2FACA
:1046180082F2D2B2D3400A4AD35C21FA03F3094AA0
:104628001360094B1B681846FDF7A8FA00231846C3
:104638001837BD4680BD00BF003C0240003802402C
:10464800A8D9000800000020240000202DE9B04F60
:1046580090B000AF00237B630023FB6300233B6320
:104668000023BB63594B9B6803F00C03082B0DD048
:10467800082B00F2A280002B02D0042B03D09CE070
:10468800534BBB639CE0534BBB6399E04F4B5B6858
:1046980003F03F037B634D4B5B6803F48003002BFF
:1046A80027D04A4B5B689B0900223B627A623B6ACF
:1046B800C3F308000021474B03FB01F2002300FB72
:1046C80003F31344434AA0FB0221F962BA62FA6A6F
:1046D8001344FB627B6B0022BB61FA61D7E90623B6
:1046E800D7E90A01FCF778FA02460B461346FB6342
:1046F80055E0364B5B689B0900223B617A613B6958
:10470800C3F3080A4FF0000B52465B464FF0000017
:104718004FF00001590141EAD261500102460B46AF
:10472800B2EB0A0863EB0B094FF000024FF00003ED
:104738004FEA891343EA98634FEA8812B2EB0804F8
:1047480063EB09054FF000024FF00003EB0043EA6A
:104758005473E20014461D4614EB0A033B6045EB14
:104768000B037B604FF000024FF00003D7E90045D0
:1047780029468B0220462946044643EA94530146BB
:104788008A02104619467B6B0022BB60FA60D7E9A3
:104798000223FCF721FA02460B461346FB630B4B38
:1047A8005B681B0C03F0030301335B003B63FA6B8C
:1047B8003B6BB2FBF3F3BB6302E0054BBB6300BF8B
:1047C800BB6B18464037BD46BDE8B08F0038024085
:1047D8000024F40040787D0180B400AF024B1B68D0
:1047E8001846BD4680BC70470000002080B582B0E6
:1047F80000AFFFF7F1FF01460B4B9B6803F4E05352
:104808004FF4E0527A607A6892FAA2F23A603A6813
:10481800B2FA82F2D2B2D340044AD35C21FA03F34B
:1048280018460837BD4680BD00380240B8D9000890
:1048380080B582B000AFFFF7CFFF01460B4B9B68F6
:1048480003F460434FF460427A607A6892FAA2F205
:104858003A603A68B2FA82F2D2B2D340044AD35CE0
:1048680021FA03F318460837BD4680BD00380240D8
:10487800B8D9000880B582B000AF78607B68002B9B
:1048880001D101233FE07B6893F83D30DBB2002B78
:1048980006D17B68002283F83C207868FDF796F8FB
:1048A8007B68242283F83D207B681B68DA687B6874
:1048B8001B6822F40052DA60786800F0A7FD7B6874
:1048C8001B681A697B681B6822F490421A617B682E
:1048D8001B685A697B681B6822F02A025A617B6848
:1048E8001B68DA687B681B6842F40052DA607B68F0
:1048F80000221A647B68202283F83D207B682022EE
:1049080083F83E20002318460837BD4680BD80B591
:1049180082B000AF78607B68002B01D1012321E0D1
:104928007B68242283F83D207B681B68DA687B68F3
:104938001B6822F40052DA607868FDF7CBF87B68D0
:1049480000221A647B68002283F83D207B680022DD
:1049580083F83E207B6800221A637B68002283F874
:104968003C20002318460837BD4680BD80B58AB074
:1049780002AFF860B9603B601346FB8000237B619F
:10498800FB6893F83D30DBB2202B7CD1BB68002B51
:1049980002D0FB88002B01D1012375E0FB6893F856
:1049A8003C30012B01D102236EE0FB68012283F821
:1049B8003C20FB6800221A64FB68212283F83D2012
:1049C800FDF71EF97861FB68FA889A84FB68FA8813
:1049D800DA84FB689B68B3F5805F08D1FB681B69C4
:1049E800002B04D10023FB61BB68BB6103E0BB68FB
:1049F800FB610023BB61FB68002283F83C202AE0AE
:104A08003B6800937B6900228021F86800F0E9FA8E
:104A18000346002B01D0032336E0FB69002B0BD1A2
:104A2800BB691B881A46FB681B68C2F308025A60F8
:104A3800BB690233BB6107E0FB691A78FB681B6836
:104A48005A60FB690133FB61FB68DB8C9BB2013B5D
:104A58009AB2FB68DA84FB68DB8C9BB2002BCFD15F
:104A68003B6800937B6900224021F86800F0B9FA9E
:104A78000346002B01D0032306E0FB68202283F8BD
:104A88003D20002300E0022318462037BD4680BDA4
:104A980080B584B000AFF860B9601346FB80FB684E
:104AA80093F83E30DBB2202B1DD1BB68002B02D01F
:104AB800FB88002B01D1012316E0FB6893F83C30FA
:104AC800012B01D102230FE0FB68012283F83C206F
:104AD800FB6800221A63FB881A46B968F86800F078
:104AE800CBFA034600E0022318461037BD4680BDC6
:104AF80080B58AB000AF78607B681B681B687B62F2
:104B08007B681B68DB683B627B681B685B69FB61D1
:104B18000023BB6100237B617B6A03F00F03BB6149
:104B2800BB69002B0DD17B6A03F02003002B08D052
:104B38003B6A03F02003002B03D0786800F0BCFB2D
:104B48007CE1BB69002B00F0B180FB6903F0010335
:104B5800002B05D13B6A03F49073002B00F0A6806C
:104B68007B6A03F00103002B0AD03B6A03F48073CD
:104B7800002B05D07B681B6C43F001027B681A642C
:104B88007B6A03F00403002B0AD0FB6903F00103DE
:104B9800002B05D07B681B6C43F002027B681A640B
:104BA8007B6A03F00203002B0AD0FB6903F00103C0
:104BB800002B05D07B681B6C43F004027B681A64E9
:104BC8007B6A03F00803002B0FD03B6A03F0200335
:104BD800002B04D1FB6903F00103002B05D07B688F
:104BE8001B6C43F008027B681A647B681B6C002B03
:104BF80000F01F817B6A03F02003002B07D03B6A7B
:104C080003F02003002B02D0786800F055FB7B6886
:104C18001B685B6903F04003402B0CBF0123002392
:104C2800DBB27B617B681B6C03F00803002B02D1AD
:104C38007B69002B31D0786800F097FA7B681B6895
:104C48005B6903F04003402B23D17B681B685A69DA
:104C58007B681B6822F040025A617B689B6B002BC3
:104C680013D07B689B6B774A1A657B689B6B1846E9
:104C7800FDF708FB0346002B16D07B689B6B1B6D6A
:104C88007A68926B104698470EE07868FCF795FEB4
:104C98000AE07868FCF791FE06E07868FCF78DFE7C
:104CA8007B6800221A64C4E000BFC2E07B681B6B0B
:104CB800012B40F0A2807B6A03F01003002B00F068
:104CC8009C803B6A03F01003002B00F096800023C1
:104CD800FB607B681B681B68FB607B681B685B6804
:104CE800FB60FB687B681B685B6903F04003402B33
:104CF8004FD17B689B6B1B685B683B823B8A002BB0
:104D080000F099807B689B8D3A8A9A4280F0938064
:104D18007B683A8ADA857B689B6BDB69B3F5807FB1
:104D28002BD07B681B68DA687B681B6822F480726A
:104D3800DA607B681B685A697B681B6822F001028D
:104D48005A617B681B685A697B681B6822F04002BD
:104D58005A617B68202283F83E207B6800221A6310
:104D68007B681B68DA687B681B6822F01002DA60CF
:104D78007B689B6B1846FDF715FA7B689A8D7B68F4
:104D8800DB8D9BB2D31A9BB21946786800F06EF897
:104D980051E07B689A8D7B68DB8D9BB2D31A7B824E
:104DA8007B68DB8D9BB2002B47D07B8A002B44D0DD
:104DB8007B681B68DA687B681B6822F49072DA608B
:104DC8007B681B685A697B681B6822F001025A617C
:104DD8007B68202283F83E207B6800221A637B6868
:104DE8001B68DA687B681B6822F01002DA607B8A2D
:104DF8001946786800F03AF81FE07B6A03F08003F0
:104E0800002B08D03B6A03F08003002B03D078689E
:104E180000F0EBF912E07B6A03F04003002B0DD0A1
:104E28003B6A03F04003002B08D0786800F02CFAA6
:104E380004E000BF02E000BF00E000BF2837BD4625
:104E480080BD00BFCB51000880B483B000AF78604C
:104E580000BF0C37BD4680BC704780B483B000AF3C
:104E6800786000BF0C37BD4680BC704780B483B003
:104E780000AF78600B467B8000BF0C37BD4680BC16
:104E8800704780B584B000AF78607B689B6BFB602F
:104E98007B681B681B6803F48073002B2AD1FB68AE
:104EA8000022DA85FB681B68DA68FB681B6822F455
:104EB8008072DA60FB681B685A69FB681B6822F01D
:104EC80001025A61FB681B685A69FB681B6822F07B
:104ED80040025A61FB68202283F83E20FB681B6B66
:104EE800012B07D1FB681B68DA68FB681B6822F096
:104EF8001002DA60FB681B6B012B06D1FB689B8DE7
:104F08001946F868FFF7B2FF02E0F868FCF74CFDB5
:104F180000BF1037BD4680BD80B584B000AF786053
:104F28007B689B6BFB60FB681B6B012B08D1FB68E4
:104F38009B8D5B089BB21946F868FFF797FF02E064
:104F4800F868FFF78AFF00BF1037BD4680BD80B5FF
:104F580084B000AF78600023FB607B689B6BBB600C
:104F6800BB681B685B6903F08003802B0CBF0123BF
:104F78000023DBB2FB60BB6893F83D30DBB2212B2A
:104F880008D1FB68002B05D0BB680022DA84B8681A
:104F980000F0D6F8BB681B685B6903F04003402B40
:104FA8000CBF01230023DBB2FB60BB6893F83E30E3
:104FB800DBB2222B08D1FB68002B05D0BB6800228E
:104FC800DA85B86800F0D1F8BB681B6C43F01002B2
:104FD800BB681A64B868FCF7F0FC00BF1037BD4620
:104FE80080BD80B584B000AFF860B9603B601346FF
:104FF800FB712CE0BB69B3F1FF3F28D0BB69002BE4
:1050080007D0FCF7FDFD02463B68D31ABA699A42FD
:105018001DD2FB681B68DA68FB681B6822F4D07233
:10502800DA60FB681B685A69FB681B6822F001029A
:105038005A61FB68202283F83D20FB68202283F810
:105048003E20FB68002283F83C2003230FE0FB6826
:105058001B681A68BB681340BA689A420CBF0123E0
:105068000023DBB21A46FB799A42C3D000231846C4
:105078001037BD4680BD000080B586B000AFF8602F
:10508800B9601346FB80BA68FB689A62FB68FA88C5
:105098009A85FB6800221A64FB68222283F83E2066
:1050A800FB689B6B234ADA63FB689B6B224A1A6492
:1050B800FB689B6B214ADA64FB689B6B00221A65CC
:1050C80007F108037B61FB68986BFB681B68043376
:1050D80019467B691A68FB88FDF70CF800233B61C9
:1050E800FB681B681B683B61FB681B685B683B616E
:1050F8003B69FB68002283F83C20FB681B68DA6880
:10510800FB681B6842F48072DA60FB681B685A69A6
:10511800FB681B6842F001025A61FB681B685A6908
:10512800FB681B6842F040025A6100231846183792
:10513800BD4680BD8B4E0008214F0008574F000820
:1051480080B483B000AF78607B681B68DA687B68DE
:105158001B6822F0C002DA607B68202283F83D20B9
:1051680000BF0C37BD4680BC704780B483B000AF29
:1051780078607B681B68DA687B681B6822F4907229
:10518800DA607B681B685A697B681B6822F0010239
:105198005A617B681B6B012B07D17B681B68DA6837
:1051A8007B681B6822F01002DA607B68202283F893
:1051B8003E207B6800221A6300BF0C37BD4680BCC6
:1051C800704780B584B000AF78607B689B6BFB60EC
:1051D800FB680022DA85FB680022DA84F868FCF7AD
:1051E800ECFB00BF1037BD4680BD80B485B000AF72
:1051F80078607B6893F83D30DBB2212B3ED17B6829
:105208009B68B3F5805F14D17B681B69002B10D1B4
:105218007B681B6AFB60FB681B881A467B681B68F7
:10522800C2F308025A607B681B6A9A1C7B681A6280
:1052380008E07B681B6A591C7A6811621A787B68D7
:105248001B685A607B68DB8C9BB2013B9BB27A6817
:105258001946D184002B0FD17B681B68DA687B68FC
:105268001B6822F08002DA607B681B68DA687B685A
:105278001B6842F04002DA60002300E0022318466F
:105288001437BD4680BC704780B582B000AF7860E7
:105298007B681B68DA687B681B6822F04002DA606A
:1052A8007B68202283F83D207868FFF7CDFD002336
:1052B80018460837BD4680BD80B586B000AF786017
:1052C8007B6893F83E30DBB2222B40F099807B68F4
:1052D8009B68B3F5805F17D17B681B69002B13D1DE
:1052E80000237B617B689B6A3B617B681B685B680A
:1052F8009BB2C3F308039AB23B691A807B689B6A26
:105308009A1C7B689A6226E07B689B6A7B61002313
:105318003B617B689B68B3F5805F07D07B689B68BF
:10532800002B0AD17B681B69002B06D17B681B68A0
:105338005B68DAB27B691A7008E07B681B685B6897
:10534800DBB203F07F03DAB27B691A707B689B6A71
:105358005A1C7B689A627B68DB8D9BB2013B9BB2CF
:105368007A681946D185002B48D17B681B68DA68B2
:105378007B681B6822F02002DA607B681B68DA68A9
:105388007B681B6822F48072DA607B681B685A6944
:105398007B681B6822F001025A617B68202283F82F
:1053A8003E207B681B6B012B23D17B6800221A638C
:1053B8007B681B68DA687B681B6822F01002DA6079
:1053C8007B681B681B6803F01003102B0AD10023AD
:1053D800FB607B681B681B68FB607B681B685B68FD
:1053E800FB60FB687B689B8D19467868FFF73EFD7C
:1053F80002E07868FCF7D8FA002302E0002300E016
:10540800022318461837BD4680BD000080B584B019
:1054180000AF78607B681B681B6923F440517B6888
:10542800DA687B681B680A431A617B689A687B683C
:105438001B691A437B685B691A437B68DB69134302
:10544800BB607B681B68DB6823F4164323F00C03FE
:105458007A681268B9680B43D3607B681B685B691C
:1054680023F440717B689A697B681B680A435A6118
:105478007B681B68574A934204D07B681B68564A6E
:10548800934203D1FFF7D4F9F86002E0FFF7AEF9D1
:10549800F8607B68DB69B3F5004F4CD1FA681346B6
:1054A8009B0013449A001A447B685B685B00B2FB5C
:1054B800F3F34A4AA2FB03235B091901FA6813466E
:1054C8009B0013449A001A447B685B685B00B2FB3C
:1054D800F3F2424BA3FB02035B09642000FB03F3D6
:1054E800D31ADB0032333D4AA2FB03235B095B007E
:1054F80003F4F8731944FA6813469B0013449A009E
:105508001A447B685B685B00B2FBF3F2334BA3FB86
:1055180002035B09642000FB03F3D31ADB00323378
:105528002E4AA2FB03235B0903F007027B681B6872
:105538000A449A604AE0FA6813469B0013449A00AA
:105548001A447B685B689B00B2FBF3F3234AA2FB17
:1055580003235B091901FA6813469B0013449A0058
:105568001A447B685B689B00B2FBF3F21B4BA3FBFE
:1055780002035B09642000FB03F3D31A1B013233D7
:10558800164AA2FB03235B0903F0F0031944FA68E7
:1055980013469B0013449A001A447B685B689B007F
:1055A800B2FBF3F20D4BA3FB02035B09642000FB83
:1055B80003F3D31A1B013233084AA2FB03235B0906
:1055C80003F00F027B681B680A449A6000BF10371B
:1055D800BD4680BD00100140001401401F85EB51FD
:1055E80084B080B584B000AF786007F11C0080E813
:1055F8000E003B6B012B22D17B689B6B23F480321E
:105608007B689A637B68DB6823F4840323F0400398
:105618007A68D3607B68DB6823F440127B68DA60C1
:10562800FB6C012B05D17B68DB6843F480127B6837
:10563800DA60786801F0FAFA0346FB7310E07B68D9
:10564800DB6843F040027B68DA60786801F0EEFAC4
:105658000346FB737B689B6B43F480327B689A63D9
:10566800BB6A012B0BD17B689B6843F006027B6801
:105678009A607B689B6843F020027B689A60FB7B9A
:1056880018461037BD46BDE8804004B0704700009A
:1056980080B487B000AFF860B9601346FB71FB793E
:1056A800022B65D1BB68414A934206D9BB68404A80
:1056B800934202D20F237B6162E0BB683C4A93426B
:1056C80006D3BB683B4A934202D20E237B6157E064
:1056D800BB68384A934206D3BB68374A934202D222
:1056E8000D237B614CE0BB68334A934206D3BB6809
:1056F800324A934202D80C237B6141E0BB682F4AAF
:10570800934206D9BB682E4A934202D80B237B6189
:1057180036E0BB682A4A934206D9BB68294A9342B5
:1057280002D80A237B612BE0BB68264A934206D93C
:10573800BB68254A934202D209237B6120E0BB68FB
:10574800214A934206D3BB68204A934202D80823D1
:105758007B6115E0BB681D4A934206D9BB681C4AA9
:10576800934202D207237B610AE006237B6107E0AC
:10577800FB79002B02D109237B6101E009237B61BE
:10578800FB68DB6823F47052FB68DA60FB68DA6850
:105798007B699B0203F470531A43FB68DA600023A9
:1057A80018461C37BD4680BC704700BFBFACD80048
:1057B800C0E1E4000024F400807306019F491A0147
:1057C800FF2C31013FA44C0100366E011FABA6012E
:1057D8000048E80180B483B000AF78607B689B68BC
:1057E80043F001027B689A60002318460C37BD46D7
:1057F80080BC704780B483B000AF78607B689B68DA
:1058080023F001027B689A60002318460C37BD46D6
:1058180080BC704780B584B000AF78600B46FB70E1
:105828000023FB607B68DB6823F0C0427B68DA609A
:10583800FB78012B15D17B68DB6843F000527B684D
:10584800DA600120FCF7E6F9FB680133FB60786851
:1058580001F061F90346012B1ED0FB68312BF0D90A
:105868001AE0FB78002B15D17B68DB6843F0804297
:105878007B68DA600120FCF7CDF9FB680133FB6037
:10588800786801F048F90346002B05D0FB68312BF6
:10589800F0D901E0012305E0FB68322B01D1012397
:1058A80000E0002318461037BD4680BD84B080B59F
:1058B80086B000AF786007F1240080E80E0000236E
:1058C800FB757B68FB6000233B6109E07A683B69F4
:1058D80040339B00134400225A603B6901333B610B
:1058E8003B690E2BF2D9FB6C002B1CD1FB6803F52E
:1058F80000635B68FA6802F5006243F002035360D4
:105908007B689B6B43F400127B689A637B689B6B94
:1059180023F400227B689A637B689B6B23F48022C4
:105928007B689A630BE07B689B6B23F400127B68AF
:105938009A637B689B6B43F400227B689A63FB68DD
:1059480003F560631A4600231360FB6803F50063E0
:105958001946FB6803F500631A460B681360BB6BB6
:10596800012B0CD1FB6A002B04D10021786800F0D0
:1059780045F908E00121786800F040F903E00321C7
:10598800786800F03BF91021786800F0F3F80346D6
:10599800002B01D00123FB75786800F00FF903464E
:1059A800002B01D00123FB75FB6803F500631A4641
:1059B80000231361FB6803F500631A460023536153
:1059C800FB6803F500631A460023D36100233B619B
:1059D80043E03B695A01FB68134403F510631B68F5
:1059E80003F00043B3F1004F18D13B69002B0AD1F3
:1059F8003B695A01FB68134403F510631A464FF0DC
:105A08000063136013E03B695A01FB68134403F514
:105A180010631A464FF09043136008E03B695A013F
:105A2800FB68134403F510631A46002313603B69AF
:105A38005A01FB68134403F510631A4600231361E7
:105A48003B695A01FB68134403F510631A464FF685
:105A58007F3393603B6901333B617B6A3A699A42C1
:105A6800B7D300233B6143E03B695A01FB68134409
:105A780003F530631B6803F00043B3F1004F18D1FE
:105A88003B69002B0AD13B695A01FB68134403F5B3
:105A980030631A464FF00063136013E03B695A0104
:105AA800FB68134403F530631A464FF090431360C4
:105AB80008E03B695A01FB68134403F530631A4652
:105AC800002313603B695A01FB68134403F53063F4
