:020000040800F2
:100000000000022069160008511400085714000867
:100010005D14000863140008691400080000000063
:100020000000000000000000000000006F14000845
:100030007B140008000000008714000893140008D7
:10004000B9160008B9160008B9160008B916000854
:10005000B9160008B9160008B9160008B916000844
:10006000B9160008B9160008B9160008B916000834
:10007000A1140008B9160008B9160008B91600083E
:10008000B9160008B9160008B9160008B916000814
:10009000B9160008B9160008B9160008B916000804
:1000A000B9160008B9160008B9160008B9160008F4
:1000B000B9160008B9160008292C0008B91600085E
:1000C000B9160008B9160008B9160008B9160008D4
:1000D000B9160008B9160008B9160008B5140008CA
:1000E000B9160008B9160008B9160008B9160008B4
:1000F000B9160008B9160008B9160008B9160008A4
:10010000B9160008B9160008B9160008B916000893
:10011000B9160008B9160008B9160008B916000883
:10012000B9160008B9160008B9160008B916000873
:10013000B9160008B9160008B9160008B916000863
:10014000B9160008B9160008B9160008C914000845
:10015000B9160008B9160008B9160008B916000843
:10016000B9160008B9160008B9160008B916000833
:10017000B9160008B9160008B916000800000000FA
:04018000B9160008A4
:1001880010B5054C237833B9044B13B10448AFF3C9
:1001980000800123237010BD180400200000000017
:1001A80014FB000808B5034B1BB103490348AFF320
:1001B800008008BD000000001C04002014FB00089B
:1001C80010F8012B11F8013B012A28BF9A42F7D0F9
:1001D800D01A7047034613F8012B002AFBD1181ACE
:1001E8000138704781F0004102E000BF83F000430E
:1001F80030B54FEA41044FEA430594EA050F08BFBA
:1002080090EA020F1FBF54EA000C55EA020C7FEA7D
:10021800645C7FEA655C00F0E2804FEA5454D4EBFA
:100228005555B8BF6D420CDD2C4480EA020281EAC4
:10023800030382EA000083EA010180EA020281EAFC
:100248000303362D88BF30BD11F0004F4FEA01314E
:100258004FF4801C4CEA113102D0404261EB41015D
:1002680013F0004F4FEA03334CEA133302D05242E3
:1002780063EB430394EA050F00F0A780A4F101049F
:10028800D5F1200E0DDB02FA0EFC22FA05F28018D9
:1002980041F1000103FA0EF2801843FA05F35941BF
:1002A8000EE0A5F120050EF1200E012A03FA0EFC3E
:1002B80028BF4CF0020C43FA05F3C01851EBE37168
:1002C80001F0004507D54FF0000EDCF1000C7EEB85
:1002D80000006EEB0101B1F5801F1BD3B1F5001FC3
:1002E8000CD349085FEA30004FEA3C0C04F10104E2
:1002F8004FEA445212F5800F80F09A80BCF1004F0B
:1003080008BF5FEA500C50F1000041EB045141EA8C
:10031800050130BD5FEA4C0C404141EB0101013C55
:1003280028BFB1F5801FE9D291F0000F04BF014644
:100338000020B1FA81F308BF2033A3F10B03B3F116
:1003480020020CDA0C3208DD02F1140CC2F10C02A6
:1003580001FA0CF021FA02F10CE002F11402D8BF04
:10036800C2F1200C01FA02F120FA0CFCDCBF41EAD0
:100378000C019040E41AA2BF01EB0451294330BD9F
:100388006FEA04041F3C1CDA0C340EDC04F114047C
:10039800C4F1200220FA04F001FA02F340EA030053
:1003A80021FA04F345EA030130BDC4F10C04C4F199
:1003B800200220FA02F001FA04F340EA0300294679
:1003C80030BD21FA04F0294630BD94F0000F83F4C3
:1003D800801306BF81F480110134013D4EE77FEAA6
:1003E800645C18BF7FEA655C29D094EA050F08BFF2
:1003F80090EA020F05D054EA000C04BF19461046D3
:1004080030BD91EA030F1EBF0021002030BD5FEA16
:10041800545C05D14000494128BF41F0004130BD3E
:1004280014F580043CBF01F5801130BD01F0004592
:1004380045F0FE4141F470014FF0000030BD7FEA05
:10044800645C1ABF194610467FEA655C1CBF0B4600
:10045800024650EA013406BF52EA033591EA030F17
:1004680041F4002130BD00BF90F0000F04BF00210F
:10047800704730B54FF4806404F132044FF0000542
:100488004FF0000150E700BF90F0000F04BF0021BB
:10049800704730B54FF4806404F1320410F0004521
:1004A80048BF40424FF000013EE700BF42004FEA1C
:1004B800E2014FEA31014FEA02701FBF12F07F4399
:1004C80093F07F4F81F06051704732F07F4208BF50
:1004D800704793F07F4F04BF41F40021704730B557
:1004E8004FF4607401F0004521F000411CE700BFA3
:1004F80050EA010208BF704730B54FF000050AE026
:1005080050EA010208BF704730B511F0004502D526
:10051800404261EB41014FF4806404F132045FEA28
:10052800915C3FF4D8AE4FF003025FEADC0C18BFD1
:1005380003325FEADC0C18BF033202EBDC02C2F1C3
:10054800200300FA03FC20FA02F001FA03FE40EA55
:100558000E0021FA02F11444BDE600BF70B54FF059
:10056800FF0C4CF4E06C1CEA11541DBF1CEA135537
:1005780094EA0C0F95EA0C0F00F0DEF82C4481EA9F
:10058800030621EA4C5123EA4C5350EA013518BFBF
:1005980052EA033541F4801143F4801338D0A0FBAC
:1005A80002CE4FF00005E1FB02E506F00042E0FB59
:1005B80003E54FF00006E1FB03569CF0000F18BF5F
:1005C8004EF0010EA4F1FF04B6F5007F64F5407407
:1005D80004D25FEA4E0E6D4146EB060642EAC6219A
:1005E80041EA55514FEAC52040EA5E504FEACE2E07
:1005F800B4F1FD0C88BFBCF5E06F1ED8BEF1004F0A
:1006080008BF5FEA500E50F1000041EB045170BD85
:1006180006F0004646EA010140EA020081EA0301C9
:10062800B4EB5C04C2BFD4EB0C0541EA045170BDC5
:1006380041F480114FF0000E013C00F3AB8014F13F
:10064800360FDEBF002001F0004170BDC4F1000488
:10065800203C35DA0C341BDC04F11404C4F1200509
:1006680000FA05F320FA04F001FA05F240EA020064
:1006780001F0004221F0004110EBD37021FA04F69A
:1006880042EB06015EEA430E08BF20EAD37070BD54
:10069800C4F10C04C4F1200500FA04F320FA05F0B3
:1006A80001FA04F240EA020001F0004110EBD370B5
:1006B80041F100015EEA430E08BF20EAD37070BD25
:1006C800C4F1200500FA05F24EEA020E20FA04F3FE
:1006D80001FA05F243EA020321FA04F001F00041AD
:1006E80021FA04F220EA020000EBD3705EEA430E1E
:1006F80008BF20EAD37070BD94F0000F0FD101F04D
:100708000046400041EB010111F4801F08BF013C85
:10071800F7D041EA060195F0000F18BF704703F0C3
:100728000046520043EB030313F4801F08BF013D4A
:10073800F7D043EA0603704794EA0C0F0CEA135506
:1007480018BF95EA0C0F0CD050EA410618BF52EAC0
:100758004306D1D181EA030101F000414FF00000C6
:1007680070BD50EA410606BF1046194652EA4306D4
:1007780019D094EA0C0F02D150EA013613D195EA48
:100788000C0F05D152EA03361CBF104619460AD190
:1007980081EA030101F0004141F0FE4141F470019A
:1007A8004FF0000070BD41F0FE4141F4780170BD8A
:1007B80070B54FF0FF0C4CF4E06C1CEA11541DBFEF
:1007C8001CEA135594EA0C0F95EA0C0F00F0A7F8F1
:1007D800A4EB050481EA030E52EA03354FEA01311E
:1007E80000F088804FEA03334FF0805545EA131331
:1007F80043EA12634FEA022245EA111545EA1065F9
:100808004FEA00260EF000419D4208BF964244F18F
:10081800FD0404F5407402D25B084FEA3202B61AAE
:1008280065EB03055B084FEA32024FF480104FF482
:10083800002CB6EB020E75EB030E22BFB61A7546F6
:1008480040EA0C005B084FEA3202B6EB020E75EB89
:10085800030E22BFB61A754640EA5C005B084FEAF1
:100868003202B6EB020E75EB030E22BFB61A7546BE
:1008780040EA9C005B084FEA3202B6EB020E75EBC9
:10088800030E22BFB61A754640EADC0055EA060E8A
:1008980018D04FEA051545EA16754FEA06164FEACD
:1008A800C30343EA52734FEAC2025FEA1C1CC0D179
:1008B80011F4801F0BD141EA00014FF000004FF006
:1008C800004CB6E711F4801F04BF01430020B4F1C7
:1008D800FD0C88BFBCF5E06F3FF6AFAEB5EB030C7F
:1008E80004BFB6EB020C5FEA500C50F1000041EB7C
:1008F800045170BD0EF0004E4EEA113114EB5C0449
:10090800C2BFD4EB0C0541EA045170BD41F480111B
:100918004FF0000E013C90E645EA060E8DE60CEA23
:10092800135594EA0C0F08BF95EA0C0F3FF43BAF40
:1009380094EA0C0F0AD150EA01347FF434AF95EAF7
:100948000C0F7FF425AF104619462CE795EA0C0FDB
:1009580006D152EA03353FF4FDAE1046194622E7A8
:1009680050EA410618BF52EA43067FF4C5AE50EA82
:1009780041047FF40DAF52EA43057FF4EBAE12E772
:100988004FF0FF3C06E000BF4FF0010C02E000BF53
:100998004FF0010C4DF804CD4FEA410C7FEA6C5C36
:1009A8004FEA430C18BF7FEA6C5C1BD001B050EAD9
:1009B800410C0CBF52EA430C91EA030F02BF90EAC4
:1009C800020F0020704710F1000F91EA030F58BF83
:1009D800994208BF90422CBFD8176FEAE37040F0E5
:1009E800010070474FEA410C7FEA6C5C02D150EA83
:1009F800013C07D14FEA430C7FEA6C5CD6D152EA3E
:100A0800033CD3D05DF8040B704700BF8446104602
:100A180062468C461946634600E000BF01B5FFF701
:100A2800B7FF002848BF10F1000F01BD4DF808EDD1
:100A3800FFF7F4FF0CBF012000205DF808FB00BFA2
:100A48004DF808EDFFF7EAFF34BF012000205DF8FC
:100A580008FB00BF4DF808EDFFF7E0FF94BF012049
:100A680000205DF808FB00BF4DF808EDFFF7CEFF4A
:100A780094BF012000205DF808FB00BF4DF808ED89
:100A8800FFF7C4FF34BF012000205DF808FB00BF5A
:100A98004FEA410C7FEA6C5C02D150EA013C0AD172
:100AA8004FEA430C7FEA6C5C02D152EA033C02D164
:100AB8004FF0000070474FF0010070474FEA4102C5
:100AC80012F5001215D211D56FF47873B3EB625298
:100AD80012D94FEAC12343F0004343EA505311F0BF
:100AE800004F23FA02F018BF404270474FF0000051
:100AF800704750EA013005D111F0004008BF6FF08F
:100B0800004070474FF00000704700BF4A0011D204
:100B180012F5001211D20DD56FF47873B3EB62524F
:100B28000ED44FEAC12343F0004343EA505323FA5B
:100B380002F070474FF00000704750EA013002D1D0
:100B48004FF0FF3070474FF0000070474FEA410206
:100B5800B2F1E04324BFB3F5001CDCF1FE5C0DD913
:100B680001F0004C4FEAC0024CEA5070B2F1004F5D
:100B780040EB830008BF20F00100704711F0804F60
:100B880021D113F13872BCBF01F00040704741F425
:100B980080114FEA5252C2F11802C2F1200C10FA29
:100BA8000CF320FA02F018BF40F001004FEAC1230D
:100BB8004FEAD32303FA0CFC40EA0C0023FA02F3B1
:100BC8004FEA4303CCE77FEA625307D150EA013387
:100BD8001EBF4FF0FE4040F44000704701F0004057
:100BE80040F0FE4040F40000704700BF4FF0FF3C6B
:100BF80006E000BF4FF0010C02E000BF4FF0010C0F
:100C08004DF804CD4FEA40024FEA41037FEA226CD7
:100C180018BF7FEA236C11D001B052EA530C18BFF9
:100C280090EA010F58BFB2EB030088BFC81738BF5E
:100C38006FEAE17018BF40F0010070477FEA226C4C
:100C480002D15FEA402C05D17FEA236CE4D15FEA48
:100C5800412CE1D05DF8040B704700BF844608467C
:100C68006146FFE70FB5FFF7C9FF002848BF10F13D
:100C7800000F0FBD4DF808EDFFF7F4FF0CBF012082
:100C880000205DF808FB00BF4DF808EDFFF7EAFF0C
:100C980034BF012000205DF808FB00BF4DF808EDC7
:100CA800FFF7E0FF94BF012000205DF808FB00BFBC
:100CB8004DF808EDFFF7D2FF94BF012000205DF842
:100CC80008FB00BF4DF808EDFFF7C8FF34BF01204F
:100CD80000205DF808FB00BF4FEA40024FEA4103DD
:100CE8007FEA226C02D15FEA402C08D17FEA236CAC
:100CF80002D15FEA412C02D14FF0000070474FF05B
:100D08000100704753B94AB9002908BF00281CBF21
:100D18004FF0FF314FF0FF3000F0AEB9ADF1080CE5
:100D28006DE904CE00F03EF8DDF804E0DDE90223C9
:100D380004B0704738B505460C4600220023284603
:100D48002146FFF77DFE28B928462146BDE83840F0
:100D580000F00AB8284604F1004100F005F84042C6
:100D680061EB410138BD00BFD0B500220B4B0646F0
:100D78000F46FFF7F3FBFFF7C9FE0446FFF774FBC6
:100D88000022074BFFF7EAFB02460B46304639467E
:100D9800FFF72CFAFFF7BAFE2146D0BD0000F03D60
:100DA8000000F0412DE9F047089E0D4604468846AC
:100DB800002B4DD18A42944668D9B2FA82F252B1D8
:100DC80001FA02F3C2F1200120FA01F10CFA02FC47
:100DD80041EA030894404FEA1C41B8FBF1F71FFAB7
:100DE8008CFE01FB178807FB0EF0230C43EA08432F
:100DF80098420AD91CEB030307F1FF3580F01E81E6
:100E0800984240F21B81023F63441B1AB3FBF1F086
:100E180001FB103300FB0EFEA4B244EA0344A645CE
:100E28000AD91CEB040400F1FF3380F00981A645C0
:100E380040F20681644402380021A4EB0E0440EA23
:100E480007401EB10023D440C6E90043BDE8F0873F
:100E58008B4208D9002E00F0EE800021C6E900057B
:100E68000846BDE8F087B3FA83F100294AD1AB42BE
:100E780002D3824200F2FC80841A65EB030301204E
:100E88009846002EE2D0C6E90048DFE702B9FFDE47
:100E9800B2FA82F2002A40F09180A1EB0C00012105
:100EA8004FEA1C471FFA8CFEB0FBF7F307FB130051
:100EB800250C45EA00450EFB03F0A84208D91CEBB7
:100EC800050503F1FF3802D2A84200F2CE8043465E
:100ED8002D1AB5FBF7F007FB10550EFB00FEA4B268
:100EE80044EA0544A64508D91CEB040400F1FF3583
:100EF80002D2A64500F2B6802846A4EB0E0440EACA
:100F080003409EE7C1F120078B4022FA07FC4CEA18
:100F1800030C25FA07FA4FEA1C49BAFBF9F820FA3C
:100F280007F309FB18AA8D401FFA8CFE1D4300FA2F
:100F380001F308FB0EF02C0C44EA0A44A04202FA22
:100F480001F20BD91CEB040408F1FF3A80F0888009
:100F5800A04240F28580A8F102086444241AB4FB38
:100F6800F9F009FB104400FB0EFEADB245EA04445B
:100F7800A64508D91CEB040400F1FF356CD2A64540
:100F88006AD90238644440EA0840A0FB0295A4EB01
:100F98000E04AC42C846AE4656D353D0002E69D094
:100FA800B3EB080264EB0E0422FA01F304FA07F724
:100FB8001F43CC40C6E90074002147E70CFA02FC45
:100FC800C2F1200125FA01F34FEA1C4720FA01F18A
:100FD80095400D43B3FBF7F107FB11331FFA8CFE65
:100FE800280C40EA034001FB0EF3834204FA02F4A2
:100FF80008D91CEB000001F1FF382FD283422DD90C
:1010080002396044C01AB0FBF7F307FB1300ADB216
:1010180045EA004503FB0EF0A84208D91CEB05057C
:1010280003F1FF3816D2A84214D9023B6544281AA6
:1010380043EA014138E73146304607E72F46E4E600
:101048001846F9E64B45A9D2B9EB020865EB0C0E38
:101058000138A3E74346EAE7284694E74146D1E743
:10106800D0467BE76444023847E7023B65442FE7F4
:10107800084606E73146E9E6704700BF80B500AF8D
:101088004FF4E131002001F0E7FE0A4800F0EAFEE3
:101098004FF4E1320121074800F0FAFE064800F05B
:1010A800E1FE4FF4E1320121034800F0F1FE00BFF8
:1010B80080BD00BF340400205C14002080B582B0DD
:1010C80000AF00F049F9786000F046F902467B6805
:1010D800D31AB3F5FA7F05D900F03EF978600020FD
:1010E80001F032FE00F004F800F058F8ECE70000D8
:1010F80080B582B000AF274800F008FF0346002BF8
:1011080043D0244B93F82038002B3FD1214B93F840
:1011180028387B601F4B93F829381B021A467B68D6
:1011280013437B601B4B93F82A381B041A467B68D1
:1011380013437B60174B93F82B381B061A467B68C2
:1011480013437B60134B93F82C383B60114B93F897
:101158002D381B021A463B6813433B600D4B93F82E
:101168002E381B041A463B6813433B60094B93F81F
:101178002F381B061A463B6813433B603B687A6866
:101188000549002001F09EFF00E000BF00BF0837BE
:10119800BD4680BD3404002030FB000880B582B015
:1011A80000AF002001F0FAFE0346002B44D00020D7
:1011B80001F026FF0346FB71FB79302B3CD1204B15
:1011C8001B68DAB21F4B1A771D4B1B681B0ADAB271
:1011D8001C4B5A771A4B1B681B0CDAB2194B9A77BF
:1011E800174B1B681B0EDAB2164BDA77164B1B68C7
:1011F800DAB2144B83F82020134B1B681B0ADAB2AF
:10120800104B83F82120104B1B681B0CDAB20D4BD6
:1012180083F822200C4B1B681B0EDAB2094B83F8AB
:1012280023200823094A0021064800F07BFF064BCB
:101238001B680133044A136000BF0837BD4680BDF0
:10124800000000205C140020842400207814002072
:1012580080B588B000AF02F03FF800F084F807F1DD
:101268000C0300221A605A609A60DA601A6100233F
:10127800BB602A4B1B6B294A43F480731363274BCB
:101288001B6B03F48073BB60BB6800237B60234B3C
:101298001B6B224A43F004031363204B1B6B03F0C0
:1012A80004037B607B6800233B601C4B1B6B1B4A61
:1012B80043F040031363194B1B6B03F040033B607F
:1012C8003B684FF48053FB6011233B6100237B6133
:1012D8000223BB6107F10C031946114803F004F916
:1012E80000224FF480510E4803F0B1FB4FF4967082
:1012F80000F018F801224FF48051094803F0A7FBC9
:1013080000233B6107F10C031946054803F0ECF88C
:1013180009F068F800BF2037BD4680BD003802409C
:101328000000024080B582B000AF7860786802F0B3
:1013380041F800BF0837BD4680BD80B582B000AF18
:1013480078603B1D01221946002001F08FFE012321
:1013580018460837BD4680BD80B500AF02F020F8BA
:101368000346184680BD80B592B000AF07F1180358
:1013780030220021184609F085FE3B1D00221A6024
:101388005A609A60DA601A610123BB610123FB612C
:1013980002233B634FF480037B631423BB63C023A6
:1013A800FB6302233B6405237B6407F1180318469B
:1013B80004F0D4FC0346002B01D000F01AF80F23E8
:1013C8007B600223BB600023FB604FF4A0533B61AA
:1013D8004FF480537B613B1D0321184604F00CFF3A
:1013E8000346002B01D000F004F800BF4837BD4683
:1013F80080BD80B400AF72B600BFFEE780B483B092
:1014080000AF00237B600F4B5B6C0E4A43F48043B4
:1014180053640C4B5B6C03F480437B607B68002354
:101428003B60084B1B6C074A43F080531364054B21
:101438001B6C03F080533B603B6800BF0C37BD4614
:1014480080BC70470038024080B400AFFEE780B42B
:1014580000AFFEE780B400AFFEE780B400AFFEE760
:1014680080B400AFFEE780B400AF00BFBD4680BCCB
:10147800704780B400AF00BFBD4680BC704780B4E1
:1014880000AF00BFBD4680BC704780B500AF01F01B
:1014980075FF00BF80BD000080B500AF024802F0B4
:1014A800E3FA00BF80BD00BF402D002080B500AF2B
:1014B800024805F01DFB00BF80BD00BFFC2C0020CA
:1014C80080B500AF024803F032FC00BF80BD00BF0A
:1014D800983C002080B400AF01231846BD4680BC6C
:1014E800704780B582B000AF7860396009F090FD30
:1014F800034616221A604FF0FF3318460837BD46D8
:1015080080BD80B582B000AF78604FF0FF31786859
:10151800FFF7E7FFFEE780B586B000AFF860B96077
:101528007A6000237B610AE0AFF300800146BB6864
:101538005A1CBA60CAB21A707B6901337B617A6936
:101548007B689A42F0DB7B6818461837BD4680BD39
:1015580080B586B000AFF860B9607A6000237B611F
:1015680009E0BB685A1CBA601B781846FFF7E5FE0D
:101578007B6901337B617A697B689A42F1DB7B681E
:1015880018461837BD4680BD80B483B000AF786078
:101598004FF0FF3318460C37BD4680BC704780B407
:1015A80083B000AF786039603B684FF400525A60EE
:1015B800002318460C37BD4680BC704780B483B002
:1015C80000AF7860012318460C37BD4680BC7047D1
:1015D80080B485B000AFF860B9607A60002318461F
:1015E8001437BD4680BC704780B586B000AF7860C0
:1015F800144A154BD31A7B617B693B61134B1B68FB
:10160800002B02D1114B124A1A60104B1A687B68E2
:1016180013443A699A4207D209F0FAFC03460C22AD
:101628001A604FF0FF3309E0084B1B68FB60074B5B
:101638001A687B681344054A1360FB681846183714
:10164800BD4680BD00000220000400008824002060
:10165800A840002080B400AF00BFBD4680BC7047E2
:10166800DFF834D00D480E490E4A002302E0D45862
:10167800C4500433C4188C42F9D30B4A0B4C0023D2
:1016880001E013600432A242FBD3FFF7E3FF09F045
:10169800C5FC09F0B1FC70470000022000000020E2
:1016A800180400205804010818040020A84000204D
:1016B800FEE780B487B000AFF860B9607A600123B4
:1016C800FB75FB6800221A60FB6800225A60FB6801
:1016D8007A689A60FB68BA68DA60FB7D18461C373E
:1016E800BD4680BC704780B487B000AFF860B96071
:1016F8007A600123FB7500233B6126E0FB68DB6809
:10170800002B09D0FB68DA68FB685B681A443B6900
:10171800B9680B4412781A70FB685A68FB681B6832
:101728009A420CD0FB685B680133FA689268B3FB95
:10173800F2F101FB02F29A1AFB685A6002E00023F8
:10174800FB7506E03B6901333B613B697A689A4265
:10175800D4D8FB7D18461C37BD4680BC704780B482
:1017680085B000AF78607B681A687B685B68D31ABD
:101778007A689268B3FBF2F101FB02F29B1AFB60F4
:10178800FB6818461437BD4680BC704780B58AB0E0
:1017980000AF012387F8233007F10C0300221A60F9
:1017A8005A609A60DA601A610023BB60244B1B6B95
:1017B800234A43F001031363214B1B6B03F001031E
:1017C800BB60BB6800237B601D4B1B6B1C4A43F04E
:1017D800400313631A4B1B6B03F040037B607B6869
:1017E80000233B60164B1B6B154A43F0040313633D
:1017F800134B1B6B03F004033B603B6800233B6106
:1018080000237B6100237B620DE00E4B9B8BFB600A
:101818000C4B9B6907F10C021146184602F064FE56
:101828007B6A01337B627B6A022BEEDD064907483F
:1018380000F068FD97F8233018462837BD4680BD6C
:1018480000380240080000205918000858FB00081A
:1018580090B583B000AF0123FB710021174800F059
:1018680039FF0346002B19D0012000F059FF034629
:10187800BB710DE0BC79BB79184600F025F803462A
:101888001A4621460E4800F0D1FE3220FFF74AFDE5
:1018980000F0ECFE0346002BECD001E00023FB71C6
:1018A800FB7983F00103DBB2002B02D0054800F07E
:1018B800BDFE00BF0C37BD4690BD00BF60FB0008F1
:1018C80068FB000884FB000880B584B000AF0346BD
:1018D800FB710023FB73FB79032B01D900231BE069
:1018E800FB790F4A52F83320FB790D49DB000B4492
:1018F8009B881946104603F093F803461946FB796E
:10190800074ADB0013449B79994202D10123FB73F8
:1019180001E00023FB73FB7B18461037BD4680BDF2
:101928000800002080B483B000AF0123FB71FB796D
:1019380018460C37BD4680BC7047000080B500AF24
:101948001B4B00221A721A4B00225A72184B0022A3
:101958001A74174B002283F89521154B002283F83F
:101968009621134B002283F89721114B002283F80C
:1019780094210F4B0F4AC3F894230D4B0E4AC3F81A
:1019880098230B4B0D4AC3F89C23094B0C4AC3F808
:10199800A023074800F01EF80A490B4800F03EF95A
:1019A8000A490B4800F03AF90123184680BD00BFE8
:1019B8008C240020C11A0008111B0008611B0008B4
:1019C800A51B0008B91C000898FB0008291D000881
:1019D800A0FB000880B483B000AF78607B68002269
:1019E80083F846227B68002283F845227B681F2201
:1019F80083F844227B68002283F8242200BF0C3736
:101A0800BD4680BC704700000FB480B584B000AFFD
:101A180007F11C037B600D4BFB60FB6803F11100B1
:101A28007B68BA694FF480710BF044FAB860FB68C0
:101A38001878FB681133BA68194601F017FB00BF24
:101A48001037BD46BDE8804004B070478C240020A4
:101A580080B485B000AF78600023FB8118E0FB8973
:101A68007A6813441B787B737B7B002B14D07B7BB9
:101A7800602B05D97B7B7A2B02D87B7B203B7B7341
:101A8800FB897A6813447A7B1A70FB890133FB81DE
:101A9800FB890F2BE3D900E000BFFB89102B05D190
:101AA800FB89013B7A68134400221A7000BF14377F
:101AB800BD4680BC7047000080B584B000AF0346C7
:101AC800FB710023FB600F4BBB60FB799AB2BB68CC
:101AD800B3F88C339A4201D300230EE0BB68D3F8E5
:101AE8009023FB799B0013441B68002200211846B1
:101AF8000BF0AAF90346FB60FB6818461037BD4691
:101B080080BD00BF8C24002080B584B000AF0346A0
:101B1800FB714FF00003FB600E4BBB60FB799AB280
:101B2800BB68B3F88C339A4202D34FF000030CE041
:101B3800BB68D3F89023FB799B0013441B680021F2
:101B480018460BF03FF8F860FB6818461037BD469A
:101B580080BD00BF8C24002080B485B000AF034650
:101B6800FB710023FB600C4BBB60FB799AB2BB682E
:101B7800B3F88C339A4201D3002308E0BB68D3F84A
:101B88009023FB799B0013441B68FB60FB68184695
:101B98001437BD4680BC70478C24002080B584B0C3
:101BA80000AF03463960FB710023FB730F4BBB602A
:101BB800FB799AB2BB68B3F88C339A4201D30023FD
:101BC80010E0BB68D3F89023FB799B0013441B6893
:101BD80019463868FEF7F4FA0346002B01D10123B1
:101BE800FB73FB7B18461037BD4680BD8C24002054
:101BF80080B582B000AF084B7B607B681B781846C5
:101C080001F0CCF90346002B01D1012300E00023A9
:101C180018460837BD4680BD8C24002080B586B0A4
:101C280000AF786039600123FB75204B3B613B694D
:101C3800B3F848320F2B01D9002332E03B69B3F8DF
:101C48004832FB81FA8913469B0013449B0003F535
:101C580012733A6913440433796818460AF098F9FC
:101C6800FA89396913469B0013449B000B4403F51A
:101C780017733A681A60FA8913469B0013449B004D
:101C880003F512733A69134404331846FFF7E0FE6C
:101C98003B69B3F8483201339AB23B69A3F848224A
:101CA800FB7D18461837BD4680BD00BF8C24002038
:101CB80080B584B000AF7860154BBB601548FFF75E
:101CC800A3FE1548FFF7A0FE0023FB6012E0FA68A8
:101CD80013469B0013449B0003F51273BA68134420
:101CE80004331846FFF790FE0A48FFF78DFEFB689D
:101CF8000133FB60BB68B3F848321A46FB6893426D
:101D0800E5DB0648FFF780FE00BF1037BD4680BD03
:101D18008C24002068FC00086CFC00088CFC00087F
:101D280080B58CB000AF78601023BB627B681B88DD
:101D38007B617B685B683B617B681B88002B03D1F8
:101D48004048FFF761FE7AE07B69012B09DD3B69BA
:101D580004331B680022002118460BF075F803466F
:101D6800BB623B691B680022002118460BF06CF827
:101D780003467B627B6ABB613348FFF745FE00235D
:101D8800FB6258E0FB6A03F00303002B04D17B6A73
:101D980019462E48FFF738FE7B6A1B6819462C48FF
:101DA800FFF732FEFB6A5A4203F0030302F0030214
:101DB80058BF5342032B38D12648FFF725FE00238E
:101DC8003B622CE0BB691B68FB600023FB611DE0E4
:101DD80007F10C02FB6913441B781F2B10D907F17C
:101DE8000C02FB6913441B787E2B09D807F10C02FF
:101DF800FB6913441B7819461748FFF705FE02E0F4
:101E08001648FFF701FEFB690133FB61FB69032BF1
:101E1800DEDDBB690433BB613B6A01333B623B6A6D
:101E2800032BCFDD0E48FFF7EFFD7B6A04337B629F
:101E3800FB6A0133FB62FA6ABB6A9A42A2DB30375B
:101E4800BD4680BDACFC0008C0FC0008C8FC00080A
:101E5800D4FC0008DCFC0008E0FC0008E4FC0008F6
:101E6800E8FC000880B483B000AF78607B6800228B
:101E78005A707B6800229A707B6800229A757B688A
:101E8800002283F8222800BF0C37BD4680BC70476B
:101E980080B586B000AFF8600B467A60FB7200230D
:101EA800FB75FB68FA7A1A70FB687A685A60FB68F7
:101EB80001225A70FB6800229A70FFF74DFA024619
:101EC800FB689A60FFF748FA0246FB68DA60FB7A1B
:101ED8007968184600F0C0FF0346FB75FB7D18467D
:101EE8001837BD4680BD80B582B000AF03460A46AC
:101EF800FB711346BB71BA79FB791146184601F09C
:101F0800A3F800BF0837BD4680BD000080B586B085
:101F180000AF78600023FB757B681B78184601F0DA
:101F28003DF80346002B10D07B681B78184601F05B
:101F380067F80346BB75FFF70FFA02467B689B6894
:101F4800D31AB3F5FA7F05D901E00023E6E07B68F0
:101F580000229A70FFF700FA02467B689A607B6855
:101F68009B78082B00F2D98001A252F823F000BF19
:101F78009D1F0008C11F0008E31F00082321000857
:101F88000D200008312000089D200008EB200008E3
:101F9800FB200008BB7D022B40F0BC807B6801223F
:101FA8009A707B68002283F826287B680022A3F8B1
:101FB80024280023FB81ADE07B68BA7D83F82028C4
:101FC8007B6893F82628BB7D5340DAB27B6883F898
:101FD80026287B6802229A709FE07B68BA7D83F886
:101FE80021287B68BA7D83F822287B6893F8262805
:101FF800BB7D5340DAB27B6883F826287B680422CD
:102008009A708AE0BB7D9AB27B68A3F824287B6823
:1020180093F82628BB7D5340DAB27B6883F82628DC
:102028007B6805229A7078E0BB7DFB817B68B3F8FA
:1020380024381AB2FB891B021BB213431BB29AB293
:102048007B68A3F824287B6893F82628BB7D534037
:10205800DAB27B6883F826287B6805229A707B6849
:10206800B3F82438B3F5006F10D87B68B3F8243878
:10207800002B07D07B680022C3F81C287B68062247
:102088009A704AE07B6807229A7046E07B680022D3
:102098009A7042E07B68D3F81C383B617B6893F800
:1020A8002628BB7D5340DAB27B6883F826287A68F5
:1020B8003B69134403F62803BA7D1A707B68D3F88A
:1020C8001C385A1C7B68C3F81C287B68D3F81C385A
:1020D8007A68B2F8242893421ED37B6807229A7044
:1020E8001AE07B68BA7D83F827287B6808229A70F3
:1020F80013E0BB7D032B09D17B6893F827287B6805
:1021080093F826389A4201D10123FB757B68002297
:102118009A7002E000BF00E000BFFB7D1846183748
:10212800BD4680BD80B586B000AFF8607A603B6080
:102138000B46FB7200237B750023BB75FB681B787D
:102148007B75FB68FA7A1A75FB6800225A757B68FA
:10215800002B12D00023FB750BE0FB7D7A681A4434
:10216800FB7D1178FA6813440A461A77FB7D013320
:10217800FB75FB7D3A689A42EFD83B689AB2FB68D8
:102188001A837B7D02211846FFF7ADFEFB681A7D96
:102198007B7D11461846FFF7A6FEFB681A7DBB7DBE
:1021A8005340BB75FB685A7D7B7D11461846FFF787
:1021B8009AFEFB685A7DBB7D5340BB75FB681B8B41
:1021C800002B14BF01230023DBB23B753A7D7B7DD6
:1021D80011461846FFF787FEBA7D3B7D5340BB7515
:1021E800FB681B8B1B0A9BB23B753A7D7B7D1146B6
:1021F8001846FFF778FEBA7D3B7D5340BB75002338
:10220800FB7512E0FB7DFA6813441A7F7B7D11464B
:102218001846FFF768FEFB7DFA6813441A7FBB7DFA
:102228005340BB75FB7D0133FB75FB7D9AB2FB68A0
:102238001B8B9A42E6D3BA7D7B7D11461846FFF781
:1022480052FE7B7D03211846FFF74DFE00BF18376D
:10225800BD4680BD80B582B000AF204B00221A81F8
:102268001E4B00225A701D4B01221A701B4B1C4A30
:102278005A6100237B6016E0184B59697A68134647
:102288009B0013449B000B4400221A70134B59699E
:102298007A6813469B0013449B000B4400221A6182
:1022A8007B6801337B607B680F2BE5D900F098F9D8
:1022B8000C490D4800F026F80C490D4800F022F8AA
:1022C8000C490D4800F01EF80C490D4800F01AF8AA
:1022D800012318460837BD4680BD00BF702900207D
:1022E80030280020B923000800FD00089D230008BD
:1022F80008FD00082124000810FD00086D250008CD
:1023080014FD000880B584B000AF78603960204BB8
:102318001B890F2B0AD81E4B1B7883F00103DBB2F5
:10232800002B03D11A4B5B69002B03D1184B0122F8
:102338005A7029E0164B1B89FB81154B5969FA899C
:1023480013469B0013449B000B447968184609F018
:102358001FFE0F4B5969FA8913469B0013449B00D3
:102368000B443A681A610A4B5969FA8913469B006B
:1023780013449B000B44184600F084F9044B1B8956
:1023880001339AB2024B1A811037BD4680BD00BF97
:102398007029002080B500AF034B01229A720348D0
:1023A80000F034F900BF80BD7029002034FD00081A
:1023B80080B582B000AF00237B60134800F026F997
:1023C80010E0124B59697A6813469B0013449B002E
:1023D8000B44184600F01AF90D4800F017F97B680D
:1023E80001337B60094B59697A6813469B00134493
:1023F8009B000B441B78002BE3D1064800F006F93C
:1024080000BF0837BD4680BD40FD00087029002088
:102418001CFD000860FD000880B58AB000AF1023DD
:102428003B62464BDB68FB60444B1B69BB60FB6847
:10243800012B03DC424800F0F9F87BE0FB68022B33
:1024480009DDBB6808331B680022002118460AF022
:10245800FBFC03463B62BB6804331B680022002177
:1024680018460AF0F1FC0346FB61FB693B613548FD
:1024780000F0DCF800237B6255E07B6A03F003037D
:10248800002B04D1FB6919462F4800F0CFF8FB69EF
:102498001B6819462D4800F0C9F87B6A5A4203F0B8
:1024A800030302F0030258BF5342032B35D12848D7
:1024B80000F0BCF80023BB6129E03B691B687B6026
:1024C80000237B611AE03A1D7B6913441B781F2B9C
:1024D8000ED93A1D7B6913441B787E2B08D83A1D08
:1024E8007B6913441B7819461A4800F09FF802E0EC
:1024F800194800F09BF87B6901337B617B69032BEA
:10250800E1DD3B6904333B61BB690133BB61BB69F6
:10251800032BD2DD114800F089F8FB690433FB6115
:102528007B6A01337B627A6A3B6A9A42A5DB0C4874
:1025380000F07CF82837BD4680BD00BF7029002018
:1025480080FD000894FD00089CFD0008A8FD000817
:10255800B0FD0008B4FD0008B8FD0008BCFD000887
:102568001CFD000890B585B000AF1B4BDB68BB6055
:10257800194B1B697B60BB68022B03DC174800F012
:1025880055F825E07B6804331B68002200211846B3
:102598000AF05AFC03463B600223FB6014E0FB6828
:1025A8009B007A6813441868FB6803F18043023B78
:1025B8009B003A68D418002200210AF045FC034623
:1025C8002360FB680133FB60FA68BB689A42E6DB6C
:1025D8001437BD4690BD00BF70290020C4FD000817
:1025E80080B500AF80220021054808F04BFD054B5F
:1025F800034AC3F89820044800F008F800BF80BDDB
:102608008829002070290020E4FD000880B582B0E8
:1026180000AF7860044B9B787968184600F052FD4B
:1026280000BF0837BD4680BD702900200FB480B5B3
:1026380082B000AF07F114033B603B683A69FF21A1
:1026480008480AF037FC7860074B9B787A68054998
:10265800184600F00BFD00BF0837BD46BDE88040B6
:1026680004B070470C2A00207029002080B500AF04
:10267800034B9B78184600F091FC0346184680BD32
:102688007029002080B485B000AF786015E07B68C1
:102698001B78FB73FB7B01330D4A13441B7803F053
:1026A8000303022B02D1FB7B203B00E0FB7BDAB269
:1026B8007B681A707B6801337B607B681B78002B12
:1026C800E5D100BF00BF1437BD4680BC704700BFCE
:1026D80098FF000880B582B000AF78600B46FB70A9
:1026E8000E4BDB685A1EFB789A4201DC002310E08F
:1026F8000A4B1A69FB7801339B0013441B6819467F
:102708007868FDF75DFD0346002B01D1012300E049
:10271800002318460837BD4680BD00BF7029002039
:1027280080B582B000AF0346FB710C4BDB685A1EC4
:10273800FB799A4201DC00230CE0084B1A69FB790B
:1027480001339B0013441B680022002118460AF03D
:102758007BFB034618460837BD4680BD702900201C
:1027680080B48BB000AF0346B9607A60FB81002368
:1027780087F82730FB89254A52F833303B62FB89BA
:10278800224A52F83320FB892049DB000B445B685E
:102798001344013BFB61BB68BB61BA697B681344A6
:1027A800013B7B613A6ABB699A4206D33A6A7B6904
:1027B8009A4202D8012387F82730FA69BB699A42FE
:1027C80006D3FA697B699A4202D8012387F8273031
:1027D800BA693B6A9A4206D3BA69FB699A4202D837
:1027E800012387F827307A693B6A9A4206D37A69C7
:1027F800FB699A4202D8012387F8273097F82730D7
:1028080018462C37BD4680BC704700BF200000200A
:1028180080B582B000AF0123FB7104490448FFF77B
:10282800FDF9FB7918460837BD4680BD49290008DF
:10283800F4FD000880B58CB000AF786039600023E3
:1028480087F82F304FF6FF73BB850023BB62002348
:102858007B6215E07B6A9BB23A6879681846FFF795
:102868007FFF0346002B08D0B7F92C30002B01DA84
:102878007B6ABB85BB6A0133BB627B6A01337B62BF
:102888007B6A0B2BE6DDBB6A002B20D001F0A6FB90
:102898000023FB6001233B61B7F92C307B61BB6AE5
:1028A800BB610223FB6107F1080207F10C03114623
:1028B800184601F0F1FC034687F8233097F82330D7
:1028C800002B02D1012387F82F3001F0A9FB97F8DC
:1028D8002F3018463037BD4680BDB0B588B000AF40
:1028E800F860B9607A600123FB7701F077FB002379
:1028F800BB6119E0BB681B78FB82BA69FB68D11819
:10290800FB8A00221C46154622462B46002001F071
:1029180011FB03467B757B7D002B02D00023FB77E0
:1029280006E0BB690133BB61BB697A689A42E1D8AA
:1029380001F076FBFB7F18462037BD46B0BD00008E
:1029480080B58CB000AF7860002387F82F307B68A3
:102958001B88012B21D17B685B695E490020984761
:102968000346002B19D00023BB6210E05A4ABB6A09
:1029780052F83310584ABB6ADB0013445B689B0A61
:102988001A465648FFF740F8BB6A0133BB62BB6A78
:102998000B2BEBDD012387F82F307B681B88032B7B
:1029A8002BD17B685B694E49002098470346002B72
:1029B80023D07B689B680120984703463B627B686D
:1029C8009B68022098470346FB6100237B620DE069
:1029D8007A6A3B6AD1187A6A3B6A13441B781A46AA
:1029E8004048FFF711F87B6A01337B627B6AFA691A
:1029F8009A42EDD8012387F82F307B681B88032B78
:102A080027D17B685B693849002098470346002B2B
:102A18001FD07B689B68012098470346BB617B6891
:102A28009B68022098470346FB6007F10C031022BD
:102A38001946B869FFF751FF0346002B03D02B480E
:102A4800FEF7E2FF02E02A48FEF7DEFF012387F8DF
:102A58002F307B681B88032B24D17B685B69254951
:102A6800002098470346002B1CD07B689B680120F8
:102A7800984703467B617B689B680220984703461A
:102A88003B6139697869FFF7D5FE0346002B03D00F
:102A98001948FEF7B9FF02E01848FEF7B5FF012311
:102AA80087F82F3097F82F3083F00103DBB2002B23
:102AB8000BD01348FEF7A8FF1248FEF7A5FF1248EF
:102AC800FEF7A2FF1148FEF79FFF00BF3037BD4653
:102AD80080BD00BFFCFD00082000002004FE0008A7
:102AE80014FE00081CFE00082CFE000834FE000836
:102AF8004CFE000860FE000868FE00087CFE000826
:102B080090FE0008A0FE0008BCFE0008D4FE0008E5
:102B180080B483B000AF0123FB711A4B4FF47A7273
:102B2800C3F8B820174B184A1A60184B1B685A0884
:102B3800144BD3F8B830B2FBF3F3013B114A53609E
:102B4800104B00221A610F4B00229A600D4B002295
:102B58005A610C4B00229A610A4B0022C3F8BC2030
:102B6800084B0022C3F8C020064B0022C3F8C4203B
:102B7800044B0022C3F8C820FB7918460C37BD4621
:102B880080BC70470C2B0020000800400400002087
:102B980080B586B000AF786000237B6128E0184AD2
:102BA8007B6912F833301A46CC2302FB03F3154A2B
:102BB80013443B61124A7B69DB0013445B78FB607A
:102BC8007B681B7F19460E4A7B69DB0013445B68F0
:102BD80099420AD13B69BC33002B06D03A69FB689D
:102BE8002E339B0013445B6898477B6901337B61F4
:102BF8007B69032BD3D900BF00BF1837BD4680BD02
:102C0800800000200C2B002080B582B000AF7860D7
:102C18007868FFF7BDFF00BF0837BD4680BD0000DC
:102C280080B500AF024803F0E7FC00BF80BD00BFDD
:102C38000C2B002080B58AB000AF012387F8233021
:102C480007F10C0300221A605A609A60DA601A6170
:102C58000023BB602A4B1B6B294A43F48073136320
:102C6800274B1B6B03F48073BB60BB6800237B603E
:102C7800234B1B6B224A43F004031363204B1B6B4B
:102C880003F004037B607B6800233B601C4B1B6BD9
:102C98001B4A43F040031363194B1B6B03F04003BB
:102CA8003B603B6801233B6100237B610223BB61DE
:102CB80000237B6217E0134A7B6ADB0013449B887E
:102CC800FB60104A7B6A52F8333007F10C02114658
:102CD800184601F009FC7B6ADBB2184600F018F8C8
:102CE8007B6A01337B627B6A032BE4DD0649074874
:102CF800FEF794FF97F8233018462837BD4680BD65
:102D080000380240A0000020812D0008F0FE0008D5
:102D180080B582B000AF0346FB71FB79094A52F8CF
:102D28003300FB79074ADB0013449988FB79054A8D
:102D3800DB001344DB791A4601F089FE00BF08372F
:102D4800BD4680BDA000002080B582B000AF03461C
:102D5800FB71FB79074A52F83320FB790549DB0000
:102D68000B449B881946104601F089FE00BF0837BE
:102D7800BD4680BDA000002080B586B000AF786059
:102D88000023FB757B681B88032B36D17B685B6946
:102D98002149002098470346002B2ED07B689B686A
:102DA800012098470346BB757B689B6802209847BB
:102DB8000346FB60BB7D002B02D0BB7D013BBB758E
:102DC8001648FEF721FEFEF7C7FA38610EE0FEF757
:102DD800C3FA02463B69D31AFA689A4206D8FEF744
:102DE800BBFA3861BB7D1846FFF7AEFFFEF700FF60
:102DF8000346002BEBD10123FB75FB7D83F0010318
:102E0800DBB2002B03D004210548FEF7FDFD00BF0F
:102E18001837BD4680BD00BFF4FE0008FCFE000860
:102E28000CFF000880B483B000AF0123BB710023FE
:102E3800FB7106E0FB79074A0021D154FB79013385
:102E4800FB71FB79012BF5D9BB7918460C37BD46C8
:102E580080BC7047D82B002080B584B000AF0346F3
:102E68003960FB710023FB73FB79002B02D0012B27
:102E780007D07DE0FB79414A0121D1540123FB733E
:102E880076E03F4B3F4A1A603D4A3B6853603C4BF3
:102E980000229A603A4B0022DA60394B00221A610C
:102EA800374B0C225A61364B00229A61344B002270
:102EB800DA614FF4807234493448FEF7FAFB002394
:102EC800BB60334B1B6B324A43F400131363304B24
:102ED8001B6B03F40013BB60BB68002200210C20AD
:102EE80000F087FB0C2000F0A0FB254803F00FFD45
:102EF8000346002B02D10123FB7301E00023FB737F
:102F0800FB7B002B33D01E4803F0B4FC0346002B98
:102F180002D00023FB732AE0FB79184A0121D1541F
:102F28000123FB734FF480721749154803F0B0FD75
:102F38000346002B01D00023FB73FB79154A1B01C4
:102F4800134408331968144B1B685A68FB798A1AAA
:102F580010491B010B441A60FA79FB790D491201DB
:102F68000A4412680B491B010B4404331A6000BF62
:102F7800FB7B18461037BD4680BD00BFD82B00200C
:102F8800FC2C002000480040FC2B0020EC2B0020EB
:102F980000380240DC2B0020402D002080B584B092
:102FA80000AF0346FB710023FB60FB79002B02D0C6
:102FB800012B04D01BE007F045FAF86017E0FB7915
:102FC8000D4A1B011344083319680C4B1B685A68D7
:102FD800FB798A1A08491B010B441A60FB791B010B
:102FE800054A13441846FEF7BAFBF86000BFFB68B1
:102FF80018461037BD4680BDDC2B0020402D002030
:1030080080B584B000AF0346FB710023FB73FB79E6
:10301800002B02D0012B05D00FE007F031FA034650
:10302800FB730AE0FB791B01064A134407F10F0101
:1030380001221846FEF757FB00BFFB7B18461037E6
:10304800BD4680BDDC2B002080B582B000AF0346B2
:103058000A46FB711346BB71B91DFB79012218465C
:1030680000F004F800BF0837BD4680BD80B586B0C3
:1030780000AF0346B9607A60FB7300237B61FB7B7A
:10308800002B02D0012B06D014E07968B86807F04D
:1030980049FA78610EE07B689AB26423B9680848F7
:1030A80003F064FC0346FB74FB7C002B01D17B68B6
:1030B8007B6100BF7B6918461837BD4680BD00BFDD
:1030C800FC2C00200EB480B5C7B000AF024607F54F
:1030D8008C73A3F211131A7007F5947207F58C73A9
:1030E800A3F586731A6007F58C73A3F5867307F149
:1030F80010001B68D7F824214FF4807109F0DAFE1C
:10310800C7F81401D7F8142107F1100107F58C73DB
:10311800A3F211131B781846FFF7A8FFC7F8100190
:10312800D7F81031184607F58E77BD46BDE88040C0
:1031380003B0704780B483B000AF786000BF0C372D
:10314800BD4680BC704780B483B000AF786000BFD4
:103158000C37BD4680BC704780B58AB000AF786038
:1031680007F1140300221A605A609A60DA601A6143
:103178007B681B68354A934263D100233B61344B1B
:103188001B6C334A43F480231364314B1B6C03F4E8
:1031980080233B613B690023FB602D4B1B6B2C4A52
:1031A80043F0040313632A4B1B6B03F00403FB6017
:1031B800FB684FF440637B610223BB610023FB6122
:1031C80003233B6207237B6207F114031946214856
:1031D80001F08AF9204B214A1A601F4B4FF0006218
:1031E8005A601D4B00229A601B4B0022DA601A4B72
:1031F8004FF480621A61184B00225A61164B002264
:103208009A61154B4FF48072DA61134B00221A62EF
:10321800114B00225A62104800F030FA0346002B86
:1032280001D0FEF7E6F87B680B4A9A630A4A7B6886
:10323800936300220021272000F0DBF9272000F00B
:10324800F4F900BF2837BD4680BD00BF00480040E4
:103258000038024000080240402D0020286002404B
:1032680080B582B000AF78607B681B680C4A9342D7
:1032780012D10C4B1B6C0B4A23F4802313644FF4BC
:103288004061094801F0CEFA7B689B6B184600F054
:10329800A3FA272000F0D7F900BF0837BD4680BD44
:1032A80000480040003802400008024080B500AFE6
:1032B800FDF7CEFFFEF742FBFFF7BCFCFFF7B2FDC0
:1032C800FEF730FBFFF7A4FAFFF722FCFEF7C2FF78
:1032D800FEF75CFA00BF80BD80B500AF0E4B1B68DF
:1032E8000D4A43F4007313600B4B1B680A4A43F4FE
:1032F80080631360084B1B68074A43F480731360AC
:10330800032000F06BF90F2000F008F8FEF776F8BC
:103318000023184680BD00BF003C024080B582B043
:1033280000AF7860124B1A68124B1B7819464FF49D
:103338007A73B3FBF1F3B2FBF3F3184600F091F99B
:103348000346002B01D001230EE07B680F2B0AD81F
:10335800002279684FF0FF3000F04BF9064A7B688D
:103368001360002300E0012318460837BD4680BDDE
:1033780004000020C4000020C000002080B400AF7A
:10338800054B1B781A46054B1B681344034A136008
:1033980000BFBD4680BC7047C4000020A02D00209F
:1033A80080B400AF024B1B681846BD4680BC70470E
:1033B800A02D002080B584B000AF7860FFF7F0FF43
:1033C800B8607B68FB60FB68B3F1FF3F05D00A4B30
:1033D8001B781A46FB681344FB6000BFFFF7E0FF49
:1033E8000246BB68D31AFA689A42F7D800BF00BFF2
:1033F8001037BD4680BD00BFC400002080B485B032
:1034080000AF78607B6803F00703FB600C4BDB6858
:10341800BB60BA684FF6FF031340BB60FB681A0233
:10342800BB68134343F0BF6343F40033BB60044AF3
:10343800BB68D36000BF1437BD4680BC704700BF6F
:1034480000ED00E080B400AF044BDB681B0A03F01A
:1034580007031846BD4680BC704700BF00ED00E07A
:1034680080B483B000AF0346FB7197F90730002B97
:103478000BDBFB7903F01F02064997F907305B095C
:10348800012000FA02F241F8232000BF0C37BD46A4
:1034980080BC704700E100E080B483B000AF034611
:1034A800FB7197F90730002B12DBFB7903F01F0241
:1034B8000A4997F907305B09012000FA02F2203324
:1034C80041F82320BFF34F8F00BFBFF36F8F00BFBA
:1034D80000BF0C37BD4680BC704700BF00E100E06C
:1034E80080B483B000AF03463960FB7197F90730A9
:1034F800002B0ADB3B68DAB20C4997F90730120156
:10350800D2B20B4483F800230AE03B68DAB20849D8
:10351800FB7903F00F03043B1201D2B20B441A7675
:1035280000BF0C37BD4680BC704700BF00E100E01B
:1035380000ED00E080B489B000AFF860B9607A604F
:10354800FB6803F00703FB61FB69C3F10703042B66
:1035580028BF0423BB61FB690433062B02D9FB692E
:10356800033B00E000237B614FF0FF32BB6902FAA6
:1035780003F3DA43BB681A407B699A404FF0FF3186
:103588007B6901FA03F3D9437B680B401343184660
:103598002437BD4680BC704780B582B000AF7860E4
:1035A8007B68013BB3F1807F01D301230FE00A4A16
:1035B8007B68013B53600F214FF0FF30FFF790FF0E
:1035C800054B00229A60044B07221A600023184614
:1035D8000837BD4680BD00BF10E000E080B582B06E
:1035E80000AF78607868FFF709FF00BF0837BD466D
:1035F80080BD80B586B000AF0346B9607A60FB73C2
:1036080000237B61FFF71EFF78617A68B9687869E3
:10361800FFF790FF024697F90F3011461846FFF75B
:103628005FFF00BF1837BD4680BD80B582B000AFD0
:103638000346FB7197F907301846FFF711FF00BFE3
:103648000837BD4680BD80B582B000AF0346FB7128
:1036580097F907301846FFF71FFF00BF0837BD4628
:1036680080BD80B582B000AF78607868FFF794FFBE
:10367800034618460837BD4680BD000080B586B0B1
:1036880000AF786000237B61FFF78AFE38617B68B2
:10369800002B01D1012399E07B68022283F83520B1
:1036A8007B68002283F834207B681B681A687B6873
:1036B8001B6822F001021A600FE0FFF771FE024654
:1036C8003B69D31A052B08D97B6820225A657B6889
:1036D800032283F83520032378E07B681B681B6886
:1036E80003F00103002BE8D17B681B681B687B6132
:1036F8007A69384B13407B617B685A687B689B68A2
:103708001A437B68DB681A437B681B691A437B682A
:103718005B691A437B689B691A437B68DB691A43B8
:103728007B681B6A13437A6913437B617B685B6A16
:10373800042B07D17B68DA6A7B681B6B13437A69B1
:1037480013437B617B681B687A691A607B681B6816
:103758005B697B617B6923F007037B617B685B6A3C
:103768007A6913437B617B685B6A042B17D17B689A
:103778009B6A7A6913437B617B68DB6A002B0ED0F6
:10378800786800F05DFB0346002B08D07B68402278
:103798005A657B68012283F83520012316E07B688F
:1037A8001B687A695A61786800F016FB0346FB606B
:1037B8007B68DB6D3F229A40FB689A607B68002239
:1037C8005A657B68012283F835200023184618378C
:1037D800BD4680BD3F8010F080B584B000AF7860F2
:1037E8007B68002B01D1012350E07B6893F83530CA
:1037F800DBB2022B01D1022348E07B681B681A6800
:103808007B681B6822F001021A607B681B68002233
:103818001A607B681B6800225A607B681B6800225C
:103828009A607B681B680022DA607B681B6800224C
:103838001A617B681B6821225A61786800F0CCFA0B
:103848000346FB607B680022DA637B6800221A6407
:103858007B6800225A647B6800229A647B68002295
:10386800DA647B6800221A657B68DB6D3F229A4028
:10387800FB689A607B6800225A657B68002283F89F
:1038880035207B68002283F834200023184610373F
:10389800BD4680BD80B586B000AFF860B9607A607B
:1038A8003B600023FB75FB689B6D3B61FB6893F8ED
:1038B8003430012B01D1022340E0FB68012283F858
:1038C8003420FB6893F83530DBB2012B2FD1FB682D
:1038D800022283F83520FB6800225A653B687A6823
:1038E800B968F86800F04AFAFB68DB6D3F229A4035
:1038F8003B699A60FB681B681A68FB681B6842F0A2
:1039080016021A60FB681B6C002B07D0FB681B684B
:103918001A68FB681B6842F008021A60FB681B689B
:103928001A68FB681B6842F001021A6005E0FB6830
:10393800002283F834200223FB75FB7D18461837D4
:10394800BD4680BD80B584B000AF78607B689B6D54
:10395800FB60FFF725FDB8607B6893F83530DBB274
:10396800022B08D07B6880225A657B68002283F886
:103978003420012352E07B681B681A687B681B6847
:1039880022F016021A607B681B685A697B681B68FC
:1039980022F080025A617B681B6C002B03D17B6884
:1039A8009B6C002B07D07B681B681A687B681B68B8
:1039B80022F008021A607B681B681A687B681B681B
:1039C80022F001021A6013E0FFF7EAFC0246BB6826
:1039D800D31A052B0CD97B6820225A657B680322F1
:1039E80083F835207B68002283F83420032315E010
:1039F8007B681B681B6803F00103002BE4D17B681C
:103A0800DB6D3F229A40FB689A607B68012283F84D
:103A180035207B68002283F83420002318461037AD
:103A2800BD4680BD80B483B000AF78607B6893F8F2
:103A38003530DBB2022B04D07B6880225A65012323
:103A48000CE07B68052283F835207B681B681A68C0
:103A58007B681B6822F001021A60002318460C37A5
:103A6800BD4680BC7047000080B586B000AF786066
:103A78000023BB608E4B1B688E4AA2FB03239B0A64
:103A88007B617B689B6D3B613B691B68FB607B6866
:103A9800DB6D08229A40FB681340002B1AD07B6824
:103AA8001B681B6803F00403002B13D07B681B689A
:103AB8001A687B681B6822F004021A607B68DB6D59
:103AC80008229A403B699A607B685B6D43F001026B
:103AD8007B685A657B68DB6D01229A40FB6813405E
:103AE800002B12D07B681B685B6903F08003002BF6
:103AF8000BD07B68DB6D01229A403B699A607B683A
:103B08005B6D43F002027B685A657B68DB6D0422BB
:103B18009A40FB681340002B12D07B681B681B6817
:103B280003F00203002B0BD07B68DB6D04229A4064
:103B38003B699A607B685B6D43F004027B685A6559
:103B48007B68DB6D10229A40FB681340002B43D042
:103B58007B681B681B6803F00803002B3CD07B685C
:103B6800DB6D10229A403B699A607B681B681B6872
:103B780003F48023002B18D07B681B681B6803F4B0
:103B88000023002B08D17B681B6C002B24D07B689A
:103B98001B6C786898471FE07B689B6C002B1BD0D8
:103BA8007B689B6C7868984716E07B681B681B6885
:103BB80003F48073002B07D17B681B681A687B6845
:103BC8001B6822F008021A607B681B6C002B03D06C
:103BD8007B681B6C786898477B68DB6D20229A406D
:103BE800FB681340002B00F08F807B681B681B6804
:103BF80003F01003002B00F087807B68DB6D202228
:103C08009A403B699A607B6893F83530DBB2052BA4
:103C180036D17B681B681A687B681B6822F016021D
:103C28001A607B681B685A697B681B6822F08002EF
:103C38005A617B681B6C002B03D17B689B6C002B43
:103C480007D07B681B681A687B681B6822F008022B
:103C58001A607B68DB6D3F229A403B699A607B68FB
:103C6800012283F835207B68002283F834207B68A2
:103C78001B6D002B7ED07B681B6D7868984779E0B8
:103C88007B681B681B6803F48023002B1DD07B68AE
:103C98001B681B6803F40023002B0DD17B685B6C49
:103CA800002B31D07B685B6C786898472CE000BFAC
:103CB80004000020B5814E1B7B68DB6B002B23D0F2
:103CC8007B68DB6B786898471EE07B681B681B681D
:103CD80003F48073002B0FD17B681B681A687B681C
:103CE8001B6822F010021A607B68012283F83520D5
:103CF8007B68002283F834207B68DB6B002B03D0C1
:103D08007B68DB6B786898477B685B6D002B32D0EB
:103D18007B685B6D03F00103002B22D07B680522D2
:103D280083F835207B681B681A687B681B6822F05B
:103D380001021A60BB680133BB607A699A4207D3F3
:103D48007B681B681B6803F00103002BF2D100E0BD
:103D580000BF7B68012283F835207B68002283F846
:103D680034207B68DB6C002B05D07B68DB6C7868C3
:103D7800984700E000BF1837BD4680BD80B485B0C5
:103D880000AFF860B9607A603B60FB681B681A682E
:103D9800FB681B6822F480221A60FB681B683A687B
:103DA8005A60FB689B68402B08D1FB681B687A68DF
:103DB8009A60FB681B68BA68DA6007E0FB681B68F2
:103DC800BA689A60FB681B687A68DA6000BF1437C3
:103DD800BD4680BC7047000080B485B000AF7860F5
:103DE8007B681B68DBB2103B134AA2FB03231B0949
:103DF800FB60124AFB6813441B781A467B68DA6535
:103E0800FB68032B09D97B681B6823F47F7323F0B5
:103E180003031A1D7B689A6507E07B681B6823F417
:103E28007F7323F003037A6893657B689B6D18465C
:103E38001437BD4680BC7047ABAAAAAA90FF0008F9
:103E480080B485B000AF78600023FB737B689B6A01
:103E5800BB607B689B69002B1FD1BB68032B56D8BE
:103E680001A252F823F000BF813E0008933E0008EB
:103E7800813E0008173F00087B68DB6A03F0807307
:103E8800002B46D00123FB7343E07B68DB6AB3F168
:103E9800C07F40D10123FB733DE07B689B69B3F58C
:103EA800005F21D1BB68032B37D801A252F823F059
:103EB800C93E0008CF3E0008C93E0008E13E0008A0
:103EC8000123FB7330E07B68DB6A03F08073002B0F
:103ED80025D00123FB7322E07B68DB6AB3F1C07F46
:103EE8001FD10123FB731CE0BB68022B03D9BB68FD
:103EF800032B03D018E00123FB7315E07B68DB6A12
:103F080003F08073002B0ED00123FB730BE000BF7E
:103F18000AE000BF08E000BF06E000BF04E000BF01
:103F280002E000BF00E000BFFB7B18461437BD4627
:103F380080BC704780B586B000AFF860B960C7E94B
:103F480000230123FB75234B1B7E012B01D1022388
:103F58003BE0204B01221A764CF2503000F070F80A
:103F68000346FB75FB7D002B2BD1FB68002B05D18D
:103F78003B781946B86800F019F916E0FB68012B80
:103F880005D13B881946B86800F0EEF80DE0FB68EB
:103F9800022B05D13B681946B86800F0C3F804E065
:103FA800D7E90023B86800F08BF84CF2503000F0E5
:103FB80047F80346FB75084B1B69074A23F00103C2
:103FC8001361044B00221A76FB7D18461837BD464C
:103FD80080BD00BFA42D0020003C024080B483B007
:103FE80000AF0023FB710B4B1B69002B0BDA094B4D
:103FF800094A5A60074B094A5A60064B1B69002B4D
:1040080001DA0123FB71FB7918460C37BD4680BCE9
:10401800704700BF003C024023016745AB89EFCDE4
:1040280080B400AF054B1B69044A43F00043136199
:1040380000231846BD4680BC704700BF003C0240C4
:1040480080B584B000AF78600023FB601A4B002273
:10405800DA61FFF7A5F9F86010E07B68B3F1FF3F7C
:104068000CD07B68002B07D0FFF79AF90246FB6853
:10407800D31A7A689A4201D2032319E00F4BDB68FE
:1040880003F48033002BE8D10C4BDB6803F0010309
:10409800002B02D0094B0122DA60084BDB6803F0E1
:1040A800F203002B03D000F0A1F8012300E0002365
:1040B80018461037BD4680BDA42D0020003C0240A4
:1040C80080B485B000AFF860C7E90023144B1B69C2
:1040D800134A23F440731361114B1B69104A43F4CC
:1040E800407313610E4B1B690D4A43F001031361C2
:1040F800FB683A681A60BFF36F8F00BFD7E9000109
:104108004FF000024FF000030A000023F968043161
:1041180013460B6000BF1437BD4680BC704700BF14
:10412800003C024080B483B000AF786039600D4B2A
:104138001B690C4A23F4407313610A4B1B69094A33
:1041480043F400731361074B1B69064A43F00103EC
:1041580013617B683A681A6000BF0C37BD4680BCA3
:10416800704700BF003C024080B483B000AF786065
:104178000B467B800C4B1B690B4A23F4407313617D
:10418800094B1B69084A43F480731361064B1B698A
:10419800054A43F0010313617B687A881A8000BFDF
:1041A8000C37BD4680BC7047003C024080B483B0E9
:1041B80000AF78600B46FB700B4B1B690A4A23F46F
:1041C80040731361084B084A1B691361064B1B694E
:1041D800054A43F0010313617B68FA781A7000BF3F
:1041E8000C37BD4680BC7047003C024080B400AF2D
:1041F800274BDB6803F01003002B08D0254BDB6945
:1042080043F00803234AD361214B1022DA60204B84
:10421800DB6803F02003002B08D01E4BDB6943F05A
:1042280004031C4AD3611A4B2022DA60184BDB685E
:1042380003F04003002B08D0164BDB6943F0020360
:10424800144AD361124B4022DA60114BDB6803F049
:104258008003002B08D00F4BDB6943F001030D4AA4
:10426800D3610B4B8022DA60094BDB6803F0020351
:10427800002B08D0074BDB6943F01003054AD361D4
:10428800034B0222DA6000BFBD4680BC704700BF06
:10429800003C0240A42D002080B584B000AF7860B7
:1042A80039600123FB730023BB60314B1B7E012B5C
:1042B80001D1022358E02E4B01221A764CF25030DD
:1042C800FFF7BEFE0346FB73FB7B002B48D13B6820
:1042D8004FF0FF321A607B681B68012B15D17B6891
:1042E8001B69DAB27B685B681946104600F0DAF899
:1042F8004CF25030FFF7A4FE0346FB731D4B1B69BD
:104308001C4A23F00403136128E07B689B68BB60A8
:104318001CE07B681B69DBB21946B86800F02CF812
:104328004CF25030FFF78CFE0346FB73114B1B69B0
:10433800104A23F0FA031361FB7B002B03D03B6880
:10434800BA681A600AE0BB680133BB607B68DA6848
:104358007B689B681344BA689A42DAD300F05EF827
:10436800034B00221A76FB7B18461037BD4680BDEA
:10437800A42D0020003C024080B487B000AF7860D4
:104388000B46FB7000237B61FB78002B02D10023D6
:104398007B6110E0FB78012B03D14FF480737B61C4
:1043A80009E0FB78022B03D14FF400737B6102E034
:1043B8004FF440737B61184B1B69174A23F4407311
:1043C8001361154B1A6914497B6913430B61124B2E
:1043D8001B69114A23F0F8031361F8233B613B6919
:1043E80093FAA3F3FB60FB68B3FA83F3DBB21A46D4
:1043F8007B68934043F00202074B1B69064913434D
:104408000B61054B1B69044A43F48033136100BFF9
:104418001C37BD4680BC7047003C024080B400AFEA
:104428001F4B1B6803F40073002B17D01C4B1B6831
:104438001B4A23F400731360194B1B68184A43F492
:1044480000631360164B1B68154A23F4006313605E
:10445800134B1B68124A43F400731360104B1B681C
:1044680003F48063002B17D00D4B1B680C4A23F410
:10447800806313600A4B1B68094A43F48053136036
:10448800074B1B68064A23F480531360044B1B68D0
:10449800034A43F48063136000BFBD4680BC704785
:1044A800003C024080B483B000AF03463960FB7122
:1044B8000C4B1B690B4A23F440731361094B1B69AE
:1044C800084A43F004031361064B1A69FB791B027F
:1044D8001343044A43F48033136100BF0C37BD46CD
:1044E80080BC7047003C024080B487B000AF786061
:1044F800396000237B616FE13B681A6801217B69A1
:1045080001FA03F31340FB60FB68002B00F06181A4
:104518003B685B6803F00303012B05D03B685B68CD
:1045280003F00303022B30D17B689B683B617B69F6
:104538005B00032202FA03F3DB433A6913403B6151
:104548003B68DA687B695B0002FA03F33A69134354
:104558003B617B683A699A607B685B683B610122D2
:104568007B6902FA03F3DB433A6913403B613B681A
:104578005B681B0903F001027B6902FA03F33A69DD
:1045880013433B617B683A695A603B685B6803F098
:104598000303032B17D07B68DB683B617B695B00F7
:1045A800032202FA03F3DB433A6913403B613B6899
:1045B8009A687B695B0002FA03F33A6913433B612B
:1045C8007B683A69DA603B685B6803F00303022B97
:1045D80023D17B69DA087B68083253F822303B61C3
:1045E8007B6903F007039B000F2202FA03F3DB4306
:1045F8003A6913403B613B681A697B6903F007031A
:104608009B0002FA03F33A6913433B617B69DA08BA
:104618007B680832396943F822107B681B683B6164
:104628007B695B00032202FA03F3DB433A69134018
:104638003B613B685B6803F003027B695B0002FA3D
:1046480003F33A6913433B617B683A691A603B6834
:104658005B6803F44033002B00F0BB800023BB6091
:10466800644B5B6C634A43F480435364614B5B6CFB
:1046780003F48043BB60BB685F4A7B699B080233D5
:1046880052F823303B617B6903F003039B000F2240
:1046980002FA03F3DB433A6913403B617B68574AEC
:1046A800934231D07B68564A93422BD07B68554A57
:1046B800934225D07B68544A93421FD07B68534A63
:1046C800934219D07B68524A934213D07B68514A6F
:1046D80093420DD07B68504A934207D07B684F4A7B
:1046E800934201D1082310E009230EE007230CE0D0
:1046F80006230AE0052308E0042306E0032304E078
:10470800022302E0012300E000237A6902F0030299
:10471800920093401A463B6913433B6136497B69D3
:104728009B0802333A6941F823203D4B1B683B61E3
:10473800FB68DB433A6913403B613B685B6803F401
:104748008033002B03D03A69FB6813433B61344A3A
:104758003B691360324B5B683B61FB68DB433A693A
:1047680013403B613B685B6803F40033002B03D0C4
:104778003A69FB6813433B61294A3B695360284BFC
:104788009B683B61FB68DB433A6913403B613B68CC
:104798005B6803F48013002B03D03A69FB6813436A
:1047A8003B611F4A3B6993601D4BDB683B61FB68BB
:1047B800DB433A6913403B613B685B6803F40013D1
:1047C800002B03D03A69FB6813433B61144A3B69E9
:1047D800D3607B6901337B613B681A687B6922FA85
:1047E80003F3002B7FF488AE00BF00BF1C37BD4623
:1047F80080BC704700380240003801400000024089
:104808000004024000080240000C02400010024070
:104818000014024000180240001C02400020024020
:10482800003C014080B487B000AF78603960002355
:104838007B61D1E001227B6902FA03F33A681340F5
:104848003B613B69002B00F0C4806A4A7B699B0886
:10485800023352F82330FB607B6903F003039B00AB
:104868000F2202FA03F3FA681340FB607B68624A7E
:10487800934231D07B68614A93422BD07B68604A6F
:10488800934225D07B685F4A93421FD07B685E4A7B
:10489800934219D07B685D4A934213D07B685C4A87
:1048A80093420DD07B685B4A934207D07B685A4A93
:1048B800934201D1082310E009230EE007230CE0FE
:1048C80006230AE0052308E0042306E0032304E0A6
:1048D800022302E0012300E000237A6902F00302C8
:1048E800920003FA02F2FB689A4232D14B4B1A68E3
:1048F8003B69DB43494913400B60484B5A683B69A5
:10490800DB43464913404B60444B9A683B69DB43A1
:10491800424913408B60414BDA683B69DB433F49AE
:104928001340CB607B6903F003039B000F2202FA5C
:1049380003F3FB602F4A7B699B08023352F823106C
:10494800FB68DA432B487B699B080A40023340F82E
:1049580023207B681A687B695B00032101FA03F353
:10496800DB431A407B681A607B69DA087B68083287
:1049780053F822107B6903F007039B000F2202FA09
:1049880003F3DB437A69D20819407B68083243F89D
:1049980022107B68DA687B695B00032101FA03F364
:1049A800DB431A407B68DA607B685A6801217B69BF
:1049B80001FA03F3DB431A407B685A607B689A6804
:1049C8007B695B00032101FA03F3DB431A407B6830
:1049D8009A607B6901337B613A687B6922FA03F349
:1049E800002B7FF427AF00BF00BF1C37BD4680BC3B
:1049F800704700BF00380140000002400004024038
:104A080000080240000C024000100240001402405E
:104A180000180240001C024000200240003C0140F7
:104A280080B485B000AF78600B467B807B681A69DC
:104A38007B881340002B02D00123FB7301E0002385
:104A4800FB73FB7B18461437BD4680BC704780B4A7
:104A580083B000AF78600B467B8013467B707B7811
:104A6800002B03D07A887B689A6103E07B881A045C
:104A78007B689A6100BF0C37BD4680BC704780B424
:104A880085B000AF78600B467B807B685B69FB6014
:104A98007A88FB6813401A04FB68D9437B880B406B
:104AA8001A437B689A6100BF1437BD4680BC7047C3
:104AB800F0B58FB00AAF78607B68002B01D1012375
:104AC8000FE17B681B68BB607B6893F8BD33DBB282
:104AD800002B06D17B68002283F8BC23786805F098
:104AE8008DFF7B68032283F8BD23BB68DB6B03F46F
:104AF8008073002B02D17B6800221A617B681B68D7
:104B0800184602F077FE7B681B683B607E686D463E
:104B180006F110040FCC0FC50FCC0FC594E80300A5
:104B280085E80300331D0ECB386802F059FD0346B3
:104B3800002B05D07B68022283F8BD230123D0E037
:104B48007B681B680021184602F064FE0023FB7393
:104B58004AE0FA7B79681346DB009B1A9B000B44FA
:104B68003D3301221A70FA7B79681346DB009B1AE1
:104B78009B000B443C33FA7B1A70FA7BFB7B98B2A0
:104B880079681346DB009B1A9B000B4442330246AC
:104B98001A80FA7B79681346DB009B1A9B000B444A
:104BA8003F3300221A70FA7B79681346DB009B1AA0
:104BB8009B000B44443300221A60FA7B7968134641
:104BC800DB009B1A9B000B44483300221A60FA7BD7
:104BD80079681346DB009B1A9B000B445033002274
:104BE8001A60FB7B0133FB73FA7B7B685B689A4234
:104BF800AFD30023FB7344E0FA7B79681346DB00EC
:104C08009B1A9B000B4403F2FD1300221A70FA7BD7
:104C180079681346DB009B1A9B000B4403F5FE736F
:104C2800FA7B1A70FA7B79681346DB009B1A9B00A3
:104C38000B4403F2FF1300221A70FA7B79681346BB
:104C4800DB009B1A9B000B4403F5017300221A60DA
:104C5800FA7B79681346DB009B1A9B000B4403F52B
:104C6800027300221A60FA7B79681346DB009B1AEC
:104C78009B000B4403F5047300221A60FB7B01338D
:104C8800FB73FA7B7B685B689A42B5D37B681B68C9
:104C98003B607E686D4606F110040FCC0FC50FCC43
:104CA8000FC594E8030085E80300331D0ECB386870
:104CB80002F0FCFD0346002B05D07B68022283F836
:104CC800BD2301230DE07B68002283F838207B6830
:104CD800012283F8BD237B681B68184603F06DFE2C
:104CE800002318461437BD46F0BD80B582B000AF2A
:104CF80078607B6893F8BC33012B01D1022312E062
:104D08007B68012283F8BC237B681B68184602F085
:104D180061FD7B681B68184603F02FFE7B68002244
:104D280083F8BC23002318460837BD4680BD90B5DC
:104D38008DB000AF78607B681B683B623B6AFB61A3
:104D48007B681B68184603F0E6FE0346002B40F01C
:104D58008F837B681B68184603F04FFE0346002BC1
:104D680000F085837B681B68184603F046FE0346FF
:104D780003F00203022B07D17B681B685A697B6822
:104D88001B6802F002025A617B681B68184603F030
:104D980034FE034603F01003102B61D17B681B68B7
:104DA8009A697B681B6822F010029A613B6A1B6A49
:104DB800BB61BB6903F00F021346DB009B1A9B0023
:104DC80003F5FC737A68134404337B61BB695B0C9D
:104DD80003F00F03022B24D1BA6947F6F07313408E
:104DE800002B35D07B69D968BB691B099BB2C3F31B
:104DF8000A039BB21A46386A03F071FC7B69DA68C9
:104E0800BB691B09C3F30A031A447B69DA607B692F
:104E18009A69BB691B09C3F30A031A447B699A613F
:104E280016E0BB695B0C03F00F03062B10D17B68FF
:104E380003F5717308221946386A03F050FC7B6940
:104E48009A69BB691B09C3F30A031A447B699A610F
:104E58007B681B689A697B681B6842F010029A613C
:104E68007B681B68184603F0C8FD034603F400235B
:104E7800B3F5002F6ED100237B627B681B68184650
:104E880003F0CDFDB86262E0BB6A03F00103002BBA
:104E980057D07B681B687A6AD2B21146184603F06D
:104EA800F0FD38613B6903F00103002B0CD07B6AED
:104EB8005A01FB69134403F530631A4601239360D2
:104EC800796A786800F0A2FD3B6903F00803002BBB
:104ED8000CD07B6A5A01FB69134403F530631A4608
:104EE80008239360796A786800F09CFE3B6903F0B8
:104EF8001003002B08D07B6A5A01FB69134403F5A1
:104F080030631A46102393603B6903F02003002B9B
:104F180008D07B6A5A01FB69134403F530631A46CB
:104F2800202393603B6903F40053002B09D07B6A6C
:104F38005A01FB69134403F530631A464FF40053D2
:104F480093607B6A01337B62BB6A5B08BB62BB6AA6
:104F5800002B99D17B681B68184603F04EFD034669
:104F680003F48023B3F5802F40F0C0807B681B6872
:104F7800184603F06DFDB86200237B62B2E0BB6A9D
:104F880003F00103002B00F0A7807B681B687A6A96
:104F9800D2B21146184603F091FD38613B6903F01F
:104FA8000103002B57D07B6A03F00F03012202FA9A
:104FB80003F3FB60FB6903F500635A6BFB68DB4393
:104FC800F96901F5006113404B637B6A5A01FB697B
:104FD800134403F510631A46012393607B681B6929
:104FE800012B32D179687A6A1346DB009B1A9B0041
:104FF8000B444833196878687A6A1346DB009B1AB1
:105008009B00034444331B68194478687A6A134642
:10501800DB009B1A9B000344483319607B6A002B12
:1050280013D179687A6A1346DB009B1A9B000B44FC
:1050380050331B68002B08D17B6818687B6803F520
:1050480071731A46012103F095FD7B6ADBB219469C
:10505800786805F054FD3B6903F00803002B08D07D
:105068007B6A5A01FB69134403F510631A46082347
:1050780093603B6903F01003002B08D07B6A5A0148
:10508800FB69134403F510631A46102393603B69C8
:1050980003F04003002B08D07B6A5A01FB691344D4
:1050A80003F510631A46402393603B6903F002033B
:1050B800002B08D07B6A5A01FB69134403F510637F
:1050C8001A46022393603B6903F08003002B03D048
:1050D800796A786800F00CFC7B6A01337B62BB6AF2
:1050E8005B08BB62BB6A002B7FF449AF7B681B6817
:1050F800184603F082FC034603F00043B3F1004F67
:1051080014D1FB6903F500635B68FA6902F5006274
:1051180023F001035360786805F068FD7B681B681D
:105128005A697B681B6802F000425A617B681B68F9
:10513800184603F062FC034603F40063B3F5006FFE
:1051480012D1FB6903F500639B6803F00103012B8F
:1051580002D1786805F024FD7B681B685A697B6872
:105168001B6802F400625A617B681B68184603F0EA
:1051780044FC034603F48053B3F5805F40F0C780D6
:10518800FB6903F500635B68FA6902F5006223F0C6
:10519800010353607B681B681021184602F0EAFC83
:1051A8000023FB6256E0FB6A5A01FB69134403F5CE
:1051B80010631A464FF67F339360FB6A5A01FB6906
:1051C800134403F510631B68FA6A5101FA690A442B
:1051D80002F5106223F400131360FB6A5A01FB699D
:1051E800134403F510631B68FA6A5101FA690A440B
:1051F80002F5106243F000631360FB6A5A01FB6911
:10520800134403F530631A464FF67F339360FB6A05
:105218005A01FB69134403F530631B68FA6A5101AC
:10522800FA690A4402F5306223F400131360FB6A3A
:105238005A01FB69134403F530631B68FA6A51018C
:10524800FA690A4402F5306243F000631360FB6AAE
:105258000133FB627B685B68FA6A9A42A3D3FB69F5
:1052680003F50063DB69FA6902F5006243F0011394
:10527800D3617B681B6B002B16D0FB6903F50063B9
:10528800D3F88430FA6902F5006243F00B03C2F8E0
:105298008430FB6903F500635B6CFA6902F5006210
:1052A80043F00B03536415E0FB6903F500635B6986
:1052B800FA6902F5006243F4005343F02B0353618B
:1052C800FB6903F500631B69FA6902F5006243F0A4
:1052D8000B031361FB6903F500631B68FA6902F5A8
:1052E800006223F4FE6313607B6818687B681B699F
:1052F800D9B27B6803F571731A4603F03BFC7B68EF
:105308001B685A697B681B6802F480525A617B6883
:105318001B68184603F071FB034603F40053B3F50A
:10532800005F24D17B681B68184603F001FC7B688A
:105338001B68184602F07AFC03461A467B68DA6056
:105348007B681C6801F00AF901467B68DB68DBB200
:105358001A46204602F09CF9786805F0F8FB7B684D
:105368001B685A697B681B6802F400525A617B68A3
:105378001B68184603F041FB034603F00803082B9B
:105388000AD1786805F0D5FB7B681B685A697B6889
:105398001B6802F008025A617B681B68184603F014
:1053A8002CFB034603F48013B3F5801F0FD10023B1
:1053B8007B627B6ADBB21946786805F037FC7B684C
:1053C8001B685A697B681B6802F480125A617B6803
:1053D8001B68184603F011FB034603F40013B3F5EA
:1053E800001F0FD100237B627B6ADBB21946786805
:1053F80005F00AFC7B681B685A697B681B6802F425
:1054080000125A617B681B68184603F0F6FA0346D7
:1054180003F08043B3F1804F0AD1786805F018FC97
:105428007B681B685A697B681B6802F080425A6176
:105438007B681B68184603F0E0FA034603F0040390
:10544800042B15D17B681B685B68BB61BB6903F0E3
:105458000403002B02D0786805F008FC7B681B6801
:1054680059687B681B68BA690A435A6000E000BF44
:105478003437BD4690BD80B582B000AF78600B462A
:10548800FB707B6893F8BC33012B01D1022313E036
:105498007B68012283F8BC237B68FA7883F838207C
:1054A8007B681B68FA781146184603F041FA7B6856
:1054B800002283F8BC23002318460837BD4680BD68
:1054C80080B584B000AF7860084611461A46034696
:1054D800FB700B463B801346BB700023FB7297F9A9
:1054E8000330002B0FDAFB7803F00F021346DB00C2
:1054F8009B1A9B0038337A6813440433FB60FB68BB
:1055080001225A700FE0FB7803F00F021346DB000C
:105518009B1A9B0003F5FC737A6813440433FB6001
:10552800FB6800225A70FB7803F00F03DAB2FB68BD
:105538001A703A88FB689A60FB68BA78DA70FB6878
:105548005B78002B04D0FB681B789AB2FB68DA8082
:10555800BB78022B02D1FB6800221A717B6893F892
:10556800BC33012B01D102230EE07B68012283F8B2
:10557800BC237B681B68F968184602F07BFB7B68D4
:10558800002283F8BC23FB7A18461037BD4680BD3D
:1055980080B584B000AF78600B46FB7097F9033094
:1055A800002B0FDAFB7803F00F021346DB009B1A7F
:1055B8009B0038337A6813440433FB60FB6801228C
:1055C8005A700FE0FB7803F00F021346DB009B1ABA
:1055D8009B0003F5FC737A6813440433FB60FB6893
:1055E80000225A70FB7803F00F03DAB2FB681A70D6
:1055F8007B6893F8BC33012B01D102230EE07B6852
:10560800012283F8BC237B681B68F968184602F0FE
:10561800B7FB7B68002283F8BC23002318461037A9
:10562800BD4680BD80B586B000AFF8607A603B604B
:105638000B46FB72FB7A03F00F021346DB009B1A42
:105648009B0003F5FC73FA68134404337B617B69A0
:105658007A68DA607B693A685A617B6900229A61E4
:105668007B6900225A70FB7A03F00F03DAB27B6978
:105678001A70FB681B69012B02D17A687B691A6171
:10568800FB7A03F00F03002B09D1FB681868FB684D
:105698001B69DBB21A46796902F092FE08E0FB68E2
:1056A8001868FB681B69DBB21A46796902F044FC8A
:1056B800002318461837BD4680BD80B483B000AFBC
:1056C80078600B46FB70FB7803F00F02796813468D
:1056D800DB009B1A9B000B4403F505731B681846F7
:1056E8000C37BD4680BC704780B586B000AFF86007
:1056F8007A603B600B46FB72FB7A03F00F0213469D
:10570800DB009B1A9B003833FA68134404337B612F
:105718007B697A68DA607B693A685A617B6900223A
:105728009A617B6901225A70FB7A03F00F03DAB29F
:105738007B691A70FB681B69012B02D17A687B6947
:105748001A61FB7A03F00F03002B09D1FB68186874
:10575800FB681B69DBB21A46796902F031FE08E082
:10576800FB681868FB681B69DBB21A46796902F0A6
:10577800E3FB002318461837BD4680BD80B584B0CA
:1057880000AF78600B46FB70FB7803F00F027B6874
:105798005B689A4201D9012350E097F90330002B46
:1057A8000FDAFB7803F00F021346DB009B1A9B000D
:1057B80038337A6813440433FB60FB6801225A705B
:1057C8000DE0FA781346DB009B1A9B0003F5FC7387
:1057D8007A6813440433FB60FB6800225A70FB6844
:1057E80001229A70FB7803F00F03DAB2FB681A7093
:1057F8007B6893F8BC33012B01D102231EE07B6840
:10580800012283F8BC237B681B68F968184602F0FC
:10581800BDFFFB7803F00F03002B0AD17B681868E3
:105828007B681B69D9B27B6803F571731A4603F06C
:10583800A1F97B68002283F8BC230023184610379F
:10584800BD4680BD80B584B000AF78600B46FB7064
:10585800FB7803F00F027B685B689A4201D9012349
:1058680042E097F90330002B0FDAFB7803F00F02C0
:105878001346DB009B1A9B0038337A6813440433C1
:10588800FB60FB6801225A700FE0FB7803F00F02FF
:105898001346DB009B1A9B0003F5FC737A681344DC
:1058A8000433FB60FB6800225A70FB6800229A7080
:1058B800FB7803F00F03DAB2FB681A707B6893F881
:1058C800BC33012B01D102230EE07B68012283F84F
:1058D800BC237B681B68F968184602F0C4FF7B6824
:1058E800002283F8BC23002318461037BD4680BD2C
:1058F80080B58AB002AF786039607B681B687B61CD
:105908007B693B613A681346DB009B1A9B0038337E
:105918007A6813440433FB60FB689A69FB685B6927
:105928009A4201D901236CE0FB685A69FB689B69BC
:10593800D31AFB61FB689B68FA699A4202D9FB6833
:105948009B68FB61FB6903339B08BB612BE0FB6829
:105958005A69FB689B69D31AFB61FB689B68FA6903
:105968009A4202D9FB689B68FB61FB6903339B0879
:10597800BB61FB68D9683B68DAB2FB6998B27B689F
:105988001B69DBB200930346786902F06BFEFB6883
:10599800DA68FB691A44FB68DA60FB689A69FB6994
:1059A8001A44FB689A613B685A013B69134403F542
:1059B80010639B699BB2BA699A4209D8FB689A69D5
:1059C800FB685B699A4203D2FB685B69002BBED116
:1059D800FB685A69FB689B699A4211D83B6803F0D7
:1059E8000F03012202FA03F3BB603B6903F500636E
:1059F8005A6BBB68DB43396901F5006113404B639F
:105A0800002318462037BD4680BD000080B586B00B
:105A180000AF786039607B681B687B617B693B619C
:105A28007B693C3304331B68FB603B685A013B6964
:105A3800134403F530639B68BB607B681B69012BCB
:105A480040F0A080BB6803F00803002B15D0FB686A
:105A5800724A934240F2DD80BB6803F40043002B96
:105A680000F0D7803B685A013B69134403F5306363
:105A78001A464FF400439360CBE0BB6803F0200361
:105A8800002B09D03B685A013B69134403F5306386
:105A98001A4620239360BCE0BB6803F02803002B60
:105AA80040F0B780FB685D4A93420FD9BB6803F4A6
:105AB8000043002B0AD03B685A013B69134403F5A5
:105AC80030631A464FF400439360A2E079683A685D
